:020000040800F2
:10500000880E0020795200087D760008417400085F
:1050100005750008BD6D00084D8A000800000000FD
:10502000000000000000000000000000257A0008D9
:10503000B96F00080000000035780008F97B00080F
:1050400093520008935200089352000893520008AC
:10505000935200089352000893520008935200089C
:10506000935200089352000893520008935200088C
:10507000935200089352000893520008935200087C
:10508000935200089352000893520008935200086C
:10509000935200089352000893520008935200085C
:1050A000935200089352000893520008935200084C
:1050B000935200089352000893520008935200083C
:1050C000935200089352000893520008935200082C
:1050D00093520008017D0008297F00084D810008D7
:1050E000935200089352000893520008935200080C
:1050F00093520008935200089352000893520008FC
:1051000093520008935200089352000893520008EB
:1051100093520008935200089352000893520008DB
:1051200093520008935200089352000893520008CB
:1051300000F002F800F090F80AA090E8000C824419
:105140008344AAF10107DA4501D100F085F8AFF2F6
:10515000090EBAE80F0013F0010F18BFFB1A43F055
:1051600001031847983D0000B83D0000103A24BFE5
:1051700078C878C1FAD8520724BF30C830C144BFBC
:1051800004680C60704700000023002400250026FE
:10519000103A28BF78C1FBD8520728BF30C148BF9A
:1051A0000B6070476E2900F06883702900F09D84C1
:1051B000662903F01F86652903F01C86672903F022
:1051C0001986612903F0188603681B0A28BF41F07D
:1051D0008001692900F03881642900F03581752942
:1051E00000F032816F2900F02A84782900F0698468
:1051F000E92900F06581E42900F06281F52900F0D9
:105200005F81EF2900F02784F82900F068840368A3
:10521000DB0928BF41F08001632900F07283732904
:1052200000F07783E32901F00380F32901F008807F
:10523000002070471FB501F059F80400002000213C
:1052400003F0C2FD401C60600020002103F0A6FDB9
:10525000E0601FBD10B510BD01F01AF81146FFF750
:10526000E9FF03F09DFC01F0F7F803B4FFF7F2FF4C
:1052700003BC03F007FC00000948804709480047C9
:10528000FEE7FEE7FEE7FEE7FEE7FEE7FEE7FEE7F6
:10529000FEE7FEE704480549054A064B7047000053
:1052A000117C00083151000888080020880E002079
:1052B000880A0020880A0020704753EA020C00F098
:1052C00069802DE9F04B4FF00006002B1FBFB3FAA9
:1052D00083F503FA05F424FA05F65E4012BF16437F
:1052E000B2FA82F502FA05F4C5F120051EBF22FAD2
:1052F00005FC44EA0C04203556EA044C4FEA1444F9
:1053000018BF641C4FF000084FF00009904271EB89
:10531000030C39D3002919BFB1FA81F701FA07F656
:10532000B0FA80F700FA07F6C7F120071EBF20FA8F
:1053300007FC46EA0C062037B6FBF4FCA7EB050792
:10534000103F07F01F0BCBF120060CFA0BFB2CFAD9
:1053500006F644BFB3460026202FA4BF5E464FF09A
:10536000000B5BEA060C08BF4FF0010B19EB0B09B1
:10537000ABFB027C48EB0608C01B06FB02CC0BFB18
:1053800003CC71EB0C01C1E70B460246414648468F
:10539000BDE8F08B13B54FF000004FF00001AFF304
:1053A0000080BDE81C4070477CB51D4616460C00C9
:1053B000009001D02044401E074B7B442A4669469A
:1053C0000190304600F073FA05461CB10020694692
:1053D00000F080FA28467CBD210500000FB4044986
:1053E00010B503AA029800F099FA10BC5DF814FBFE
:1053F0000000002070B50C460546012A05D028782B
:10540000800600D5EA69002302E0012305E05B1C69
:10541000934202D2E05C0028F9D1A869E618C01ACC
:10542000A861286A18442862284600F094F904E02C
:10543000D5E9012114F8010B9047B442F8D328466E
:1054400000F09FF970BD00002DE9F04106460024F0
:1054500010687529314616A510D000F0A3F9002870
:1054600002DA404213A507E031688A0701D512A588
:1054700002E0490704D511A5012401E000F09BF9E1
:1054800000210A2206F1240709E0B0FBF2FCB0FB80
:10549000F2F302FB1C00303078541846491C0028F7
:1054A000F3D123462A463046BDE8F04100F08CB9DE
:1054B000000000002D0000002B0000002000000074
:1054C0002DE9F0418046D21D22F007020025D2E9E5
:1054D0000002F52915A614D0011E72F1000106DAAA
:1054E0000023D0EB030063EB020211A608E0D8F81A
:1054F00000108B0701D50FA602E0490701D50EA6C3
:1055000001251146002408F1240704E000F0DEF82C
:1055100030323A55641C50EA0102F7D12B4632462C
:1055200021464046BDE8F04100F04EB900000000C1
:105530002D0000002B000000200000002DE9F05F8E
:10554000894604464FF0000ADFF874B1FB44C0F806
:1055500020A02046E1688847002874D0252806D07E
:10556000D4E901219047206A401C2062F1E700261F
:105570005F462046E16888472028054607DB312D35
:1055800005D2781910F8200C08B10643F1E7B007EE
:1055900001D526F00406C4F81CA00027C4F818A002
:1055A0002A2D09D0284603F066FA38B304EB8708A1
:1055B000303DC8F8185019E059F8041B204604EB98
:1055C00087029161E1688847012F054618D1E0699B
:1055D000002820DA26F020061DE0D8F8180000EB9D
:1055E000800005EB40003038C8F818002046E1681C
:1055F0008847054603F03FFA0028EED1012F0AD074
:105600002E2D08D12046E16888477F1C0546022FD1
:1056100046F02006C4DBA069002803DA404246F0C9
:105620000106A061F00701D026F010066C2D0BD00A
:10563000682D09D04C2D39D06A2D35D0742D35D038
:105640007A2D33D016E038E0E1682F4620468847AF
:10565000B842054609D16C2F26D04FF48060E1682E
:10566000064320468847054604E06C2F1AD04FF4C5
:10567000807006430DB3A5F14100192802D82035EA
:1056800046F400664A462946204626604E46FFF705
:1056900089FD80B101280BD0F61D26F0070000F12E
:1056A000080956E74020E4E78020D8E70020D6E745
:1056B00006F104094DE7284652E7206ABDE8F09F4D
:1056C000AC380000704770477047704730B5B0F194
:1056D0000A024FEA900E71F100034EEA817EB0EBB0
:1056E0000E0061EB91014FEA101E4EEA017E10EBB5
:1056F0000E0041EB11114FEA102E4EEA016E10EB35
:105700000E0041EB11214FEA104E4EEA014E10EB14
:105710000E0041EB1141401841F100014FEAD00069
:1057200040EA41704FEAD10110EB80054FEA810455
:1057300044EA907444EB01046D1944EB0404521BD9
:10574000A3414FF0000348BF0A3200D530BD401CD2
:1057500041F1000130BD70B5044685690068C1069D
:1057600001D5302600E02026C00707D070BDD4E95F
:10577000012130469047206A401C20626D1EF6D5FC
:1057800070BD70B5044685690078C00707D170BD4B
:10579000D4E9012120209047206A401C20626D1E20
:1057A000F6D570BD09684A0501D540B27047C905F4
:1057B000FCD500B2704709684A0501D5C0B27047F0
:1057C000C905FCD580B270472DE9F0470D469946D2
:1057D0009246044600F124080168880604D5E06971
:1057E00021F01001216000E00120A84201DD471BEB
:1057F00000E00027A1697A1902EB0900081AA061EC
:105800002078C00602D42046FFF7A5FF002608E056
:10581000D4E901211AF806009047206A401C761C42
:1058200020624E45F4DB2078C0060AD52046FFF7FB
:1058300092FF06E0D4E9012130209047206A401C05
:105840002062381EA7F10107F4DC07E0D4E901214A
:1058500018F805009047206A401C2062281EA5F118
:105860000105F3DC2046FFF78CFF2078000602D507
:105870000220BDE8F0870120FBE711680268006A9A
:10588000530501D508700AE0D30501D5088006E06C
:10589000130603D5C217C1E9000200E00860012029
:1058A0007047000001694A1C02610878704700B522
:1058B0008FB0CDE901310021059105497944CDE949
:1058C000031011466846FFF739FE0FB000BD000017
:1058D000E5FFFFFF0A6802F8010B0A607047D1E993
:1058E00000239A4202D2531C0B601070704710B50F
:1058F000436913B1AFF3008001E0FFF77BFD0120A6
:1059000010BD127800F124010A7000224A700122B1
:10591000EDE711684FF0FF32E9E70000074B70B583
:105920000D467B44FFF7C3FF0446284600F08CFC7D
:1059300010B14FF0FF3070BD204670BD4B320000FB
:105940002DE9FF5F15468A460446DFF8AC80F8442F
:105950000027D8E900103E46CDE9001010E03AF8E3
:1059600016106A4602A800F073FC411C07D021788B
:10597000890603D5E269391891420DD80744761C8F
:105980002078800602D5E069B84205DDAE42E6DB4C
:105990003AF816000028E2D1A069C01BA061204699
:1059A000FFF7D9FED8E90010CDE90010002017E07C
:1059B0003AF818106A4602A800F04AFCB0F1FF3F1E
:1059C00081460BD000250DF1080B05E0D4E901213B
:1059D0001BF8050090476D1C4D45F7D308F10100F9
:1059E000B0428046E4DB206A384420622046FFF75C
:1059F000C8FEBDE8FF9F0000BE34000030B40021A7
:105A000000F1240408E002F00705D208303542EA2C
:105A10004372DB086554491C52EA0305F3D104685C
:105A2000002310A2250707D5A40600D421B1C4691C
:105A300001230DA2641EC46130BCFFF7C5BE10B5C2
:105A4000044621461068FFF7B6FE02462046BDE830
:105A500010400023D2E7D21D22F00701D1E9002334
:105A6000CCE700000000000030000000F0B40D465C
:105A70000188090502D5214C7C4402E01F4C7C447E
:105A80000E34002100F1240608E002F00F0712098D
:105A9000E75D42EA03721B097754491C52EA030787
:105AA000F3D102780023120704D5702D06D009B176
:105AB000022311342246F0BCFFF786BE01231034C6
:105AC000F8E770B504460D4621461068FFF773FEEF
:105AD000024629462046BDE870400023C6E7D21D95
:105AE00022F00703D3E90023C0E70368126843F0FC
:105AF000200303600823C3610023B7E79C33000041
:105B000070472DE9FF4F0C461E464FF0FF378BB014
:105B1000D2E90001DDF860800A908A46C1F30A5597
:105B200005B93D46002108464FF00000BAF1000FCC
:105B300000F4400005DA00EB80004FF4400101EA78
:105B400050004FEA9059B9F1010F00DDB9460A98AB
:105B500050EA4A000ED044F61050A5F2FF354543F6
:105B60002F14B8F1000F1ED07542291E1EDDC9F199
:105B700000021CE0B8F1010F4FF0000001D030210D
:105B800003E0F24305E02154401CB042FBDB304609
:105B90000022002121540B99C1F80880C1E900209E
:105BA0000FB0BDE8F08FBD1B6D1CDEE74A4600DA82
:105BB000694206A800F0DEFB06AB93E8070003ABE2
:105BC00083E8070050460A9900F094FC8DE807002E
:105BD000A0F500501F3800900398002D0ADD42F216
:105BE0001F014A460844002303A90390684600F0B9
:105BF000FDFE09E0A0F500504A461F38002303A926
:105C00000390684600F007FF8DE807000004000CD1
:105C100003D04FF0FF30410800E01046B8F1000F0C
:105C200003D00022009215461EE0751E05D4FFF732
:105C30004DFD303262556D1EF9D5B3460122084341
:105C400002D000227F1C04E02078302801D10022FD
:105C50007F1E002A099784D01DE0112D07DAFFF777
:105C600035FD303262556D1C50EA0102F5D1084312
:105C700002D00098C8B10EE00021681E05E0235C48
:105C8000625C63542254401E491C8142F7DBAB46E0
:105C9000A81B401E0990002004F80B000B98099ADD
:105CA000C0F80880C0E9002B7AE711264FF0000801
:105CB00057E72DE9F04F88460446D21D22F0070130
:105CC00091B0D1E90001CDE90A0102F0C0FE02461F
:105CD0000B98C00F01D02D2007E02068810701D567
:105CE0002B2002E0202101EAC000032A099001D004
:105CF000072A05DB03464146204600F0FBFA0BE18C
:105D00002078800601D5E06900E00620B8F1650F33
:105D1000814606D0B8F1660F18D0B8F1670F70D180
:105D200031E00020B9F1110F009001DB112301E0F7
:105D300009F101030AAA01A90CA8FFF7E2FEDDE9B7
:105D40000C70002609F10105834647E001204B460F
:105D500000904FF000470AAA01A90CA8FFF7D1FE56
:105D6000DDE90DB00C995D46002610B909F101007E
:105D70000D18B9EB050003D4C0F1FF3609F1010598
:105D8000A5EB09002BE0B9F1010F01DA4FF0010991
:105D90000020B9F1110F0090484601DD112300E009
:105DA00003460AAA01A90CA8FFF7ABFEDDE90C70B7
:105DB0004D4600268346207800070AD4AB4500DA1A
:105DC0005D4601A8012D04DD411911F8011C30299F
:105DD00007D04F4502DA17F1040F04DA012082469A
:105DE0000FE06D1EEEE7002F02DCED1B3E4403E0EA
:105DF000781CA84200DD7D1CB81B00F1010A4FF0A1
:105E000000472078000703D4AA4501DB4FF0FF3A92
:105E10000021B7F1004F0DF143088DF8431024D055
:105E200002202B23002F01DA7F422D230A21021E9C
:105E3000A0F1010000DC5FB197FBF1FC97FBF1F2F0
:105E400001FB1C7C17460CF1300C08F801CDEEE785
:105E5000A8F1010003702188090501D5452100E062
:105E60006521A0F1010800F8011C09980FA9A1EB18
:105E70000807FF1D00B10120411901EBEA70A1697B
:105E80003844081A401EA0612078C00602D420467B
:105E9000FFF761FC099828B1D4E901219047206AF5
:105EA000401C20622078C00622D52046FFF753FC14
:105EB0001EE0002E04DBB34502DD01A8805D00E09A
:105EC0003020D4E901219047206A401C2062761CD2
:105ED000AAF101005FEA000A0AD100F007FAC068DF
:105EE0000168405CD4E901219047206A401C20628F
:105EF000281EA5F10105DCDC07E0D4E9012118F832
:105F0000010B9047206A401C2062381EA7F1010750
:105F1000F3DC2046FFF735FC032011B041E600001A
:105F20002DE9F04F04460D46D21D22F0070089B03E
:105F3000D0E900974846394602F089FD0246F80F3D
:105F400001D02D2307E02068810701D52B2302E033
:105F5000202101EAC0038DF820300BB1012000E0C0
:105F60000020032A824601D0072A04DB2946204666
:105F700000F0C0F93FE12078800601D40D2500E053
:105F8000E569C7F30A560D2D49DA00214FEA175B80
:105F900008464FF00000002F00F4400007DA00EB45
:105FA00080004FF4400100EBD07001EA60008115E1
:105FB000012901DD4FF0FF3100224FEA850CBCF1D1
:105FC000180F06D31346ACF118004FF08052C240B0
:105FD00003E04FF4801323FA0CF30CF10C0CBCF12A
:105FE000200F04D3ACF1200C09FA0CF001E007FA01
:105FF0000CF000294FF0004801DD18B90FE00ED178
:1060000040450CD319EB02095F4121B9404502D14B
:106010009F4329EA0209BBEB175F00D0761C20885A
:10602000000502D57B48784402E07A487844193864
:1060300008AA302302F80A30037C0AF10101002E7D
:106040000AF1020A53546A4602DC4FF0300101E0C3
:106050004FF031014FF001088DF8001002D0A6F288
:10606000FF3603E059EA470100D06B4E002D02DCF9
:106070002178090704D54FF002082E218DF8011070
:10608000C44600210BE0C7F303433F01C35C491C36
:106090006D1E02F80830052908F1010801DA002D0B
:1060A000F1DC00210CE000EB1973491C1B786D1E1C
:1060B000082902F808304FEA091908F1010801DA45
:1060C000002DF0DC21688B0602D516E0A8F101084E
:1060D000E04505DD02EB080313F8013C302BF5D059
:1060E000B8F1000F09DD02EB080313F8013C2E2B79
:1060F00003D1090701D4A8F10108002D05DD3E21D7
:1061000002F808106D1E08F10108407C002E02F80C
:10611000080008F1010804DA2D20764202F8080090
:1061200002E02B2002F808000A214FF47A70864220
:1061300008F101080BDB96FBF0F3303302F808306E
:1061400096FBF0F308F1010800FB136601E0642EF2
:106150000CDB642096FBF0F3303302F8083096FB3A
:10616000F0F308F1010800FB136601E00A2E06DBDC
:1061700096FBF1F0303002F8080008F1010896FBB8
:10618000F1F001FB1060303002F80800A16908F15D
:10619000010808EB050202EB0A00081AA06120784A
:1061A000C00602D42046FFF7D6FA216A08AE01EBFA
:1061B0000A00206204E0D4E9012116F8010B90479F
:1061C000BAF1010AF7D22078C00602D52046FFF7BF
:1061D000C2FA6E4609E016F8010B3E280FD0D4E94A
:1061E00001219047206A401C2062B8F10108F2D2D8
:1061F0002046FFF7C6FA09B00320BDE8F08F206AF9
:106200002844206203E0D4E90121302090476D1E2C
:10621000EBD3F8E7292E000002FCFFFF10B543691D
:1062200013B1AFF3008001E0FFF78AFB012010BD3E
:10623000128800F1240182840022C2840122EDE749
:1062400011684FF0FF32E9E7007B00F080007047F3
:1062500070B516460C46054600F040F8036893F802
:106260000101012806D0FF2C0FD8185D68B101206C
:106270002C7070BDD3F807013246214603F2071394
:1062800003442846BDE8704018474FF0FF3070BD0A
:10629000754600F0EBF8AE4605006946534620F01F
:1062A0000700854618B020B5FEF7F4FFBDE8204092
:1062B0004FF000064FF000074FF000084FF0000BC2
:1062C00021F00701AC46ACE8C009ACE8C009ACE875
:1062D000C009ACE8C0098D467047000010B500F059
:1062E00005F8001D10BD00BFE12A000000487047FE
:1062F000440800202DE9F0411F46044603260168AA
:10630000072A01F4006004DB08B116A505E016A514
:1063100003E008B115A500E015A521F010002060EC
:10632000A069C01EA0610FB1401EA0612046FFF70A
:1063300012FA4FB1D4E9012138469047206A401C37
:106340002062C01C206206E0206AFAE7D4E901213D
:1063500015F8010B9047761EF8D22046FFF711FA88
:10636000BDE8F0814E414E006E616E00494E460020
:10637000696E66002DE9F047814616468AB03548B9
:1063800078440DC88DE80D0032487844801C03AC79
:106390000DC884E80D0041F69B300844372190FB7E
:1063A000F1F290FBF1F5A5F1800501FB12041B3C15
:1063B00002D56442012000E00020DFF898A080466A
:1063C0000027FA44AAF1BE0A0EE0E0070AD03246DE
:1063D000684607EB470101230AEB810100F01BFB34
:1063E0008DE8070064107F1C002CEED1194F7F440C
:1063F000AE3F19E0E80715D007EB04100DF1180ABD
:1064000090E80E008AE80E00C068F04201D19819A9
:1064100008903246012306A903A800F0FCFA03AB5A
:1064200083E807006D10641C002DE3D14FF00103D9
:1064300032466946B8F1000F03A802D000F0D6FA40
:1064400001E000F0E8FAC9E90001C9F808200AB043
:10645000BDE8F087602B000010B50446AFF3008064
:106460002046BDE81040FEF700BF0000004870471E
:10647000240800204FF0013C50F8042B51F8043B55
:106480009A4221D1A2EB0C03934313EACC1317D108
:1064900050F8042B51F8043B9A4215D1A2EB0C039F
:1064A000934313EACC130BD150F8042B51F8043B5F
:1064B0009A4209D1A2EB0C03934313EACC13DBD02D
:1064C0004FF00000704700BFD01A01BAB1FA81F155
:1064D00001F0180122FA01F0CB40C1F12001DBB23A
:1064E000C0B2C01A2CFA01F3D11A914311EAC311B8
:1064F000E6D170475FEA400C08BF91F0000F4FEA09
:106500008C234FEAC12243EA51514FEA1C5018BF75
:1065100000F5F0404FEA300018BF41F000415FEA5B
:106520006C5C00F02980BCF1FF3F08BF40F0804068
:106530007047130C06BF12044FF0100C4FF0000C04
:10654000130E04BF12020CF1080C130F04BF12014A
:106550000CF1040C930F04BF92000CF1020CD30F4A
:1065600004BF52000CF1010C11464FF00002A0F1E3
:106570001F00A0EB0C00704711F0004F08BF7047E0
:1065800031F000413FF4D5AF0B0C06BF09044FF0CA
:10659000100C4FF0000C0B0E04BF09020CF1080C9C
:1065A0000B0F04BF09010CF1040C8B0F04BF890011
:1065B0000CF1020CCB0F04BF49000CF1010CCCF123
:1065C0002003A0EB0C0022FA03F302FA0CF241EADA
:1065D000030100F10100704720F07F4C80EA0300C6
:1065E00023F07F47ACEB070303F57C5300F000403A
:1065F00003F1FF032DE980494FEA154B09B44FEA37
:10660000144325EA0B4E24EA03480FF2042606EB56
:10661000132749083E785FEA320203FB0667C7F595
:10662000000707FB06F64FEA54374FEAD64606F155
:10663000020607FB066CCCF1005C4FEA1C472CEA13
:10664000074C07FB06F40CFB06F504EB15464FEA76
:10665000961634BF00204FF000404FEAD13706FBBA
:1066600007FC4FEA1C4C0CFB0BF7D21B03FB0CF78F
:1066700061EB07010CFB0EF7B0EB074072EB174222
:106680000CFB08F734BFA2EB0742B2EB074261EB09
:1066900017414FEA0C444FEA910706FB07FC4FEA0B
:1066A0001C4C0CFB0BF7B0EBC74072EB573203FBF3
:1066B0000CF734BFA2EBC742B2EBC74261EB5731D4
:1066C0000CFB0EF7B0EBC70072EB57720CFB08F730
:1066D00034BFA2EBC702B2EBC70261EB5771039F55
:1066E0004FEA816141EA921104EBCC044FEAD137C1
:1066F0004FEA826206FB07FC42EA90124FEA806092
:106700004FEA1C4C0CFB0BF7D21B03FB0CF761EBA5
:1067100007010CFB0EF7B0EB074072EB17420CFBC6
:1067200008F734BFA2EB0742B2EB074261EB174117
:106730004FEA8C554FEA910704EB9C2406FB07FCBB
:106740004FEA1C4C0CFB0BF7B0EBC74072EB573217
:1067500003FB0CF734BFA2EBC742B2EBC74261EBBD
:1067600057310CFB0EF7B0EBC70072EB57720CFB06
:1067700008F734BFA2EBC702B2EBC70261EB577157
:1067800015EB4C254FEA816141EA92114FEA826292
:106790004FEAD13742EA901206FB07FC44F10004AD
:1067A0004FEA80604FEA1C4C0CFB0BF7D21B03FB3B
:1067B0000CF761EB07010CFB0EF7B0EB074072EB37
:1067C00017420CFB08F734BFA2EB0742B2EB0742BB
:1067D00061EB174115EB1C154FEA813141EA9241FB
:1067E0004FEA823242EA90424FEA80304FEA0C761A
:1067F00044F1000448EA03434EEA0B484FF0000E10
:10680000B2EB080C71EB030724BF624639464EEB2E
:106810000E0E4FF0000B0018524149414BEB0B0B91
:10682000B2EB080C71EB03077BF1000B24BF62464F
:1068300039464EEB0E0E4FF0000B00185241494105
:106840004BEB0B0BB2EB080C71EB03077BF1000B6E
:1068500024BF624639464EEB0E0E51EA020718BFBE
:1068600046F0010616EB0E7655F1000254F10001D8
:1068700003D5BDE88901BDE80088BDE88901BDE810
:106880000048B619524141EB0101A3F101037047E1
:1068900080807F7E7D7C7B7A79787776767574735D
:1068A000727171706F6E6E6D6C6C6B6A6A6968681C
:1068B000676666656464636362616160605F5F5EB2
:1068C0005E5D5D5C5C5B5B5A5A5959585857575628
:1068D000565555555454535352525251515050508D
:1068E0004F4F4F4E4E4D4D4D4C4C4C4B4B4B4A4ADF
:1068F0004A49494948484847474747464646454523
:10690000454444444443434343424242424141415B
:10691000002B9C4630D477002BD01CB54FEA3707AC
:1069200003B44FF010004FF01001BAF1000F06D081
:10693000BCF1000FDCBF40F0080040F008014FF050
:1069400000000FBCBDE810400BF1010BBBF1010FC3
:1069500008BF5FEA170722BF12F1010211F101011E
:106960004FF0004143F1000300F0004043EA000013
:106970007047F9D35708D0E746EA064613F1400FAF
:106980004FEA16461FDD13F1200FDFBF16430A46FC
:10699000002120335B42BED0C3F1200746EA064601
:1069A00002FA07F74FEA164646EA0706C3F1200740
:1069B00022FA03F201FA07F721FA03F14FF000037C
:1069C00042EA0702A7E746EA020646EA06464FEA17
:1069D000164646EA0106BCBF46EA0646360C4FF0AC
:1069E00000034FF000024FF0000194E72DE9804CC6
:1069F0009A46934670B491E8380007C831EA400CD3
:106A000048BF34EA430C03D5FFF7E6FDFFF780FFEC
:106A1000F0BCBDE8008C2DE9804C9A46934670B4DA
:106A200091E8380007C810F0804F08BF13F0804F7E
:106A300003D100F005F8FFF76BFFF0BCBDE8008C58
:106A400020F07F4780EA030023F07F4C07EB0C0324
:106A5000A3F57C5300F00040A3F1FE0392F0000F79
:106A600000F0B38095F0000F00F077802DE9014928
:106A70004FEA11404FEA144621EA004800FB06FCA9
:106A800024EA064708FB06F607FB08F800FB07F7B1
:106A900018EB06484CEB164C4FEA124B18EB074824
:106AA0004FEA15464CEB174022EA0B4E0BFB06FC57
:106AB00025EA06470EFB06F607FB0EFE0BFB07F763
:106AC0001EEB064E4CEB164C4FF000061EEB074E2D
:106AD0004CEB174B18EB0B0840F1000018EB0E0BBA
:106AE00058EB000840F100008F1A4FF000013CBF46
:106AF000C943661B14BFB5EB040C00213CBFC9435E
:106B0000F61B4FEA17444EEA8E0E27EA04454FEA79
:106B10001C4704FB07622CEA074C05FB07F70CFB3C
:106B200005F604FB0CFC16EB074642EB174216EB8E
:106B30000C4642EB1C421BEB060658EB020241419D
:106B400046EA9E0601D5BDE80189B619524141EBDE
:106B50000101A3F10103BDE801894FEA14454FEAA1
:106B6000114724EA054621EA074C05FB07F406FB1A
:106B700007F70CFB06F105FB0CFC11EB074144EB9E
:106B800017444FEA124711EB0C4144EB1C4422EA34
:106B9000074C05FB07F206FB07F70CFB06F605FBA7
:106BA0000CFC16EB074642EB174216EB0C4642EB89
:106BB0001C456A1854F1000148BF7047B61952418C
:106BC00041EB0101A3F10103704795F0000F37D0AD
:106BD0004FEA11424FEA144721EA024624EA074CE1
:106BE00002FB07F106FB07F70CFB06F402FB0CFCAB
:106BF00014EB074441EB17414FEA154714EB0C44E3
:106C000041EB1C4125EA074C02FB07F506FB07F7A1
:106C10000CFB06F602FB0CFC16EB074645EB174592
:106C200016EB0C4645EB1C42121951F1000148BF0E
:106C30007047B619524141EB0101A3F101037047BE
:106C40004FEA14454FEA114724EA054621EA074C6A
:106C500005FB07F106FB07F70CFB06F24FF00006F9
:106C600005FB0CFC12EB074241EB174112EB0C4207
:106C700051EB1C4148BF7047921841EB0101A3F151
:106C80000103704710B5040018BF012C04D04FF069
:106C9000960103A001F0F8FE0A48046010BD000050
:106CA00073746D3332663130335C6C696272617259
:106CB0006965735C73746D3332663130785F626B13
:106CC000702E630000860D4201A0FEF787BB000016
:106CD000444F55424C455F434C49434B5F43616CC5
:106CE0006C6261636B0D0A0001A0FEF777BB0000C8
:106CF0004C4F4E475F50524553535F484F4C445F93
:106D000043616C6C6261636B0D0A000001A0FEF7C9
:106D100065BB00004C4F4E475F52524553535F5383
:106D2000544152545F43616C6C6261636B0D0A00A5
:106D300001A0FEF753BB000050524553535F444F30
:106D4000574E5F43616C6C6261636B0D0A0000001B
:106D50000348807800F00F0102A0FEF73FBB00005F
:106D6000FC07002050524553535F52455045415453
:106D70005F43616C6C6261636B3D25640D0A0000CA
:106D800001A0FEF72BBB000050524553535F5550F6
:106D90005F43616C6C6261636B0D0A0001A0FEF7DA
:106DA0001DBB000053494E474C455F434C49434B84
:106DB0005F43616C6C6261636B0D0A00FEE770B546
:106DC000044640688047E17811F0070F02D022881E
:106DD000521C2280B0EBD11F04BF21F03800E070BC
:106DE0000FD04FF0005202EBB1114FEAB161C1F385
:106DF000C202E170032A04D360F3C71121F0380006
:106E0000E070E078002500F00701062928BF70BD7A
:106E1000DFE801F0031F47908FA4C0F38011B1EBAE
:106E2000D01FA07820F0F0001EBF8030A07070BD91
:106E3000A070A16800291CBF204688472580A07843
:106E400020F00F00401CA070E07820F00700401CEC
:106E50006EE0C0F38011B1EBD01F0FD0A07820F00E
:106E6000F0001030A070E16800291CBF2046884760
:106E70002580E07820F00700801C59E02088C82891
:106E800098BF70BDA07820F0F0005030A070E1698C
:106E900000291CBF20468847E07820F00700401DED
:106EA00046E0C0F38011B1EBD01F24D1A07820F0D0
:106EB000F000A070A16800291CBF20468847A07878
:106EC0004FF0805101EB30104FEA3070A07000F0AD
:106ED0000F00022804D1A16900291CBF2046884761
:106EE000216900291CBF204688472580E07820F0D2
:106EF0000700C01C1CE020883C2898BF70BDA0780B
:106F000000F00F01012902D002290AD00DE020F083
:106F1000F0003030A070616900291CBF204688470E
:106F200003E020F0F0004030A070E07820F007008F
:106F3000E07070BDC0F38011B1EBD01F08BF70BD11
:106F4000A07820F0F0001030A070E16800291CBF8C
:106F50002046884720883C28E7D289E7C0F3801183
:106F6000B1EBD01FA07820F0F00009D16030A07004
:106F7000216A002908BF70BD2046BDE8704008475F
:106F80001030A070E16800291CBF20468847E078D7
:106F900020F00700E07070BD064810B54468002C72
:106FA00008BF10BD2046FFF70AFF646A002CF9D124
:106FB00010BD000058000020704700002DE9F0418E
:106FC00004460026A0F180400D46B0F584301CBF79
:106FD000A4F18040B0F586301BD0A4F18040B0F51C
:106FE00088301CBFA4F18040B0F58A3011D0A4F1E4
:106FF0008040B0F58C301FBFA4F18040B0F58E30DA
:10700000A4F18040B0F5903003D0B2213DA001F052
:107010003BFDE878002818BF042810D0282818BFA6
:1070200048280CD0142818BF102808D01C2818BFD6
:10703000182804D04FF0B30132A001F025FD2888B4
:1070400018B9B4212FA001F01FFDE87800F00F0758
:1070500010F0100F0CD0A87801281CBF02280328BC
:1070600004D04FF0BB0127A001F00EFDA878074324
:1070700028784FF00F0C10F0FF0F4FF0010318BFEE
:1070800021681AD02A8803FA06F002EA0002824236
:107090000FD1B2000CFA02F821EA080107FA02F255
:1070A0001143EA78282A08BF606102D0482A08BF45
:1070B0002061761C082EE5D321602888FF2886BF32
:1070C00062680020BDE8F08100F108012E8803FA13
:1070D00001F10E408E420FD186000CFA06F822EA2A
:1070E000080207FA06F63243EE78282E08BF6161DF
:1070F000EE78482E08BF2161401C0828E4D3626066
:10710000BDE8F08173746D3332663130335C6C6985
:10711000627261726965735C73746D3332663130AB
:10712000785F6770696F2E630000000070B50D46D0
:107130000446012818BF022C7ED0042C18BF082C4E
:107140007AD0A4F5A01010381CBFA4F5A010B0F19F
:10715000300071D0A4F5B01040381CBFA4F5B010B9
:10716000B0F1C00068D0A4F5C010B0F580701CBFAD
:10717000A4F5C010B0F500705ED0A4F5C010B0F555
:1071800040701CBFA4F5C010B0F502307CD0A4F54F
:10719000C010B0F5033018BFB4F5805F74D0B4F5FB
:1071A000EA1F18BFB4F5EB1F6ED0B4F5004F1CBF3B
:1071B0006FF40010C44267D0A4F50010801E1CBFFD
:1071C000A4F50010B0F104005ED0A4F5001008385A
:1071D0001CBFA4F50010B0F1100055D0B4F1201F71
:1071E0001CBFA4F50010B0F140004DD0A4F5401034
:1071F000B0F580701CBFA4F54010B0F5007043D00E
:10720000A4F54010B0F580601CBFA4F50010B0F5E7
:10721000885039D0A4F50010B0F5005018BFB4F56F
:10722000011F31D06FF00040C4421CBF334884427C
:107230002AD03348844200E026E01CBF3148844213
:1072400022D0314884421CBF304884421CD0304890
:1072500084421CBF2F48844216D02F4884421CBF52
:107260002E48844210D02E4884421CBF2D488442B0
:107270000AD02D4884421CBF2C48844204D040F2DE
:107280002A212BA001F000FC002D18BF012D04D0F5
:1072900040F22B2126A001F0F7FB2F4814F0004FFD
:1072A00014BFC2694268C4F303434FF4401131EA8A
:1072B000040C4FEA54514FEA0111A6B206FA01F14B
:1072C00014D014F4801F08BF8A4304D04FF0030C7D
:1072D0000CFA03F39A4342F07062002D18BF0A4380
:1072E00014F0004F14BFC261426070BD436822F0C9
:1072F000706223F070634360EFE7000002000080DB
:107300000400008008000080100000802000008041
:1073100040000080800000800001008000020080AA
:107320000004008000080080001000800020008021
:1073300073746D3332663130335C6C6962726172C2
:107340006965735C73746D3332663130785F677072
:10735000696F2E63000000000000014070B5054613
:107360000026A0F180400C46B0F584301CBFA5F18A
:107370008040B0F586301CD0A5F18040B0F5883053
:107380001CBFA5F18040B0F58A3012D0A5F1804035
:10739000B0F58C301FBFA5F18040B0F58E30A5F15F
:1073A0008040B0F5903004D04FF48F711AA001F0F6
:1073B0006BFB012C18BF022C28D0042C18BF082C02
:1073C00024D0102C18BF202C20D0402C18BF802C8B
:1073D0001CD0B4F5807F18BFB4F5007F16D0B4F58B
:1073E000806F18BFB4F5006F10D0B4F5805F18BF80
:1073F000B4F5005F0AD0B4F5804F18BFB4F5004F64
:1074000004D040F21F1104A001F03EFBA868204206
:1074100018BF0126304670BD73746D33326631304B
:10742000335C6C69627261726965735C73746D332D
:1074300032663130785F6770696F2E63000000003C
:10744000FEE700001449CA78002A1CBFC8787047BC
:107450000122002818BF8A704B78104813B1012B05
:107460000ED016E08B782BB1D0F82031002B08BF5E
:107470004A700ED0D0F82001012808BF8A7008E0B9
:1074800000228A704A70D0F82001002804BF012031
:107490007047002070470000530000200000214288
:1074A00008B506490120072308700D20009000222E
:1074B0004FF48071024800F083F808BD53000020AB
:1074C0000008014008B50121192000F0E9F9012068
:1074D00000F08EF9002000F06DFA0020FFF7D2FBDB
:1074E0004FF4C040ADF8000003208DF802001020DA
:1074F0008DF8030069460248FFF760FD08BD0000F3
:1075000000100140FEE70000F8B5224E01200723DD
:1075100030700C20009000224FF480711E4800F063
:107520004FF81E4C00251E482560A560E5602561CA
:107530006561A561E56125626562A17821F0F001D0
:107540008031A170606000F065FAE17860F3C711E6
:1075500065F38611E1707068011E04D0A04204D06A
:10756000406A0028FAD1616274600C480D4981605C
:1075700001460D48C8600D4808610D48486108463D
:107580000C49816101460C48C86108460B490162FB
:10759000F8BD00005800002000080140FC07002052
:1075A000157A0008316D0008816D0008516D0008E2
:1075B0009D6D0008C96C00080D6D0008E96C00089D
:1075C0002DE9F843884681460221A0F18040144607
:1075D000A0F58430089E11EB90221D460F464FF017
:1075E00001000BD012F0010F18BF02205FEA520C0D
:1075F00004D048434843BCF1010CFAD1012100F00A
:107600004FF9ADF80080012C08BF00201FD084B1D5
:10761000022C08BF14201AD0042C08BF102016D04A
:10762000032C08BF1C2012D0052C08BF18200ED038
:107630000FE0062D04BF04208DF80300082D04BFC1
:1076400028208DF80300072D08BF482001D18DF8B0
:107650000300092E08BF8DF8027009D00B2E08BF59
:10766000012003D00C2E08BF032001D18DF80200A9
:1076700069464846FFF7A2FCBDE8F8837047000062
:1076800070B50446C0780F25002818BF012804D023
:107690004FF0750120A001F0F7F96078102803D3AE
:1076A00076211DA001F0F0F9A078102803D37721EE
:1076B00019A001F0E9F9E078012108B31D4800683C
:1076C000637800F4E060C0F5E060000AC0F10402F5
:1076D00003FA02F2A37825FA00F01840104322784A
:1076E000000102F1E02282F80004207800F01F027D
:1076F00091404009800000F1E020C0F8001170BD09
:10770000207800F01F0291404009800000F1E02045
:10771000C0F8801170BD000073746D333266313073
:10772000335C6C69627261726965735C6D69736305
:107730002E6300000CED00E010B50446B0F5E06FDC
:1077400018BFB4F5C06F0CD0B4F5A06F1CBFB4F572
:10775000806FB4F5407F04D04FF0630104A001F0C6
:1077600093F90A4944F0FD7040F08060086010BD54
:1077700073746D3332663130335C6C69627261727E
:107780006965735C6D6973632E6300000CED00E046
:1077900070B50D460446B0F1005F18BFB4F1006F3C
:1077A00004D04FF09F0109A001F06EF90E48854208
:1077B00003D3A02105A001F067F925F07F000B4954
:1077C00020F060402043086070BD000073746D338A
:1077D00032663130335C6C69627261726965735C08
:1077E0006D6973632E630000FFFF0F0008ED00E07A
:1077F00010B5040018BF012C04D04FF07F0103A086
:1078000001F042F90A48046210BD000073746D3340
:1078100032663130335C6C69627261726965735CC7
:1078200073746D3332663130785F7077722E630017
:1078300000000E427047000070B505460D480E4628
:10784000054200D125B940F269410BA001F01CF9B5
:10785000124C002E04BFE069A84308D0012E04D0CA
:1078600040F26A4104A001F00FF9E0692843E061A9
:1078700070BD00000036018173746D3332663130A3
:10788000335C6C69627261726965735C73746D33C9
:1078900032663130785F7263632E630000100240FD
:1078A00070B505460D480E46054200D125B940F297
:1078B0004A410BA001F0E8F8124C002E04BFA06969
:1078C000A84308D0012E04D040F24B4104A001F09F
:1078D000DBF8A0692843A06170BD00000200C0FF72
:1078E00073746D3332663130335C6C69627261720D
:1078F0006965735C73746D3332663130785F7263BF
:10790000632E630000100240254910B44A6812F04B
:107910000C03244A18BF042B01D0082B01D00260AD
:1079200015E04A684B6802F470124FF0020C13F431
:10793000803F0CEB924203D04B6813F4003F03D01E
:10794000194B5A43026002E0164B5A4302604A68E0
:107950000F2303EA1212154B9A5CD0F800C02CFAE0
:1079600002F24260D1F804C0072404EA1C2C13F888
:107970000CC022FA0CFCC0F808C0D1F804C004EA1C
:10798000DC2C13F80C30DA40C2604968032303EAA8
:107990009131074B595CB2FBF1F1016110BC7047AA
:1079A0000010024000127A0000093D00380000205B
:1079B0003400002010B504001CBF012C042C04D09E
:1079C0004FF4507109A001F05FF81148002180F8D0
:1079D000201080F82010012C08BF012103D0042CB6
:1079E0000CBF052110BD80F8201010BD73746D33DD
:1079F00032663130335C6C69627261726965735CE6
:107A000073746D3332663130785F7263632E630056
:107A1000001002404FF480710148FFF79FBC000046
:107A20000008014070470000F0B415480122164CD0
:107A30000270461C134D206841F288314FF0050C4E
:107A40006368471811480023C0E901710270437050
:107A5000C0E90356A0F814C0DFF834C021684FF421
:107A60007A75646801F57A76044604F11801E661D6
:107A7000256202766276C1E903C3A385F0BC704734
:107A800048000020B18A000810000020CC07002028
:107A9000ED8A00082DE9F04700251C4C1C4E0227FA
:107AA000A8464FF0010900BF05EB450014F830105F
:107AB00039B101290BD0022918D0294615A0FDF7AC
:107AC0008DFC681C85B2022DEED3BDE8F0873268CC
:107AD000716804EBC0014B689A42F2D304F830702D
:107AE000D1E903208B8A19469047EAE704EBC001ED
:107AF0004A78002A08BF04F83080E2D03268736800
:107B00008B681A444A6004F83090DAE7CC0700200A
:107B10001000002074696D65725B25645D207374CC
:107B2000617465206572726F72210D0A0000000099
:107B300010B54FF0E024042804BF206940F0040091
:107B400009D010F1050F03D0CA2104A000F09CFF5A
:107B5000206920F00400206110BD000073746D33B3
:107B600032663130335C6C69627261726965735C74
:107B70006D6973632E63000010B51A4C1422002344
:107B800020686168FDF799FB52EA030008D11648A6
:107B90000078012804D10020FFF754FC1349087035
:107BA0000522206800236168FDF787FB52EA030085
:107BB00005D10F480078012808BFFFF7EDF90A2228
:107BC000206800236168FDF778FB52EA030018BFC4
:107BD00010BD08480078012818BF10BDBDE810404E
:107BE000FFF758BF1000002053000020560000206F
:107BF000580000204800002004488268C168521CD8
:107C000041F100018260C160FFF7B6BF08000020AB
:107C1000374882B0016841F0010101604168354A8E
:107C200011404160016821F4102121F08071016050
:107C3000016821F480210160416821F4FE01416066
:107C40004FF41F018160002201920092016841F40B
:107C500080310160016801F4003100910199491CF3
:107C60000191009919B90199B1F5A06FF2D101689C
:107C700011F4003F08BF009233D0012100911E494A
:107C80000A6842F010020A600A6822F003020A60E1
:107C90000A6842F002020A6041684160416841603E
:107CA000416841F480614160416821F47C11416088
:107CB000416841F4E8114160016841F08071016060
:107CC000016811F0007FFBD0416821F003014160A1
:107CD000416841F002014160416801F00C0108294E
:107CE000FAD106494FF00060086002B0704700000A
:107CF000001002400000FFF80020024008ED00E004
:107D000070B5294E40F22441304600F02FFC274D3B
:107D1000274CA0B1304600F021FE2088C0F30E00B1
:107D2000284410F8021C00200D292188C1F30E01FF
:107D300018BF68540AD0208840F4004020800821F1
:107D4000304600F0AFFB01280ED106E0294401F8CF
:107D5000020C2088801E2080EDE70821304600F0CC
:107D600009FB304600F0FAFD40F22551304600F0A4
:107D7000FDFB002808BF70BD304600F0EFFD2188F4
:107D8000C0B211F4004F18BF70BD2188C1F30E01BD
:107D9000B1F5957F88BF70BD2188C1F30E0168548D
:107DA0002088401C208070BD003801408C010020DC
:107DB0001800002070B50546012188B08803FFF740
:107DC0006FFD01210420FFF76BFD4FF40070ADF84B
:107DD000180003248DF81A401820344E8DF81B002B
:107DE00006A93046FFF7EAF83015ADF818008DF80F
:107DF0001A4004248DF81B4006A93046FFF7DEF830
:107E000025208DF81C008DF81D4000248DF81E40A3
:107E100001208DF81F0007A8FFF732FCADF81040D5
:107E20000C20234EADF80C40ADF812000295ADF8D1
:107E30000E40ADF8144002A9304600F0ADFC01221E
:107E400040F22551304600F01BFC012240F2244153
:107E5000304600F015FC0121304600F0DDFA15A295
:107E600002AB40F22D1117480192FDF79DFA154D16
:107E700016E08021304600F015FB0028F9D0295D7E
:107E8000601C84B2304600F0A1FD4021304600F075
:107E900009FB0028F9D0B4F5967F24BF08B070BD67
:107EA000285D0028E5D108B070BD00000008014041
:107EB00000380140555341525431204F4B2E2E2E45
:107EC0000D0A0000600000200FB440F22D1170B5C3
:107ED000002405AB1248049AFDF766FA114E104DC6
:107EE00017E08021304600F0DDFA0028F9D0295D46
:107EF000601C84B2304600F069FD4021304600F03D
:107F0000D1FA0028F9D0B4F5967F24BF70BC5DF893
:107F100014FB285D0028E4D170BC5DF814FB000060
:107F2000600000200038014070B5294E40F2244125
:107F3000304600F01BFB274D274CA0B1304600F027
:107F40000DFD2088C0F30E00284410F8021C00200C
:107F50000D292188C1F30E0118BF68540AD020886A
:107F600040F4004020800821304600F09BFA0128B0
:107F70000ED106E0294401F8020C2088801E2080E2
:107F8000EDE70821304600F0F5F9304600F0E6FC58
:107F900040F22551304600F0E9FA002808BF70BDD4
:107FA000304600F0DBFC2188C0B211F4004F18BF4E
:107FB00070BD2188C1F30E01C72928BF70BD21887B
:107FC000C1F30E0168542088401C208070BD000061
:107FD00000440040100500201A000020F0B50646BD
:107FE000012189B04804FFF727FC01210420FFF795
:107FF00057FC0425ADF8185003248DF81A401820BA
:10800000334F8DF81B0006A93846FEF7D7FF08202E
:10801000ADF818008DF81A408DF81B5006A93846A7
:10802000FEF7CCFF26208DF81C008DF81D50002493
:108030008DF81E4001208DF81F0007A8FFF720FBD8
:108040000296ADF810400C20224EADF80C40ADF871
:108050001200ADF80E40ADF8144002A9304600F011
:108060009BFB012240F22551304600F009FB012222
:1080700040F22441304600F003FB0121304600F07D
:10808000CBF915A202AB40F2592117480192FDF736
:108090008BF9154D16E08021304600F003FA0028D8
:1080A000F9D0295D601C84B2304600F08FFC40217D
:1080B000304600F0F7F90028F9D0B4F5167F24BF58
:1080C00009B0F0BD285D0028E5D109B0F0BD000081
:1080D0000008014000440040555341525432204FA3
:1080E0004B2E2E2E0D0A0000B80200200FB440F2D5
:1080F000592170B5002405AB1248049AFDF754F9D4
:10810000114E104D17E08021304600F0CBF90028C9
:10811000F9D0295D601C84B2304600F057FC402144
:10812000304600F0BFF90028F9D0B4F5167F24BF1F
:1081300070BC5DF814FB285D0028E4D170BC5DF8CC
:1081400014FB0000B80200200044004070B5294E26
:1081500040F22441304600F009FA274D274CA0B1E7
:10816000304600F0FBFB2088C0F30E00284410F8D6
:10817000021C00200D292188C1F30E0118BF68548C
:108180000AD0208840F4004020800821304600F0CA
:1081900089F901280ED106E0294401F8020C208853
:1081A000801E2080EDE70821304600F0E3F83046DD
:1081B00000F0D4FB40F22551304600F0D7F90028FA
:1081C00008BF70BD304600F0C9FB2188C0B211F471
:1081D000004F18BF70BD2188C1F30E01C72928BF09
:1081E00070BD2188C1F30E0168542088401C208096
:1081F00070BD000000480040040700201C00002063
:1082000070B50546012188B08804FFF715FB0121F0
:108210000820FFF745FB4FF48060ADF818000324F9
:108220008DF81A401820344E8DF81B0006A93046F0
:10823000FEF7C4FEF014ADF818008DF81A400424BF
:108240008DF81B4006A93046FEF7B8FE27208DF8B2
:108250001C008DF81D4000248DF81E4001208DF873
:108260001F0007A8FFF70CFAADF810400C20234EB2
:10827000ADF80C40ADF812000295ADF80E40ADF827
:10828000144002A9304600F087FA012240F225513D
:10829000304600F0F5F9012240F22441304600F06A
:1082A000EFF90121304600F0B7F815A202AB40F219
:1082B0002D1117480192FDF777F8154D16E0802132
:1082C000304600F0EFF80028F9D0295D601C84B238
:1082D000304600F07BFB4021304600F0E3F80028F8
:1082E000F9D0B4F5967F24BF08B070BD285D002892
:1082F000E5D108B070BD0000000C0140004800400E
:10830000555341525433204F4B2E2E2E0D0A000050
:10831000D80500200FB440F22D1170B5002405AB34
:108320001248049AFDF740F8114E104D17E08021D5
:10833000304600F0B7F80028F9D0295D601C84B2FF
:10834000304600F043FB4021304600F0ABF80028F7
:10835000F9D0B4F5967F24BF70BC5DF814FB285D9E
:108360000028E4D170BC5DF814FB0000D8050020A3
:10837000004800402DE9F0411A4EDFF86C801B4F99
:108380000D460446B04218BF44450FD0BC421FBF43
:10839000A4F18040B0F59840A4F18040B0F5A04031
:1083A00004D040F29E3112A000F06EFB35F45870FC
:1083B00000D125B940F29F310DA000F065FB15F406
:1083C000007F18BFB44208D0444518BFBC4204D057
:1083D00040F2A33106A000F057FBE8432080BDE83F
:1083E000F081000000380140004400400048004097
:1083F00073746D3332663130335C6C6962726172F2
:108400006965735C73746D3332663130785F757390
:108410006172742E6300000070B50446A0F18040C4
:108420000D46B0F59C301CBFA4F18040B0F58840EB
:1084300012D0A4F18040B0F590401FBFA4F180405D
:10844000B0F59840A4F18040B0F5A04004D04FF4BE
:10845000B1710AA000F018FB002D04BFA08920F420
:10846000005009D0012D04D040F2631103A000F0A8
:108470000BFBA08940F40050A08170BD73746D3374
:1084800032663130335C6C69627261726965735C4B
:1084900073746D3332663130785F75736172742E28
:1084A000630000002DE9F047DFF88C800026234FA1
:1084B000DFF88C900C460546404518BFBD420FD0F2
:1084C0004D451FBFA5F18040B0F59840A5F1804013
:1084D000B0F5A04004D040F26E311AA000F0D4FAFA
:1084E000012C18BF802C20D0402C18BF202C1CD071
:1084F000102C18BFB4F5807F17D0B4F5007F0AD0D8
:10850000082C1CBF042C022C0FD040F26F310DA0A0
:1085100000F0BAFA09E045451CBFBD424D4504D004
:1085200040F2733107A000F0AFFA2888204218BF4C
:1085300001263046BDE8F087003801400044004085
:108540000048004073746D3332663130335C6C69BF
:10855000627261726965735C73746D333266313057
:10856000785F75736172742E630000002DE9F04727
:10857000364F0026DFF8D880DFF8D8900C46054645
:10858000B84218BF45450FD04D451FBFA5F18040EB
:10859000B0F59840A5F18040B0F5A04004D040F27D
:1085A000C1312DA000F070FA282C1CBFA4F5E060AA
:1085B000B0F127002DD0A4F5C06026381CBFA4F56B
:1085C000A060B0F1250024D0A4F5806024381CBF41
:1085D000A4F50060B0F146001BD0A4F510606A3825
:1085E0000DD0B4F5587F1CBFB4F5187FB4F5B07F3B
:1085F0000FD040F2C23118A000F046FA09E0BD42A7
:108600001CBF45454D4504D040F2C63112A000F0D4
:108610003BFA04F01F000122C4F3421102FA00F0F9
:10862000012904BFA989084004D002290CBF298A66
:10863000A98A0840210A02FA01F12A88114000287B
:108640001CBF002901263046BDE8F08700380140F4
:10865000004400400048004073746D33326631308E
:10866000335C6C69627261726965735C73746D33DB
:1086700032663130785F75736172742E630000006A
:108680002DE9F047374FDFF8E080DFF8E09016463D
:108690000D460446B84218BF44450FD04C451FBF95
:1086A000A4F18040B0F59840A4F18040B0F5A0401E
:1086B00004D040F289112EA000F0E6F940F66A1AC3
:1086C000282D1CBFA5F5E060B0F127001AD0A5F554
:1086D000C06026381CBFA5F5A060B0F1250011D000
:1086E000A5F5806024381CBFA5F50060B0F14600F8
:1086F00008D0554518BF602D04D04FF4C5711CA09B
:1087000000F0C2F9002E18BF012E04D040F28B11E8
:1087100017A000F0B9F9554509D1BC421CBF44452A
:108720004C4504D040F28F1111A000F0ADF905F0D6
:108730001F010122C5F3421002FA01F1012808BF0E
:1087400004F10C0005D002280CBF04F1100004F164
:108750001400002E026814BF114322EA01010160D7
:10876000BDE8F08700380140004400400048004068
:1087700073746D3332663130335C6C69627261726E
:108780006965735C73746D3332663130785F75730D
:108790006172742E630000002DE9F041604E614F5C
:1087A000DFF8848186B00D460446B04218BFBC4253
:1087B0000ED044451FBFA4F18040B0F59840A4F10D
:1087C0008040B0F5A04003D0B82158A000F05CF97B
:1087D00028686049401E884203D3B92153A000F0A5
:1087E00053F9A888002818BFB0F5805F04D04FF077
:1087F000BA014EA000F048F9E888002818BFB0F58B
:10880000805F0AD0B0F5005F18BFB0F5405F04D0BC
:108810004FF0BB0145A000F037F9288900281CBFA4
:10882000B0F5806FB0F5C06F04D04FF0BC013FA031
:1088300000F02AF9688930F00C0100D118B9BD2187
:108840003AA000F021F9A889002818D0B0F5807F5F
:108850001CBFB0F5007FB0F5407F06D04FF0BE01E1
:1088600032A000F011F9A88948B1B4421CBFBC4243
:10887000444504D04FF0C2012CA000F005F9208A35
:108880004CF6FF710840E98808432082A0894EF623
:10889000F3110840A9882A8911436A8910430843C3
:1088A000A081A08A4FF6FF410840A9890843A08211
:1088B0006846FFF729F8B4420CBF03980298A189D3
:1088C00011F4004F00EBC00101EB0010296814BF48
:1088D00049008900B0FBF1F01F4A6FF0180CA2FBB1
:1088E0000031490909010B0903FB0CF300EB83007C
:1088F000A38913F4004F4FF0320314BF03EBC00001
:1089000003EB0010A2FB00204FEA501014BF00F050
:10891000070000F00F000843208106B0BDE8F08199
:1089200000380140004400400048004073746D333B
:1089300032663130335C6C69627261726965735C96
:1089400073746D3332663130785F75736172742E73
:108950006300000020AA44001F85EB5110B50446B7
:10896000A0F18040B0F59C301CBFA4F18040B0F570
:10897000884012D0A4F18040B0F590401FBFA4F110
:108980008040B0F59840A4F18040B0F5A04004D0FC
:108990004FF4197103A000F077F8A088C0F3080025
:1089A00010BD000073746D3332663130335C6C6916
:1089B000627261726965735C73746D3332663130F3
:1089C000785F75736172742E6300000070B50446A1
:1089D000A0F180400D46B0F59C301CBFA4F1804052
:1089E000B0F5884012D0A4F18040B0F590401FBF90
:1089F000A4F18040B0F59840A4F18040B0F5A040CB
:108A000004D040F2532107A000F03EF8B5F5007FF6
:108A100004D34FF4157103A000F036F8C5F3080035
:108A2000A08070BD73746D3332663130335C6C6915
:108A3000627261726965735C73746D333266313072
:108A4000785F75736172742E63000000FEE7490061
:108A500050EAC12018BF04204A0D18BF40F00100A1
:108A600040F2FF72B2EB515F08BF40F002000128F4
:108A700008BF0520704730380A2801D2012070470E
:108A800000207047704700000A46014601A0FCF72D
:108A9000A5BC0000B6CFD1D43A5BCEC4BCFE3A250B
:108AA000735D205BD0D03A25645D0D0A00000000A4
:108AB00070B506460D46002408A0FCF78FFC002D7B
:108AC00007D9315D07A0FCF789FC601CC4B2A54240
:108AD000F7D8BDE8704004A0FCF780BC6461746105
:108AE0003D000000256420000D0A000001A0FCF7F5
:108AF00075BC00003131310D0A00000010B54FF493
:108B00004070FEF719FE1549F02081F8140D01217F
:108B10000846FEF7C5FE01211148FEF707FB6FF07E
:108B20000400FFF705F80F480F490068B0FBF1F0AB
:108B3000C1B20E4801704FF0E020026942F002021B
:108B4000026101EB4102C2EBC111421702EBC1010C
:108B50004161016941F00101016110BD0FE000E0D8
:108B6000000230002000002000127A0008000020DF
:108B700070B50A4C054680212046FFF793FC00287B
:108B8000F9D0E9B22046FFF721FF40212046FFF748
:108B900089FC0028F9D0284670BD0000003801404B
:108BA00000254FF4A0414FF00060FEF7F1FDFFF704
:108BB000A5FF4FF4E130FFF7FDF84FF4E130FFF788
:108BC0000DFA4FF4E130FFF71BFB43A0FCF706FC66
:108BD000FEF72AFFFEF798FCFEF762FCFEF772FC38
:108BE000424E434F434CAB46308810F4004F08D000
:108BF0003088414AC0F30E0140A0FFF765F9A6F89E
:108C000000B0388810F4004F08D03888414AC0F3CB
:108C10000E0141A0FFF76AFAA7F800B0DFF8108153
:108C2000B8F8000010F4004F09D0B8F80000414A2D
:108C3000C0F30E0140A0FFF76DFBA8F800B020685C
:108C40006168B0EB090061EB0A01B0F57A7071F16F
:108C5000000027D3D4F80090D4F804A020684FF483
:108C60007A7200236168FCF728FB02460B4638A0A5
:108C7000FCF7B4FB20684FF47A7200236168FCF7BC
:108C80001CFB02460B4637A0FFF730FA20684FF472
:108C90007A7200236168FCF710FB02460B4636A08F
:108CA000FFF738FBDFF8E48098F8000040B198F84F
:108CB0000000012804BF36A0FCF790FB88F800B044
:108CC0006D1CB5F5C83F8FD933480025C16881F4C4
:108CD0000051C16088E700000D0ACED2CAC74150DA
:108CE000502E2E2E0D0A0D0A000000001800002044
:108CF0001A000020100000208C0100205553415222
:108D000054315F5265616420253364B8F63A2573A7
:108D10000D0A0000100500205553415254325F5295
:108D200065616420253364B8F63A25730D0A0000A6
:108D30001C000020040700205553415254335F5259
:108D400065616420253364B8F63A25730D0A000086
:108D50005553415254315F6D733D256C6C750D0A4E
:108D6000000000005553415254325F6D733D256C35
:108D70006C750D0A000000005553415254335F6D6D
:108D8000733D256C6C750D0A000000005600002034
:108D90006B6579300D0A00000010014010B5002904
:108DA0000AD00878002807D005487844FDF762FB10
:108DB000002801D0002010BD0248784410BD0000FA
:108DC000720100006A01000010B500290AD008787D
:108DD000002807D005487844FDF74CFB002801D057
:108DE000002010BD0248784410BD00006201000060
:108DF0005A010000FCF75DBFFDF792B804000008BF
:108E0000000000000000000200010000100000004F
:108E100000000000000000003031323334353637B6
:108E200038394142434445464030580030313233AE
:108E300034353637383961626364656640307800AE
:108E400030313233343536373839616263646566C0
:108E50007870003031323334353637383941424357
:108E6000444546585000000002400000000000A0A9
:108E70000000000005400000000000C800000000E5
:108E80000C4000000000409C000000001940000061
:108E90000020BCBE0000000034400000BFC91B8E93
:108EA00000000004B5400000504BCFD06607E2CF71
:108EB000010000006C4100003E8251AADFEEA734A1
:108EC00001000000D9420000DCB5A0E23A301F9753
:108ED000FFFFFFFFB4450000FD25A0C8E9A3C14F77
:108EE000FFFFFFFFFF3F00000000008000000000C8
:108EF000FF3F0000000000800000000048900008D4
:108F000000000020600000006C510008A8900008DC
:108F100060000020280E0000885100081C0000009E
:108F200043000000F8FFFFFF0C0000000E000000EF
:108F30000F0000002E0000001001000043000000A0
:108F4000F8FFFFFF0040404040404040404041416A
:108F5000414141404040404040404040404040400E
:108F600040404040400502020202020202020202A8
:108F700002020202022020202020202020202002A5
:108F80000202020202029090909090901010101035
:108F900010101010101010101010101010101010D1
:108FA0000202020202028888888888880808080865
:108FB0000808080808080808080808080808080831
:108FC0000202020240000000000000000000000059
:108FD0000000000000000000000000000000000091
:108FE0000000000000000000000000000000000081
:108FF0000000000000000000000000000000000071
:109000000000000000000000000000000000000060
:109010000000000000000000000000000000000050
:109020000000000000000000000000000000000040
:109030000000000000000000000000000000000030
:109040000000000000000000000000000000000020
:109050000000000000000000000000000000000010
:10906000000000000000000000A24A040000000010
:1090700000000000010203040607080902040608B4
:1090800000000000010203040102030406070809AE
:1090900000010203040506070809000000010000A2
:0890A0000000000000000000C8
:04000005080051316D
:00000001FF
