Component: ARM Compiler 5.06 update 6 (build 750) Tool: armlink [4d35ed]

==============================================================================

Section Cross References

    main.o(i.HAL_GPIO_TogglePin) refers to sys.o(i.assert_failed) for assert_failed
    main.o(i.main) refers to _printf_percent.o(.ARM.Collect$$_printf_percent$$00000000) for _printf_percent
    main.o(i.main) refers to _printf_llu.o(.ARM.Collect$$_printf_percent$$0000000F) for _printf_llu
    main.o(i.main) refers to _printf_longlong_dec.o(.text) for _printf_longlong_dec
    main.o(i.main) refers to misc.o(i.NVIC_SetVectorTable) for NVIC_SetVectorTable
    main.o(i.main) refers to delay.o(i.delay_init) for delay_init
    main.o(i.main) refers to usart1.o(i.USART1_Init) for USART1_Init
    main.o(i.main) refers to usart2.o(i.USART2_Init) for USART2_Init
    main.o(i.main) refers to usart3.o(i.USART3_Init) for USART3_Init
    main.o(i.main) refers to __2printf.o(.text) for __2printf
    main.o(i.main) refers to soft_timer.o(i.SoftTimer_Init) for SoftTimer_Init
    main.o(i.main) refers to multi_button.o(i.Multi_Button_Init) for Multi_Button_Init
    main.o(i.main) refers to key.o(i.Key_Scan_Init) for Key_Scan_Init
    main.o(i.main) refers to key.o(i.Led_Init) for Led_Init
    main.o(i.main) refers to usart1.o(i.USART1_printf) for USART1_printf
    main.o(i.main) refers to usart2.o(i.USART2_printf) for USART2_printf
    main.o(i.main) refers to usart3.o(i.USART3_printf) for USART3_printf
    main.o(i.main) refers to lludivv7m.o(.text) for __aeabi_uldivmod
==============================================================================

Removing Unused input sections from the image.

    Removing main.o(i.HAL_GPIO_TogglePin), (36 bytes).
    Removing sys.o(i._ttywrch), (2 bytes).
    Removing sys.o(i.log_2), (42 bytes).
    Removing sys.o(i.power), (34 bytes).
    Removing delay.o(i.delay_ms), (56 bytes).
    Removing delay.o(i.delay_us), (52 bytes).
    Removing delay.o(.data), (8 bytes).
    Removing usart1.o(i.USART1_RX_STA_SET), (64 bytes).
    Removing usart1.o(i.USART1_Send_Array), (68 bytes).
    Removing usart2.o(i.USART2_RX_STA_SET), (64 bytes).
    Removing usart2.o(i.USART2_Send_Array), (68 bytes).
    Removing usart3.o(i.USART3_RX_STA_SET), (64 bytes).
    Removing usart3.o(i.USART3_Send_Array), (68 bytes).
    Removing core_cm3.o(.emb_text), (32 bytes).
    Removing system_stm32f10x.o(i.SystemCoreClockUpdate), (112 bytes).
    Removing misc.o(i.NVIC_SystemLPConfig), (92 bytes).
    Removing stm32f10x_adc.o(i.ADC_AnalogWatchdogCmd), (156 bytes).
    Removing stm32f10x_adc.o(i.ADC_AnalogWatchdogSingleChannelConfig), (176 bytes).
==============================================================================

Image Symbol Table

    Local Symbols

    Symbol Name                              Value     Ov Type        Size  Object(Section)

    ../clib/angel/boardlib.s                 0x00000000   Number         0  boardinit1.o ABSOLUTE
    ../clib/angel/boardlib.s                 0x00000000   Number         0  boardinit2.o ABSOLUTE
    ../clib/angel/boardlib.s                 0x00000000   Number         0  boardinit3.o ABSOLUTE
    ../clib/angel/boardlib.s                 0x00000000   Number         0  boardshut.o ABSOLUTE
    ../clib/angel/handlers.s                 0x00000000   Number         0  __scatter_zi.o ABSOLUTE
    ../clib/angel/handlers.s                 0x00000000   Number         0  __scatter_copy.o ABSOLUTE
    ../clib/angel/kernel.s                   0x00000000   Number         0  rtexit2.o ABSOLUTE
    ../clib/angel/kernel.s                   0x00000000   Number         0  __rtentry4.o ABSOLUTE
    ../clib/angel/kernel.s                   0x00000000   Number         0  __rtentry2.o ABSOLUTE
    ../clib/angel/kernel.s                   0x00000000   Number         0  __rtentry.o ABSOLUTE
    ../clib/angel/kernel.s                   0x00000000   Number         0  rtexit.o ABSOLUTE
    ../clib/angel/rt.s                       0x00000000   Number         0  rt_div0.o ABSOLUTE
    ../clib/angel/rt.s                       0x00000000   Number         0  aeabi_ldiv0_sigfpe.o ABSOLUTE
    ../clib/angel/rt.s                       0x00000000   Number         0  rt_ctype_table.o ABSOLUTE
    ../clib/angel/rt.s                       0x00000000   Number         0  rt_locale_intlibspace.o ABSOLUTE
    ../clib/angel/rt.s                       0x00000000   Number         0  aeabi_ldiv0.o ABSOLUTE
    ../clib/angel/rt.s                       0x00000000   Number         0  rt_locale.o ABSOLUTE
    ../clib/angel/rt.s                       0x00000000   Number         0  rt_raise.o ABSOLUTE
    ../clib/angel/scatter.s                  0x00000000   Number         0  __scatter.o ABSOLUTE
    ../clib/angel/startup.s                  0x00000000   Number         0  __main.o ABSOLUTE
    ../clib/angel/sys.s                      0x00000000   Number         0  use_no_semi.o ABSOLUTE
    ../clib/angel/sys.s                      0x00000000   Number         0  use_no_semi_2.o ABSOLUTE
    ../clib/angel/sys.s                      0x00000000   Number         0  libspace.o ABSOLUTE
    ../clib/angel/sys.s                      0x00000000   Number         0  indicate_semi.o ABSOLUTE
    ../clib/angel/sys.s                      0x00000000   Number         0  sys_stackheap_outer.o ABSOLUTE
    ../clib/angel/sysapp.c                   0x00000000   Number         0  sys_command.o ABSOLUTE
    ../clib/armsys.c                         0x00000000   Number         0  no_argv.o ABSOLUTE
    ../clib/armsys.c                         0x00000000   Number         0  argv_veneer.o ABSOLUTE
    ../clib/armsys.c                         0x00000000   Number         0  argv_veneer.o ABSOLUTE
    ../clib/armsys.c                         0x00000000   Number         0  _get_argv_nomalloc.o ABSOLUTE
    ../clib/bigflt.c                         0x00000000   Number         0  bigflt0.o ABSOLUTE
    ../clib/btod.s                           0x00000000   Number         0  btod.o ABSOLUTE
    ../clib/heapalloc.c                      0x00000000   Number         0  hrguard.o ABSOLUTE
    ../clib/heapaux.c                        0x00000000   Number         0  heapauxi.o ABSOLUTE
    ../clib/libinit.s                        0x00000000   Number         0  libinit2.o ABSOLUTE
    ../clib/libinit.s                        0x00000000   Number         0  libshutdown.o ABSOLUTE
    ../clib/libinit.s                        0x00000000   Number         0  libinit.o ABSOLUTE
    ../clib/libinit.s                        0x00000000   Number         0  libshutdown2.o ABSOLUTE
    ../clib/locale.c                         0x00000000   Number         0  _wcrtomb.o ABSOLUTE
    ../clib/locale.s                         0x00000000   Number         0  lc_numeric_c.o ABSOLUTE
    ../clib/locale.s                         0x00000000   Number         0  lc_ctype_c.o ABSOLUTE
    ../clib/longlong.s                       0x00000000   Number         0  lludivv7m.o ABSOLUTE
    ../clib/longlong.s                       0x00000000   Number         0  lludiv10.o ABSOLUTE
    ../clib/memcpset.s                       0x00000000   Number         0  strcmpv7m.o ABSOLUTE
    ../clib/misc.s                           0x00000000   Number         0  printf_stubs.o ABSOLUTE
    ../clib/printf.c                         0x00000000   Number         0  _printf_oct_int.o ABSOLUTE
    ../clib/printf.c                         0x00000000   Number         0  _printf_oct_ll.o ABSOLUTE
    ../clib/printf.c                         0x00000000   Number         0  _printf_hex_ptr.o ABSOLUTE
    ../clib/printf.c                         0x00000000   Number         0  _printf_hex_ll_ptr.o ABSOLUTE
    ../clib/printf.c                         0x00000000   Number         0  _printf_hex_int_ll_ptr.o ABSOLUTE
    ../clib/printf.c                         0x00000000   Number         0  _printf_hex_ll.o ABSOLUTE
    ../clib/printf.c                         0x00000000   Number         0  _printf_wctomb.o ABSOLUTE
    ../clib/printf.c                         0x00000000   Number         0  _printf_char_file.o ABSOLUTE
    ../clib/printf.c                         0x00000000   Number         0  _printf_char.o ABSOLUTE
    ../clib/printf.c                         0x00000000   Number         0  _snputc.o ABSOLUTE
    ../clib/printf.c                         0x00000000   Number         0  _printf_hex_int.o ABSOLUTE
    ../clib/printf.c                         0x00000000   Number         0  _printf_fp_dec.o ABSOLUTE
    ../clib/printf.c                         0x00000000   Number         0  _sputc.o ABSOLUTE
    ../clib/printf.c                         0x00000000   Number         0  _printf_char_common.o ABSOLUTE
    ../clib/printf.c                         0x00000000   Number         0  _printf_charcount.o ABSOLUTE
    ../clib/printf.c                         0x00000000   Number         0  _printf_intcommon.o ABSOLUTE
    ../clib/printf.c                         0x00000000   Number         0  _printf_truncate.o ABSOLUTE
    ../clib/printf.c                         0x00000000   Number         0  _printf_pad.o ABSOLUTE
    ../clib/printf.c                         0x00000000   Number         0  _printf_fp_hex.o ABSOLUTE
    ../clib/printf.c                         0x00000000   Number         0  __printf_nopercent.o ABSOLUTE
    ../clib/printf.c                         0x00000000   Number         0  _printf_wchar.o ABSOLUTE
    ../clib/printf.c                         0x00000000   Number         0  __2printf.o ABSOLUTE
    ../clib/printf.c                         0x00000000   Number         0  _printf_fp_infnan.o ABSOLUTE
    ../clib/printf.c                         0x00000000   Number         0  _printf_oct_int_ll.o ABSOLUTE
    ../clib/printf.c                         0x00000000   Number         0  noretval__2printf.o ABSOLUTE
    ../clib/printf.c                         0x00000000   Number         0  __printf.o ABSOLUTE
    ../clib/printf.c                         0x00000000   Number         0  _printf_str.o ABSOLUTE
    ../clib/printf.c                         0x00000000   Number         0  _printf_hex_int_ll.o ABSOLUTE
    ../clib/printf.c                         0x00000000   Number         0  _printf_hex_int_ptr.o ABSOLUTE
    ../clib/printf.c                         0x00000000   Number         0  __printf_flags_ss_wp.o ABSOLUTE
    ../clib/printf.c                         0x00000000   Number         0  __printf_ss_wp.o ABSOLUTE
    ../clib/printf.c                         0x00000000   Number         0  __printf_flags_wp.o ABSOLUTE
    ../clib/printf.c                         0x00000000   Number         0  _printf_dec.o ABSOLUTE
    ../clib/printf.c                         0x00000000   Number         0  __printf_wp.o ABSOLUTE
    ../clib/printf.c                         0x00000000   Number         0  _printf_longlong_dec.o ABSOLUTE
    ../clib/printf.c                         0x00000000   Number         0  __printf_flags.o ABSOLUTE
    ../clib/printf.c                         0x00000000   Number         0  __printf_flags_ss.o ABSOLUTE
    ../clib/printf.c                         0x00000000   Number         0  vsnprintf.o ABSOLUTE
    ../clib/printf.c                         0x00000000   Number         0  __printf_ss.o ABSOLUTE
    ../clib/printf_percent.s                 0x00000000   Number         0  _printf_c.o ABSOLUTE
    ../clib/printf_percent.s                 0x00000000   Number         0  _printf_percent.o ABSOLUTE
    ../clib/printf_percent.s                 0x00000000   Number         0  _printf_llx.o ABSOLUTE
    ../clib/printf_percent.s                 0x00000000   Number         0  _printf_llo.o ABSOLUTE
    ../clib/printf_percent.s                 0x00000000   Number         0  _printf_ls.o ABSOLUTE
    ../clib/printf_percent.s                 0x00000000   Number         0  _printf_lc.o ABSOLUTE
    ../clib/printf_percent.s                 0x00000000   Number         0  _printf_l.o ABSOLUTE
    ../clib/printf_percent.s                 0x00000000   Number         0  _printf_ll.o ABSOLUTE
    ../clib/printf_percent.s                 0x00000000   Number         0  _printf_lld.o ABSOLUTE
    ../clib/printf_percent.s                 0x00000000   Number         0  _printf_lli.o ABSOLUTE
    ../clib/printf_percent.s                 0x00000000   Number         0  _printf_percent_end.o ABSOLUTE
    ../clib/printf_percent.s                 0x00000000   Number         0  _printf_a.o ABSOLUTE
    ../clib/printf_percent.s                 0x00000000   Number         0  _printf_g.o ABSOLUTE
    ../clib/printf_percent.s                 0x00000000   Number         0  _printf_e.o ABSOLUTE
    ../clib/printf_percent.s                 0x00000000   Number         0  _printf_s.o ABSOLUTE
    ../clib/printf_percent.s                 0x00000000   Number         0  _printf_d.o ABSOLUTE
    ../clib/printf_percent.s                 0x00000000   Number         0  _printf_llu.o ABSOLUTE
    ../clib/printf_percent.s                 0x00000000   Number         0  _printf_f.o ABSOLUTE
    ../clib/printf_percent.s                 0x00000000   Number         0  _printf_u.o ABSOLUTE
    ../clib/printf_percent.s                 0x00000000   Number         0  _printf_i.o ABSOLUTE
    ../clib/printf_percent.s                 0x00000000   Number         0  _printf_o.o ABSOLUTE
    ../clib/printf_percent.s                 0x00000000   Number         0  _printf_p.o ABSOLUTE
    ../clib/printf_percent.s                 0x00000000   Number         0  _printf_x.o ABSOLUTE
    ../clib/printf_percent.s                 0x00000000   Number         0  _printf_n.o ABSOLUTE
    ../clib/signal.c                         0x00000000   Number         0  defsig_segv_inner.o ABSOLUTE
    ../clib/signal.c                         0x00000000   Number         0  defsig_cppl_inner.o ABSOLUTE
    ../clib/signal.c                         0x00000000   Number         0  defsig_pvfn_inner.o ABSOLUTE
    ../clib/signal.c                         0x00000000   Number         0  defsig_stak_inner.o ABSOLUTE
    ../clib/signal.c                         0x00000000   Number         0  defsig_rtmem_formal.o ABSOLUTE
    ../clib/signal.c                         0x00000000   Number         0  defsig_rtmem_outer.o ABSOLUTE
    ../clib/signal.c                         0x00000000   Number         0  defsig_fpe_outer.o ABSOLUTE
    ../clib/signal.c                         0x00000000   Number         0  defsig_rtmem_inner.o ABSOLUTE
    ../clib/signal.c                         0x00000000   Number         0  defsig_rtred_inner.o ABSOLUTE
    ../clib/signal.c                         0x00000000   Number         0  defsig_abrt_inner.o ABSOLUTE
    ../clib/signal.c                         0x00000000   Number         0  defsig_other.o ABSOLUTE
    ../clib/signal.c                         0x00000000   Number         0  defsig_fpe_inner.o ABSOLUTE
    ../clib/signal.c                         0x00000000   Number         0  defsig_general.o ABSOLUTE
    ../clib/signal.c                         0x00000000   Number         0  __raise.o ABSOLUTE
    ../clib/signal.c                         0x00000000   Number         0  defsig_exit.o ABSOLUTE
    ../clib/signal.c                         0x00000000   Number         0  defsig_fpe_formal.o ABSOLUTE
    ../clib/signal.s                         0x00000000   Number         0  defsig.o ABSOLUTE
    ../clib/stdio.c                          0x00000000   Number         0  ferror_locked.o ABSOLUTE
    ../clib/stdio.c                          0x00000000   Number         0  ferror.o ABSOLUTE
    ../clib/stdlib.c                         0x00000000   Number         0  exit.o ABSOLUTE
    ../fplib/fpinit.s                        0x00000000   Number         0  fpinit.o ABSOLUTE
    ../fplib/istatus.s                       0x00000000   Number         0  istatus.o ABSOLUTE
    ../fplib/printf1.s                       0x00000000   Number         0  printf1.o ABSOLUTE
    ../fplib/printf2.s                       0x00000000   Number         0  printf2.o ABSOLUTE
    ../fplib/printf2a.s                      0x00000000   Number         0  printf2a.o ABSOLUTE
    ../fplib/printf2b.s                      0x00000000   Number         0  printf2b.o ABSOLUTE
    ../fplib/usenofp.s                       0x00000000   Number         0  usenofp.o ABSOLUTE
    ../mathlib/fpclassify.c                  0x00000000   Number         0  fpclassify.o ABSOLUTE
    app\SysTick.c                            0x00000000   Number         0  systick.o ABSOLUTE
    app\key.c                                0x00000000   Number         0  key.o ABSOLUTE
    app\multi_button.c                       0x00000000   Number         0  multi_button.o ABSOLUTE
    app\soft_timer.c                         0x00000000   Number         0  soft_timer.o ABSOLUTE
    dc.s                                     0x00000000   Number         0  dc.o ABSOLUTE
    stm32f103\\startup\\core_cm3.c           0x00000000   Number         0  core_cm3.o ABSOLUTE
    stm32f103\libraries\misc.c               0x00000000   Number         0  misc.o ABSOLUTE
    stm32f103\libraries\stm32f10x_adc.c      0x00000000   Number         0  stm32f10x_adc.o ABSOLUTE
    stm32f103\libraries\stm32f10x_bkp.c      0x00000000   Number         0  stm32f10x_bkp.o ABSOLUTE
    stm32f103\libraries\stm32f10x_can.c      0x00000000   Number         0  stm32f10x_can.o ABSOLUTE
    stm32f103\libraries\stm32f10x_cec.c      0x00000000   Number         0  stm32f10x_cec.o ABSOLUTE
    stm32f103\libraries\stm32f10x_crc.c      0x00000000   Number         0  stm32f10x_crc.o ABSOLUTE
    stm32f103\libraries\stm32f10x_dac.c      0x00000000   Number         0  stm32f10x_dac.o ABSOLUTE
    stm32f103\libraries\stm32f10x_dbgmcu.c   0x00000000   Number         0  stm32f10x_dbgmcu.o ABSOLUTE
    stm32f103\libraries\stm32f10x_dma.c      0x00000000   Number         0  stm32f10x_dma.o ABSOLUTE
    stm32f103\libraries\stm32f10x_exti.c     0x00000000   Number         0  stm32f10x_exti.o ABSOLUTE
    stm32f103\libraries\stm32f10x_flash.c    0x00000000   Number         0  stm32f10x_flash.o ABSOLUTE
    stm32f103\libraries\stm32f10x_fsmc.c     0x00000000   Number         0  stm32f10x_fsmc.o ABSOLUTE
    stm32f103\libraries\stm32f10x_gpio.c     0x00000000   Number         0  stm32f10x_gpio.o ABSOLUTE
    stm32f103\libraries\stm32f10x_i2c.c      0x00000000   Number         0  stm32f10x_i2c.o ABSOLUTE
    stm32f103\libraries\stm32f10x_iwdg.c     0x00000000   Number         0  stm32f10x_iwdg.o ABSOLUTE
    stm32f103\libraries\stm32f10x_pwr.c      0x00000000   Number         0  stm32f10x_pwr.o ABSOLUTE
    stm32f103\libraries\stm32f10x_rcc.c      0x00000000   Number         0  stm32f10x_rcc.o ABSOLUTE
    stm32f103\libraries\stm32f10x_rtc.c      0x00000000   Number         0  stm32f10x_rtc.o ABSOLUTE
    stm32f103\libraries\stm32f10x_sdio.c     0x00000000   Number         0  stm32f10x_sdio.o ABSOLUTE
    stm32f103\libraries\stm32f10x_spi.c      0x00000000   Number         0  stm32f10x_spi.o ABSOLUTE
    stm32f103\libraries\stm32f10x_tim.c      0x00000000   Number         0  stm32f10x_tim.o ABSOLUTE
    stm32f103\libraries\stm32f10x_usart.c    0x00000000   Number         0  stm32f10x_usart.o ABSOLUTE
    stm32f103\libraries\stm32f10x_wwdg.c     0x00000000   Number         0  stm32f10x_wwdg.o ABSOLUTE
    stm32f103\startup\core_cm3.c             0x00000000   Number         0  core_cm3.o ABSOLUTE
    stm32f103\startup\startup_stm32f10x_hd.s 0x00000000   Number         0  startup_stm32f10x_hd.o ABSOLUTE
    stm32f103\startup\stm32f10x_it.c         0x00000000   Number         0  stm32f10x_it.o ABSOLUTE
    stm32f103\startup\system_stm32f10x.c     0x00000000   Number         0  system_stm32f10x.o ABSOLUTE
    system\delay.c                           0x00000000   Number         0  delay.o ABSOLUTE
    system\sys.c                             0x00000000   Number         0  sys.o ABSOLUTE
    system\usart1.c                          0x00000000   Number         0  usart1.o ABSOLUTE
    system\usart2.c                          0x00000000   Number         0  usart2.o ABSOLUTE
    system\usart3.c                          0x00000000   Number         0  usart3.o ABSOLUTE
    user\main.c                              0x00000000   Number         0  main.o ABSOLUTE
    RESET                                    0x08005000   Section      304  startup_stm32f10x_hd.o(RESET)
    !!!main                                  0x08005130   Section        8  __main.o(!!!main)
    !!!scatter                               0x08005138   Section       52  __scatter.o(!!!scatter)
    !!handler_copy                           0x0800516c   Section       26  __scatter_copy.o(!!handler_copy)
    !!handler_zi                             0x08005188   Section       28  __scatter_zi.o(!!handler_zi)
    .ARM.Collect$$_printf_percent$$00000000  0x080051a4   Section        0  _printf_percent.o(.ARM.Collect$$_printf_percent$$00000000)
    .ARM.Collect$$_printf_percent$$00000001  0x080051a4   Section        6  _printf_n.o(.ARM.Collect$$_printf_percent$$00000001)
    .ARM.Collect$$_printf_percent$$00000002  0x080051aa   Section        6  _printf_p.o(.ARM.Collect$$_printf_percent$$00000002)
    .ARM.Collect$$_printf_percent$$00000003  0x080051b0   Section        6  _printf_f.o(.ARM.Collect$$_printf_percent$$00000003)
    .ARM.Collect$$_printf_percent$$00000004  0x080051b6   Section        6  _printf_e.o(.ARM.Collect$$_printf_percent$$00000004)
    .ARM.Collect$$_printf_percent$$00000005  0x080051bc   Section        6  _printf_g.o(.ARM.Collect$$_printf_percent$$00000005)
    .ARM.Collect$$_printf_percent$$00000006  0x080051c2   Section        6  _printf_a.o(.ARM.Collect$$_printf_percent$$00000006)
    .ARM.Collect$$_printf_percent$$00000007  0x080051c8   Section       10  _printf_ll.o(.ARM.Collect$$_printf_percent$$00000007)
    .ARM.Collect$$_printf_percent$$00000008  0x080051d2   Section        6  _printf_i.o(.ARM.Collect$$_printf_percent$$00000008)
    .ARM.Collect$$_printf_percent$$00000009  0x080051d8   Section        6  _printf_d.o(.ARM.Collect$$_printf_percent$$00000009)
    .ARM.Collect$$_printf_percent$$0000000A  0x080051de   Section        6  _printf_u.o(.ARM.Collect$$_printf_percent$$0000000A)
    .ARM.Collect$$_printf_percent$$0000000B  0x080051e4   Section        6  _printf_o.o(.ARM.Collect$$_printf_percent$$0000000B)
    .ARM.Collect$$_printf_percent$$0000000C  0x080051ea   Section        6  _printf_x.o(.ARM.Collect$$_printf_percent$$0000000C)
    .ARM.Collect$$_printf_percent$$0000000D  0x080051f0   Section        6  _printf_lli.o(.ARM.Collect$$_printf_percent$$0000000D)
    .ARM.Collect$$_printf_percent$$0000000E  0x080051f6   Section        6  _printf_lld.o(.ARM.Collect$$_printf_percent$$0000000E)
    .ARM.Collect$$_printf_percent$$0000000F  0x080051fc   Section        6  _printf_llu.o(.ARM.Collect$$_printf_percent$$0000000F)
    .ARM.Collect$$_printf_percent$$00000010  0x08005202   Section        6  _printf_llo.o(.ARM.Collect$$_printf_percent$$00000010)
    .ARM.Collect$$_printf_percent$$00000011  0x08005208   Section        6  _printf_llx.o(.ARM.Collect$$_printf_percent$$00000011)
    .ARM.Collect$$_printf_percent$$00000012  0x0800520e   Section       10  _printf_l.o(.ARM.Collect$$_printf_percent$$00000012)
    .ARM.Collect$$_printf_percent$$00000013  0x08005218   Section        6  _printf_c.o(.ARM.Collect$$_printf_percent$$00000013)
    .ARM.Collect$$_printf_percent$$00000014  0x0800521e   Section        6  _printf_s.o(.ARM.Collect$$_printf_percent$$00000014)
    .ARM.Collect$$_printf_percent$$00000015  0x08005224   Section        6  _printf_lc.o(.ARM.Collect$$_printf_percent$$00000015)
    .ARM.Collect$$_printf_percent$$00000016  0x0800522a   Section        6  _printf_ls.o(.ARM.Collect$$_printf_percent$$00000016)
    .ARM.Collect$$_printf_percent$$00000017  0x08005230   Section        4  _printf_percent_end.o(.ARM.Collect$$_printf_percent$$00000017)
    .ARM.Collect$$libinit$$00000000          0x08005234   Section        2  libinit.o(.ARM.Collect$$libinit$$00000000)
    .ARM.Collect$$libinit$$00000002          0x08005236   Section        0  libinit2.o(.ARM.Collect$$libinit$$00000002)
    .ARM.Collect$$libinit$$00000004          0x08005236   Section        0  libinit2.o(.ARM.Collect$$libinit$$00000004)
    .ARM.Collect$$libinit$$0000000A          0x08005236   Section        0  libinit2.o(.ARM.Collect$$libinit$$0000000A)
    .ARM.Collect$$libinit$$0000000C          0x08005236   Section        0  libinit2.o(.ARM.Collect$$libinit$$0000000C)
    .ARM.Collect$$libinit$$0000000E          0x08005236   Section        0  libinit2.o(.ARM.Collect$$libinit$$0000000E)
    .ARM.Collect$$libinit$$0000000F          0x08005236   Section        6  libinit2.o(.ARM.Collect$$libinit$$0000000F)
    .ARM.Collect$$libinit$$00000011          0x0800523c   Section        0  libinit2.o(.ARM.Collect$$libinit$$00000011)
    .ARM.Collect$$libinit$$00000012          0x0800523c   Section       12  libinit2.o(.ARM.Collect$$libinit$$00000012)
    .ARM.Collect$$libinit$$00000013          0x08005248   Section        0  libinit2.o(.ARM.Collect$$libinit$$00000013)
    .ARM.Collect$$libinit$$00000015          0x08005248   Section        0  libinit2.o(.ARM.Collect$$libinit$$00000015)
    .ARM.Collect$$libinit$$00000016          0x08005248   Section       10  libinit2.o(.ARM.Collect$$libinit$$00000016)
    .ARM.Collect$$libinit$$00000017          0x08005252   Section        0  libinit2.o(.ARM.Collect$$libinit$$00000017)
    .ARM.Collect$$libinit$$00000019          0x08005252   Section        0  libinit2.o(.ARM.Collect$$libinit$$00000019)
    .ARM.Collect$$libinit$$0000001B          0x08005252   Section        0  libinit2.o(.ARM.Collect$$libinit$$0000001B)
    .ARM.Collect$$libinit$$0000001D          0x08005252   Section        0  libinit2.o(.ARM.Collect$$libinit$$0000001D)
    .ARM.Collect$$libinit$$0000001F          0x08005252   Section        0  libinit2.o(.ARM.Collect$$libinit$$0000001F)
    .ARM.Collect$$libinit$$00000021          0x08005252   Section        0  libinit2.o(.ARM.Collect$$libinit$$00000021)
    .ARM.Collect$$libinit$$00000023          0x08005252   Section        0  libinit2.o(.ARM.Collect$$libinit$$00000023)
    .ARM.Collect$$libinit$$00000025          0x08005252   Section        0  libinit2.o(.ARM.Collect$$libinit$$00000025)
    .ARM.Collect$$libinit$$0000002C          0x08005252   Section        0  libinit2.o(.ARM.Collect$$libinit$$0000002C)
    .ARM.Collect$$libinit$$0000002E          0x08005252   Section        0  libinit2.o(.ARM.Collect$$libinit$$0000002E)
    .ARM.Collect$$libinit$$00000030          0x08005252   Section        0  libinit2.o(.ARM.Collect$$libinit$$00000030)
    .ARM.Collect$$libinit$$00000032          0x08005252   Section        0  libinit2.o(.ARM.Collect$$libinit$$00000032)
    .ARM.Collect$$libinit$$00000033          0x08005252   Section        2  libinit2.o(.ARM.Collect$$libinit$$00000033)
    .ARM.Collect$$libshutdown$$00000000      0x08005254   Section        2  libshutdown.o(.ARM.Collect$$libshutdown$$00000000)
    .ARM.Collect$$libshutdown$$00000002      0x08005256   Section        0  libshutdown2.o(.ARM.Collect$$libshutdown$$00000002)
    .ARM.Collect$$libshutdown$$00000004      0x08005256   Section        0  libshutdown2.o(.ARM.Collect$$libshutdown$$00000004)
    .ARM.Collect$$libshutdown$$00000007      0x08005256   Section        0  libshutdown2.o(.ARM.Collect$$libshutdown$$00000007)
    .ARM.Collect$$libshutdown$$0000000A      0x08005256   Section        0  libshutdown2.o(.ARM.Collect$$libshutdown$$0000000A)
    .ARM.Collect$$libshutdown$$0000000C      0x08005256   Section        0  libshutdown2.o(.ARM.Collect$$libshutdown$$0000000C)
    .ARM.Collect$$libshutdown$$0000000F      0x08005256   Section        0  libshutdown2.o(.ARM.Collect$$libshutdown$$0000000F)
    .ARM.Collect$$libshutdown$$00000010      0x08005256   Section        2  libshutdown2.o(.ARM.Collect$$libshutdown$$00000010)
    .ARM.Collect$$rtentry$$00000000          0x08005258   Section        0  __rtentry.o(.ARM.Collect$$rtentry$$00000000)
    .ARM.Collect$$rtentry$$00000002          0x08005258   Section        0  __rtentry2.o(.ARM.Collect$$rtentry$$00000002)
    .ARM.Collect$$rtentry$$00000004          0x08005258   Section        6  __rtentry4.o(.ARM.Collect$$rtentry$$00000004)
    .ARM.Collect$$rtentry$$00000009          0x0800525e   Section        0  __rtentry2.o(.ARM.Collect$$rtentry$$00000009)
    .ARM.Collect$$rtentry$$0000000A          0x0800525e   Section        4  __rtentry2.o(.ARM.Collect$$rtentry$$0000000A)
    .ARM.Collect$$rtentry$$0000000C          0x08005262   Section        0  __rtentry2.o(.ARM.Collect$$rtentry$$0000000C)
    .ARM.Collect$$rtentry$$0000000D          0x08005262   Section        8  __rtentry2.o(.ARM.Collect$$rtentry$$0000000D)
    .ARM.Collect$$rtexit$$00000000           0x0800526a   Section        2  rtexit.o(.ARM.Collect$$rtexit$$00000000)
    .ARM.Collect$$rtexit$$00000002           0x0800526c   Section        0  rtexit2.o(.ARM.Collect$$rtexit$$00000002)
    .ARM.Collect$$rtexit$$00000003           0x0800526c   Section        4  rtexit2.o(.ARM.Collect$$rtexit$$00000003)
    .ARM.Collect$$rtexit$$00000004           0x08005270   Section        6  rtexit2.o(.ARM.Collect$$rtexit$$00000004)
    .text                                    0x08005278   Section       64  startup_stm32f10x_hd.o(.text)
    .text                                    0x080052b8   Section        2  use_no_semi_2.o(.text)
    .text                                    0x080052ba   Section      238  lludivv7m.o(.text)
    .text                                    0x080053a8   Section        0  vsnprintf.o(.text)
    .text                                    0x080053dc   Section        0  __2printf.o(.text)
    .text                                    0x080053f4   Section        0  _printf_str.o(.text)
    .text                                    0x08005448   Section        0  _printf_dec.o(.text)
    .text                                    0x080054c0   Section        0  _printf_longlong_dec.o(.text)
    .text                                    0x0800553c   Section        0  __printf_flags_ss_wp.o(.text)
    .text                                    0x080056c4   Section        0  heapauxi.o(.text)
    .text                                    0x080056ca   Section        2  use_no_semi.o(.text)
    .text                                    0x080056cc   Section      138  lludiv10.o(.text)
    .text                                    0x08005756   Section        0  _printf_pad.o(.text)
    .text                                    0x080057a4   Section        0  _printf_truncate.o(.text)
    .text                                    0x080057c8   Section        0  _printf_intcommon.o(.text)
    .text                                    0x0800587a   Section        0  _printf_charcount.o(.text)
    .text                                    0x080058a4   Section        0  _printf_char_common.o(.text)
    _printf_input_char                       0x080058a5   Thumb Code    10  _printf_char_common.o(.text)
    .text                                    0x080058d4   Section        0  _sputc.o(.text)
    .text                                    0x080058de   Section        0  _snputc.o(.text)
    .text                                    0x080058ee   Section        0  _printf_char.o(.text)
    .text                                    0x0800591c   Section        0  _printf_char_file.o(.text)
    .text                                    0x08005940   Section        0  _printf_wctomb.o(.text)
    .text                                    0x080059fc   Section        0  _printf_oct_int_ll.o(.text)
    _printf_longlong_oct_internal            0x080059fd   Thumb Code     0  _printf_oct_int_ll.o(.text)
    .text                                    0x08005a6c   Section        0  _printf_hex_int_ll_ptr.o(.text)
    _printf_hex_common                       0x08005a6d   Thumb Code     0  _printf_hex_int_ll_ptr.o(.text)
    .text                                    0x08005b00   Section        0  _printf_fp_dec.o(.text)
    _fp_digits                               0x08005b03   Thumb Code   432  _printf_fp_dec.o(.text)
    .text                                    0x08005f20   Section        0  _printf_fp_hex.o(.text)
    .text                                    0x0800621c   Section        0  _printf_wchar.o(.text)
    .text                                    0x08006248   Section        0  ferror.o(.text)
    .text                                    0x08006250   Section        0  _wcrtomb.o(.text)
    .text                                    0x08006290   Section       74  sys_stackheap_outer.o(.text)
    .text                                    0x080062dc   Section       16  rt_ctype_table.o(.text)
    .text                                    0x080062ec   Section        8  rt_locale_intlibspace.o(.text)
    .text                                    0x080062f4   Section        0  _printf_fp_infnan.o(.text)
    .text                                    0x08006374   Section        0  bigflt0.o(.text)
    .text                                    0x08006458   Section        0  exit.o(.text)
    .text                                    0x0800646c   Section        8  libspace.o(.text)
    .text                                    0x08006474   Section      128  strcmpv7m.o(.text)
    CL$$btod_d2e                             0x080064f4   Section       62  btod.o(CL$$btod_d2e)
    CL$$btod_d2e_denorm_low                  0x08006532   Section       70  btod.o(CL$$btod_d2e_denorm_low)
    CL$$btod_d2e_norm_op1                    0x08006578   Section       96  btod.o(CL$$btod_d2e_norm_op1)
    CL$$btod_div_common                      0x080065d8   Section      824  btod.o(CL$$btod_div_common)
    CL$$btod_e2e                             0x08006910   Section      220  btod.o(CL$$btod_e2e)
    CL$$btod_ediv                            0x080069ec   Section       42  btod.o(CL$$btod_ediv)
    CL$$btod_emul                            0x08006a16   Section       42  btod.o(CL$$btod_emul)
    CL$$btod_mult_common                     0x08006a40   Section      580  btod.o(CL$$btod_mult_common)
    i.BKP_TamperPinCmd                       0x08006c84   Section        0  stm32f10x_bkp.o(i.BKP_TamperPinCmd)
    i.BTN1_DOUBLE_Click_Handler              0x08006cc8   Section        0  multi_button.o(i.BTN1_DOUBLE_Click_Handler)
    i.BTN1_LONG_PRESS_HOLD_Handler           0x08006ce8   Section        0  multi_button.o(i.BTN1_LONG_PRESS_HOLD_Handler)
    i.BTN1_LONG_RRESS_START_Handler          0x08006d0c   Section        0  multi_button.o(i.BTN1_LONG_RRESS_START_Handler)
    i.BTN1_PRESS_DOWN_Handler                0x08006d30   Section        0  multi_button.o(i.BTN1_PRESS_DOWN_Handler)
    i.BTN1_PRESS_REPEAT_Handler              0x08006d50   Section        0  multi_button.o(i.BTN1_PRESS_REPEAT_Handler)
    i.BTN1_PRESS_UP_Handler                  0x08006d80   Section        0  multi_button.o(i.BTN1_PRESS_UP_Handler)
    i.BTN1_SINGLE_Click_Handler              0x08006d9c   Section        0  multi_button.o(i.BTN1_SINGLE_Click_Handler)
    i.BusFault_Handler                       0x08006dbc   Section        0  stm32f10x_it.o(i.BusFault_Handler)
    i.Button_Handler                         0x08006dbe   Section        0  multi_button.o(i.Button_Handler)
    i.Button_Ticks                           0x08006f98   Section        0  multi_button.o(i.Button_Ticks)
    i.DebugMon_Handler                       0x08006fb8   Section        0  stm32f10x_it.o(i.DebugMon_Handler)
    i.GPIO_Init                              0x08006fbc   Section        0  stm32f10x_gpio.o(i.GPIO_Init)
    i.GPIO_PinRemapConfig                    0x0800712c   Section        0  stm32f10x_gpio.o(i.GPIO_PinRemapConfig)
    i.GPIO_ReadInputDataBit                  0x0800735c   Section        0  stm32f10x_gpio.o(i.GPIO_ReadInputDataBit)
    i.HardFault_Handler                      0x08007440   Section        0  stm32f10x_it.o(i.HardFault_Handler)
    i.KEY_Scan                               0x08007444   Section        0  key.o(i.KEY_Scan)
    i.Key_Scan_Init                          0x080074a0   Section        0  key.o(i.Key_Scan_Init)
    i.Led_Init                               0x080074c4   Section        0  key.o(i.Led_Init)
    i.MemManage_Handler                      0x08007504   Section        0  stm32f10x_it.o(i.MemManage_Handler)
    i.Multi_Button_Init                      0x08007508   Section        0  multi_button.o(i.Multi_Button_Init)
    i.My_GPIO_Init                           0x080075c0   Section        0  sys.o(i.My_GPIO_Init)
    i.NMI_Handler                            0x0800767c   Section        0  stm32f10x_it.o(i.NMI_Handler)
    i.NVIC_Init                              0x08007680   Section        0  misc.o(i.NVIC_Init)
    i.NVIC_PriorityGroupConfig               0x08007738   Section        0  misc.o(i.NVIC_PriorityGroupConfig)
    i.NVIC_SetVectorTable                    0x08007790   Section        0  misc.o(i.NVIC_SetVectorTable)
    i.PWR_BackupAccessCmd                    0x080077f0   Section        0  stm32f10x_pwr.o(i.PWR_BackupAccessCmd)
    i.PendSV_Handler                         0x08007834   Section        0  stm32f10x_it.o(i.PendSV_Handler)
    i.RCC_APB1PeriphClockCmd                 0x08007838   Section        0  stm32f10x_rcc.o(i.RCC_APB1PeriphClockCmd)
    i.RCC_APB2PeriphClockCmd                 0x080078a0   Section        0  stm32f10x_rcc.o(i.RCC_APB2PeriphClockCmd)
    i.RCC_GetClocksFreq                      0x08007908   Section        0  stm32f10x_rcc.o(i.RCC_GetClocksFreq)
    i.RCC_LSEConfig                          0x080079b4   Section        0  stm32f10x_rcc.o(i.RCC_LSEConfig)
    i.Read_Button1_GPIO                      0x08007a14   Section        0  multi_button.o(i.Read_Button1_GPIO)
    i.SVC_Handler                            0x08007a24   Section        0  stm32f10x_it.o(i.SVC_Handler)
    i.SoftTimer_Init                         0x08007a28   Section        0  soft_timer.o(i.SoftTimer_Init)
    i.SoftTimer_Update                       0x08007a94   Section        0  soft_timer.o(i.SoftTimer_Update)
    i.SysTick_CLKSourceConfig                0x08007b30   Section        0  misc.o(i.SysTick_CLKSourceConfig)
    i.SysTick_Callback                       0x08007b78   Section        0  systick.o(i.SysTick_Callback)
    i.SysTick_Handler                        0x08007bf8   Section        0  delay.o(i.SysTick_Handler)
    i.SystemInit                             0x08007c10   Section        0  system_stm32f10x.o(i.SystemInit)
    i.USART1_IRQHandler                      0x08007d00   Section        0  usart1.o(i.USART1_IRQHandler)
    i.USART1_Init                            0x08007db4   Section        0  usart1.o(i.USART1_Init)
    i.USART1_printf                          0x08007ec8   Section        0  usart1.o(i.USART1_printf)
    i.USART2_IRQHandler                      0x08007f28   Section        0  usart2.o(i.USART2_IRQHandler)
    i.USART2_Init                            0x08007fdc   Section        0  usart2.o(i.USART2_Init)
    i.USART2_printf                          0x080080ec   Section        0  usart2.o(i.USART2_printf)
    i.USART3_IRQHandler                      0x0800814c   Section        0  usart3.o(i.USART3_IRQHandler)
    i.USART3_Init                            0x08008200   Section        0  usart3.o(i.USART3_Init)
    i.USART3_printf                          0x08008314   Section        0  usart3.o(i.USART3_printf)
    i.USART_ClearFlag                        0x08008374   Section        0  stm32f10x_usart.o(i.USART_ClearFlag)
    i.USART_Cmd                              0x08008418   Section        0  stm32f10x_usart.o(i.USART_Cmd)
    i.USART_GetFlagStatus                    0x080084a4   Section        0  stm32f10x_usart.o(i.USART_GetFlagStatus)
    i.USART_GetITStatus                      0x0800856c   Section        0  stm32f10x_usart.o(i.USART_GetITStatus)
    i.USART_ITConfig                         0x08008680   Section        0  stm32f10x_usart.o(i.USART_ITConfig)
    i.USART_Init                             0x08008798   Section        0  stm32f10x_usart.o(i.USART_Init)
    i.USART_ReceiveData                      0x0800895c   Section        0  stm32f10x_usart.o(i.USART_ReceiveData)
    i.USART_SendData                         0x080089cc   Section        0  stm32f10x_usart.o(i.USART_SendData)
    i.UsageFault_Handler                     0x08008a4c   Section        0  stm32f10x_it.o(i.UsageFault_Handler)
    i.__ARM_fpclassify                       0x08008a4e   Section        0  fpclassify.o(i.__ARM_fpclassify)
    i._is_digit                              0x08008a76   Section        0  __printf_wp.o(i._is_digit)
    i._sys_exit                              0x08008a84   Section        0  sys.o(i._sys_exit)
    i.assert_failed                          0x08008a88   Section        0  sys.o(i.assert_failed)
    i.callback0                              0x08008ab0   Section        0  soft_timer.o(i.callback0)
    i.callback1                              0x08008aec   Section        0  soft_timer.o(i.callback1)
    i.delay_init                             0x08008afc   Section        0  delay.o(i.delay_init)
    i.fputc                                  0x08008b70   Section        0  sys.o(i.fputc)
    i.main                                   0x08008ba0   Section        0  main.o(i.main)
    locale$$code                             0x08008d9c   Section       44  lc_numeric_c.o(locale$$code)
    locale$$code                             0x08008dc8   Section       44  lc_ctype_c.o(locale$$code)
    x$fpl$printf1                            0x08008df4   Section        4  printf1.o(x$fpl$printf1)
    x$fpl$printf2                            0x08008df8   Section        4  printf2.o(x$fpl$printf2)
    .constdata                               0x08008dfc   Section       17  __printf_flags_ss_wp.o(.constdata)
    x$fpl$usenofp                            0x08008dfc   Section        0  usenofp.o(x$fpl$usenofp)
    maptable                                 0x08008dfc   Data          17  __printf_flags_ss_wp.o(.constdata)
    .constdata                               0x08008e10   Section        8  _printf_wctomb.o(.constdata)
    initial_mbstate                          0x08008e10   Data           8  _printf_wctomb.o(.constdata)
    .constdata                               0x08008e18   Section       40  _printf_hex_int_ll_ptr.o(.constdata)
    uc_hextab                                0x08008e18   Data          20  _printf_hex_int_ll_ptr.o(.constdata)
    lc_hextab                                0x08008e2c   Data          20  _printf_hex_int_ll_ptr.o(.constdata)
    .constdata                               0x08008e40   Section       38  _printf_fp_hex.o(.constdata)
    lc_hextab                                0x08008e40   Data          19  _printf_fp_hex.o(.constdata)
    uc_hextab                                0x08008e53   Data          19  _printf_fp_hex.o(.constdata)
    .constdata                               0x08008e68   Section      148  bigflt0.o(.constdata)
    tenpwrs_x                                0x08008e68   Data          60  bigflt0.o(.constdata)
    tenpwrs_i                                0x08008ea4   Data          64  bigflt0.o(.constdata)
    locale$$data                             0x08008f1c   Section       28  lc_numeric_c.o(locale$$data)
    __lcnum_c_name                           0x08008f20   Data           2  lc_numeric_c.o(locale$$data)
    __lcnum_c_start                          0x08008f28   Data           0  lc_numeric_c.o(locale$$data)
    __lcnum_c_point                          0x08008f34   Data           0  lc_numeric_c.o(locale$$data)
    __lcnum_c_thousands                      0x08008f36   Data           0  lc_numeric_c.o(locale$$data)
    __lcnum_c_grouping                       0x08008f37   Data           0  lc_numeric_c.o(locale$$data)
    locale$$data                             0x08008f38   Section      272  lc_ctype_c.o(locale$$data)
    __lcnum_c_end                            0x08008f38   Data           0  lc_numeric_c.o(locale$$data)
    __lcctype_c_name                         0x08008f3c   Data           2  lc_ctype_c.o(locale$$data)
    __lcctype_c_start                        0x08008f44   Data           0  lc_ctype_c.o(locale$$data)
    __lcctype_c_end                          0x08009048   Data           0  lc_ctype_c.o(locale$$data)
    .data                                    0x20000000   Section        4  sys.o(.data)
    .data                                    0x20000008   Section       16  delay.o(.data)
    fac_us                                   0x20000008   Data           1  delay.o(.data)
    .data                                    0x20000018   Section        2  usart1.o(.data)
    .data                                    0x2000001a   Section        2  usart2.o(.data)
    .data                                    0x2000001c   Section        2  usart3.o(.data)
    .data                                    0x20000020   Section       20  system_stm32f10x.o(.data)
    .data                                    0x20000034   Section       20  stm32f10x_rcc.o(.data)
    ADCPrescTable                            0x20000034   Data           4  stm32f10x_rcc.o(.data)
    APBAHBPrescTable                         0x20000038   Data          16  stm32f10x_rcc.o(.data)
    .data                                    0x20000048   Section       11  soft_timer.o(.data)
    .data                                    0x20000053   Section        4  key.o(.data)
    flag                                     0x20000054   Data           1  key.o(.data)
    key_up                                   0x20000055   Data           1  key.o(.data)
    .data                                    0x20000058   Section        8  multi_button.o(.data)
    head_handle                              0x2000005c   Data           4  multi_button.o(.data)
    .bss                                     0x20000060   Section      600  usart1.o(.bss)
    .bss                                     0x200002b8   Section      800  usart2.o(.bss)
    .bss                                     0x200005d8   Section      500  usart3.o(.bss)
    .bss                                     0x200007cc   Section       48  soft_timer.o(.bss)
    .bss                                     0x200007fc   Section       40  multi_button.o(.bss)
    .bss                                     0x20000824   Section       96  libspace.o(.bss)
    HEAP                                     0x20000888   Section      512  startup_stm32f10x_hd.o(HEAP)
    Heap_Mem                                 0x20000888   Data         512  startup_stm32f10x_hd.o(HEAP)
    STACK                                    0x20000a88   Section     1024  startup_stm32f10x_hd.o(STACK)
    Stack_Mem                                0x20000a88   Data        1024  startup_stm32f10x_hd.o(STACK)
    __initial_sp                             0x20000e88   Data           0  startup_stm32f10x_hd.o(STACK)

    Global Symbols

    Symbol Name                              Value     Ov Type        Size  Object(Section)

    BuildAttributes$$THM_ISAv4$P$D$K$B$S$PE$A:L22UL41UL21$X:L11$S22US41US21$IEEE1$IW$USESV6$~STKCKD$USESV7$~SHL$OTIME$ROPI$IEEEJ$EBA8$UX$STANDARDLIB$REQ8$PRES8$EABIv2 0x00000000   Number         0  anon$$obj.o ABSOLUTE
    __ARM_use_no_argv                        0x00000000   Number         0  main.o ABSOLUTE
    _printf_flags                            0x00000000   Number         0  printf_stubs.o ABSOLUTE
    _printf_return_value                     0x00000000   Number         0  printf_stubs.o ABSOLUTE
    _printf_sizespec                         0x00000000   Number         0  printf_stubs.o ABSOLUTE
    _printf_widthprec                        0x00000000   Number         0  printf_stubs.o ABSOLUTE
    __ARM_exceptions_init                     - Undefined Weak Reference
    __alloca_initialize                       - Undefined Weak Reference
    __arm_preinit_                            - Undefined Weak Reference
    __cpp_initialize__aeabi_                  - Undefined Weak Reference
    __cxa_finalize                            - Undefined Weak Reference
    __sigvec_lookup                           - Undefined Weak Reference
    _atexit_init                              - Undefined Weak Reference
    _call_atexit_fns                          - Undefined Weak Reference
    _clock_init                               - Undefined Weak Reference
    _fp_trap_init                             - Undefined Weak Reference
    _fp_trap_shutdown                         - Undefined Weak Reference
    _get_lc_collate                           - Undefined Weak Reference
    _get_lc_monetary                          - Undefined Weak Reference
    _get_lc_time                              - Undefined Weak Reference
    _getenv_init                              - Undefined Weak Reference
    _handle_redirection                       - Undefined Weak Reference
    _init_alloc                               - Undefined Weak Reference
    _init_user_alloc                          - Undefined Weak Reference
    _initio                                   - Undefined Weak Reference
    _mutex_acquire                            - Undefined Weak Reference
    _mutex_release                            - Undefined Weak Reference
    _printf_mbtowc                            - Undefined Weak Reference
    _printf_wc                                - Undefined Weak Reference
    _rand_init                                - Undefined Weak Reference
    _signal_finish                            - Undefined Weak Reference
    _signal_init                              - Undefined Weak Reference
    _terminate_alloc                          - Undefined Weak Reference
    _terminate_user_alloc                     - Undefined Weak Reference
    _terminateio                              - Undefined Weak Reference
    __Vectors_Size                           0x00000130   Number         0  startup_stm32f10x_hd.o ABSOLUTE
    __Vectors                                0x08005000   Data           4  startup_stm32f10x_hd.o(RESET)
    __Vectors_End                            0x08005130   Data           0  startup_stm32f10x_hd.o(RESET)
    __main                                   0x08005131   Thumb Code     8  __main.o(!!!main)
    __scatterload                            0x08005139   Thumb Code     0  __scatter.o(!!!scatter)
    __scatterload_rt2                        0x08005139   Thumb Code    44  __scatter.o(!!!scatter)
    __scatterload_rt2_thumb_only             0x08005139   Thumb Code     0  __scatter.o(!!!scatter)
    __scatterload_null                       0x08005147   Thumb Code     0  __scatter.o(!!!scatter)
    __scatterload_copy                       0x0800516d   Thumb Code    26  __scatter_copy.o(!!handler_copy)
    __scatterload_zeroinit                   0x08005189   Thumb Code    28  __scatter_zi.o(!!handler_zi)
    _printf_n                                0x080051a5   Thumb Code     0  _printf_n.o(.ARM.Collect$$_printf_percent$$00000001)
    _printf_percent                          0x080051a5   Thumb Code     0  _printf_percent.o(.ARM.Collect$$_printf_percent$$00000000)
    _printf_p                                0x080051ab   Thumb Code     0  _printf_p.o(.ARM.Collect$$_printf_percent$$00000002)
    _printf_f                                0x080051b1   Thumb Code     0  _printf_f.o(.ARM.Collect$$_printf_percent$$00000003)
    _printf_e                                0x080051b7   Thumb Code     0  _printf_e.o(.ARM.Collect$$_printf_percent$$00000004)
    _printf_g                                0x080051bd   Thumb Code     0  _printf_g.o(.ARM.Collect$$_printf_percent$$00000005)
    _printf_a                                0x080051c3   Thumb Code     0  _printf_a.o(.ARM.Collect$$_printf_percent$$00000006)
    _printf_ll                               0x080051c9   Thumb Code     0  _printf_ll.o(.ARM.Collect$$_printf_percent$$00000007)
    _printf_i                                0x080051d3   Thumb Code     0  _printf_i.o(.ARM.Collect$$_printf_percent$$00000008)
    _printf_d                                0x080051d9   Thumb Code     0  _printf_d.o(.ARM.Collect$$_printf_percent$$00000009)
    _printf_u                                0x080051df   Thumb Code     0  _printf_u.o(.ARM.Collect$$_printf_percent$$0000000A)
    _printf_o                                0x080051e5   Thumb Code     0  _printf_o.o(.ARM.Collect$$_printf_percent$$0000000B)
    _printf_x                                0x080051eb   Thumb Code     0  _printf_x.o(.ARM.Collect$$_printf_percent$$0000000C)
    _printf_lli                              0x080051f1   Thumb Code     0  _printf_lli.o(.ARM.Collect$$_printf_percent$$0000000D)
    _printf_lld                              0x080051f7   Thumb Code     0  _printf_lld.o(.ARM.Collect$$_printf_percent$$0000000E)
    _printf_llu                              0x080051fd   Thumb Code     0  _printf_llu.o(.ARM.Collect$$_printf_percent$$0000000F)
    _printf_llo                              0x08005203   Thumb Code     0  _printf_llo.o(.ARM.Collect$$_printf_percent$$00000010)
    _printf_llx                              0x08005209   Thumb Code     0  _printf_llx.o(.ARM.Collect$$_printf_percent$$00000011)
    _printf_l                                0x0800520f   Thumb Code     0  _printf_l.o(.ARM.Collect$$_printf_percent$$00000012)
    _printf_c                                0x08005219   Thumb Code     0  _printf_c.o(.ARM.Collect$$_printf_percent$$00000013)
    _printf_s                                0x0800521f   Thumb Code     0  _printf_s.o(.ARM.Collect$$_printf_percent$$00000014)
    _printf_lc                               0x08005225   Thumb Code     0  _printf_lc.o(.ARM.Collect$$_printf_percent$$00000015)
    _printf_ls                               0x0800522b   Thumb Code     0  _printf_ls.o(.ARM.Collect$$_printf_percent$$00000016)
    _printf_percent_end                      0x08005231   Thumb Code     0  _printf_percent_end.o(.ARM.Collect$$_printf_percent$$00000017)
    __rt_lib_init                            0x08005235   Thumb Code     0  libinit.o(.ARM.Collect$$libinit$$00000000)
    __rt_lib_init_fp_1                       0x08005237   Thumb Code     0  libinit2.o(.ARM.Collect$$libinit$$00000002)
    __rt_lib_init_heap_1                     0x08005237   Thumb Code     0  libinit2.o(.ARM.Collect$$libinit$$0000000A)
    __rt_lib_init_lc_common                  0x08005237   Thumb Code     0  libinit2.o(.ARM.Collect$$libinit$$0000000F)
    __rt_lib_init_preinit_1                  0x08005237   Thumb Code     0  libinit2.o(.ARM.Collect$$libinit$$00000004)
    __rt_lib_init_rand_1                     0x08005237   Thumb Code     0  libinit2.o(.ARM.Collect$$libinit$$0000000E)
    __rt_lib_init_user_alloc_1               0x08005237   Thumb Code     0  libinit2.o(.ARM.Collect$$libinit$$0000000C)
    __rt_lib_init_lc_collate_1               0x0800523d   Thumb Code     0  libinit2.o(.ARM.Collect$$libinit$$00000011)
    __rt_lib_init_lc_ctype_2                 0x0800523d   Thumb Code     0  libinit2.o(.ARM.Collect$$libinit$$00000012)
    __rt_lib_init_lc_ctype_1                 0x08005249   Thumb Code     0  libinit2.o(.ARM.Collect$$libinit$$00000013)
    __rt_lib_init_lc_monetary_1              0x08005249   Thumb Code     0  libinit2.o(.ARM.Collect$$libinit$$00000015)
    __rt_lib_init_lc_numeric_2               0x08005249   Thumb Code     0  libinit2.o(.ARM.Collect$$libinit$$00000016)
    __rt_lib_init_alloca_1                   0x08005253   Thumb Code     0  libinit2.o(.ARM.Collect$$libinit$$0000002E)
    __rt_lib_init_argv_1                     0x08005253   Thumb Code     0  libinit2.o(.ARM.Collect$$libinit$$0000002C)
    __rt_lib_init_atexit_1                   0x08005253   Thumb Code     0  libinit2.o(.ARM.Collect$$libinit$$0000001B)
    __rt_lib_init_clock_1                    0x08005253   Thumb Code     0  libinit2.o(.ARM.Collect$$libinit$$00000021)
    __rt_lib_init_cpp_1                      0x08005253   Thumb Code     0  libinit2.o(.ARM.Collect$$libinit$$00000032)
    __rt_lib_init_exceptions_1               0x08005253   Thumb Code     0  libinit2.o(.ARM.Collect$$libinit$$00000030)
    __rt_lib_init_fp_trap_1                  0x08005253   Thumb Code     0  libinit2.o(.ARM.Collect$$libinit$$0000001F)
    __rt_lib_init_getenv_1                   0x08005253   Thumb Code     0  libinit2.o(.ARM.Collect$$libinit$$00000023)
    __rt_lib_init_lc_numeric_1               0x08005253   Thumb Code     0  libinit2.o(.ARM.Collect$$libinit$$00000017)
    __rt_lib_init_lc_time_1                  0x08005253   Thumb Code     0  libinit2.o(.ARM.Collect$$libinit$$00000019)
    __rt_lib_init_return                     0x08005253   Thumb Code     0  libinit2.o(.ARM.Collect$$libinit$$00000033)
    __rt_lib_init_signal_1                   0x08005253   Thumb Code     0  libinit2.o(.ARM.Collect$$libinit$$0000001D)
    __rt_lib_init_stdio_1                    0x08005253   Thumb Code     0  libinit2.o(.ARM.Collect$$libinit$$00000025)
    __rt_lib_shutdown                        0x08005255   Thumb Code     0  libshutdown.o(.ARM.Collect$$libshutdown$$00000000)
    __rt_lib_shutdown_cpp_1                  0x08005257   Thumb Code     0  libshutdown2.o(.ARM.Collect$$libshutdown$$00000002)
    __rt_lib_shutdown_fp_trap_1              0x08005257   Thumb Code     0  libshutdown2.o(.ARM.Collect$$libshutdown$$00000007)
    __rt_lib_shutdown_heap_1                 0x08005257   Thumb Code     0  libshutdown2.o(.ARM.Collect$$libshutdown$$0000000F)
    __rt_lib_shutdown_return                 0x08005257   Thumb Code     0  libshutdown2.o(.ARM.Collect$$libshutdown$$00000010)
    __rt_lib_shutdown_signal_1               0x08005257   Thumb Code     0  libshutdown2.o(.ARM.Collect$$libshutdown$$0000000A)
    __rt_lib_shutdown_stdio_1                0x08005257   Thumb Code     0  libshutdown2.o(.ARM.Collect$$libshutdown$$00000004)
    __rt_lib_shutdown_user_alloc_1           0x08005257   Thumb Code     0  libshutdown2.o(.ARM.Collect$$libshutdown$$0000000C)
    __rt_entry                               0x08005259   Thumb Code     0  __rtentry.o(.ARM.Collect$$rtentry$$00000000)
    __rt_entry_presh_1                       0x08005259   Thumb Code     0  __rtentry2.o(.ARM.Collect$$rtentry$$00000002)
    __rt_entry_sh                            0x08005259   Thumb Code     0  __rtentry4.o(.ARM.Collect$$rtentry$$00000004)
    __rt_entry_li                            0x0800525f   Thumb Code     0  __rtentry2.o(.ARM.Collect$$rtentry$$0000000A)
    __rt_entry_postsh_1                      0x0800525f   Thumb Code     0  __rtentry2.o(.ARM.Collect$$rtentry$$00000009)
    __rt_entry_main                          0x08005263   Thumb Code     0  __rtentry2.o(.ARM.Collect$$rtentry$$0000000D)
    __rt_entry_postli_1                      0x08005263   Thumb Code     0  __rtentry2.o(.ARM.Collect$$rtentry$$0000000C)
    __rt_exit                                0x0800526b   Thumb Code     0  rtexit.o(.ARM.Collect$$rtexit$$00000000)
    __rt_exit_ls                             0x0800526d   Thumb Code     0  rtexit2.o(.ARM.Collect$$rtexit$$00000003)
    __rt_exit_prels_1                        0x0800526d   Thumb Code     0  rtexit2.o(.ARM.Collect$$rtexit$$00000002)
    __rt_exit_exit                           0x08005271   Thumb Code     0  rtexit2.o(.ARM.Collect$$rtexit$$00000004)
    Reset_Handler                            0x08005279   Thumb Code     8  startup_stm32f10x_hd.o(.text)
    ADC1_2_IRQHandler                        0x08005293   Thumb Code     0  startup_stm32f10x_hd.o(.text)
    ADC3_IRQHandler                          0x08005293   Thumb Code     0  startup_stm32f10x_hd.o(.text)
    CAN1_RX1_IRQHandler                      0x08005293   Thumb Code     0  startup_stm32f10x_hd.o(.text)
    CAN1_SCE_IRQHandler                      0x08005293   Thumb Code     0  startup_stm32f10x_hd.o(.text)
    DMA1_Channel1_IRQHandler                 0x08005293   Thumb Code     0  startup_stm32f10x_hd.o(.text)
    DMA1_Channel2_IRQHandler                 0x08005293   Thumb Code     0  startup_stm32f10x_hd.o(.text)
    DMA1_Channel3_IRQHandler                 0x08005293   Thumb Code     0  startup_stm32f10x_hd.o(.text)
    DMA1_Channel4_IRQHandler                 0x08005293   Thumb Code     0  startup_stm32f10x_hd.o(.text)
    DMA1_Channel5_IRQHandler                 0x08005293   Thumb Code     0  startup_stm32f10x_hd.o(.text)
    DMA1_Channel6_IRQHandler                 0x08005293   Thumb Code     0  startup_stm32f10x_hd.o(.text)
    DMA1_Channel7_IRQHandler                 0x08005293   Thumb Code     0  startup_stm32f10x_hd.o(.text)
    DMA2_Channel1_IRQHandler                 0x08005293   Thumb Code     0  startup_stm32f10x_hd.o(.text)
    DMA2_Channel2_IRQHandler                 0x08005293   Thumb Code     0  startup_stm32f10x_hd.o(.text)
    DMA2_Channel3_IRQHandler                 0x08005293   Thumb Code     0  startup_stm32f10x_hd.o(.text)
    DMA2_Channel4_5_IRQHandler               0x08005293   Thumb Code     0  startup_stm32f10x_hd.o(.text)
    EXTI0_IRQHandler                         0x08005293   Thumb Code     0  startup_stm32f10x_hd.o(.text)
    EXTI15_10_IRQHandler                     0x08005293   Thumb Code     0  startup_stm32f10x_hd.o(.text)
    EXTI1_IRQHandler                         0x08005293   Thumb Code     0  startup_stm32f10x_hd.o(.text)
    EXTI2_IRQHandler                         0x08005293   Thumb Code     0  startup_stm32f10x_hd.o(.text)
    EXTI3_IRQHandler                         0x08005293   Thumb Code     0  startup_stm32f10x_hd.o(.text)
    EXTI4_IRQHandler                         0x08005293   Thumb Code     0  startup_stm32f10x_hd.o(.text)
    EXTI9_5_IRQHandler                       0x08005293   Thumb Code     0  startup_stm32f10x_hd.o(.text)
    FLASH_IRQHandler                         0x08005293   Thumb Code     0  startup_stm32f10x_hd.o(.text)
    FSMC_IRQHandler                          0x08005293   Thumb Code     0  startup_stm32f10x_hd.o(.text)
    I2C1_ER_IRQHandler                       0x08005293   Thumb Code     0  startup_stm32f10x_hd.o(.text)
    I2C1_EV_IRQHandler                       0x08005293   Thumb Code     0  startup_stm32f10x_hd.o(.text)
    I2C2_ER_IRQHandler                       0x08005293   Thumb Code     0  startup_stm32f10x_hd.o(.text)
    I2C2_EV_IRQHandler                       0x08005293   Thumb Code     0  startup_stm32f10x_hd.o(.text)
    PVD_IRQHandler                           0x08005293   Thumb Code     0  startup_stm32f10x_hd.o(.text)
    RCC_IRQHandler                           0x08005293   Thumb Code     0  startup_stm32f10x_hd.o(.text)
    RTCAlarm_IRQHandler                      0x08005293   Thumb Code     0  startup_stm32f10x_hd.o(.text)
    RTC_IRQHandler                           0x08005293   Thumb Code     0  startup_stm32f10x_hd.o(.text)
    SDIO_IRQHandler                          0x08005293   Thumb Code     0  startup_stm32f10x_hd.o(.text)
    SPI1_IRQHandler                          0x08005293   Thumb Code     0  startup_stm32f10x_hd.o(.text)
    SPI2_IRQHandler                          0x08005293   Thumb Code     0  startup_stm32f10x_hd.o(.text)
    SPI3_IRQHandler                          0x08005293   Thumb Code     0  startup_stm32f10x_hd.o(.text)
    TAMPER_IRQHandler                        0x08005293   Thumb Code     0  startup_stm32f10x_hd.o(.text)
    TIM1_BRK_IRQHandler                      0x08005293   Thumb Code     0  startup_stm32f10x_hd.o(.text)
    TIM1_CC_IRQHandler                       0x08005293   Thumb Code     0  startup_stm32f10x_hd.o(.text)
    TIM1_TRG_COM_IRQHandler                  0x08005293   Thumb Code     0  startup_stm32f10x_hd.o(.text)
    TIM1_UP_IRQHandler                       0x08005293   Thumb Code     0  startup_stm32f10x_hd.o(.text)
    TIM2_IRQHandler                          0x08005293   Thumb Code     0  startup_stm32f10x_hd.o(.text)
    TIM3_IRQHandler                          0x08005293   Thumb Code     0  startup_stm32f10x_hd.o(.text)
    TIM4_IRQHandler                          0x08005293   Thumb Code     0  startup_stm32f10x_hd.o(.text)
    TIM5_IRQHandler                          0x08005293   Thumb Code     0  startup_stm32f10x_hd.o(.text)
    TIM6_IRQHandler                          0x08005293   Thumb Code     0  startup_stm32f10x_hd.o(.text)
    TIM7_IRQHandler                          0x08005293   Thumb Code     0  startup_stm32f10x_hd.o(.text)
    TIM8_BRK_IRQHandler                      0x08005293   Thumb Code     0  startup_stm32f10x_hd.o(.text)
    TIM8_CC_IRQHandler                       0x08005293   Thumb Code     0  startup_stm32f10x_hd.o(.text)
    TIM8_TRG_COM_IRQHandler                  0x08005293   Thumb Code     0  startup_stm32f10x_hd.o(.text)
    TIM8_UP_IRQHandler                       0x08005293   Thumb Code     0  startup_stm32f10x_hd.o(.text)
    UART4_IRQHandler                         0x08005293   Thumb Code     0  startup_stm32f10x_hd.o(.text)
    UART5_IRQHandler                         0x08005293   Thumb Code     0  startup_stm32f10x_hd.o(.text)
    USBWakeUp_IRQHandler                     0x08005293   Thumb Code     0  startup_stm32f10x_hd.o(.text)
    USB_HP_CAN1_TX_IRQHandler                0x08005293   Thumb Code     0  startup_stm32f10x_hd.o(.text)
    USB_LP_CAN1_RX0_IRQHandler               0x08005293   Thumb Code     0  startup_stm32f10x_hd.o(.text)
    WWDG_IRQHandler                          0x08005293   Thumb Code     0  startup_stm32f10x_hd.o(.text)
    __user_initial_stackheap                 0x08005295   Thumb Code     0  startup_stm32f10x_hd.o(.text)
    __use_no_semihosting                     0x080052b9   Thumb Code     2  use_no_semi_2.o(.text)
    __aeabi_uldivmod                         0x080052bb   Thumb Code     0  lludivv7m.o(.text)
    _ll_udiv                                 0x080052bb   Thumb Code   238  lludivv7m.o(.text)
    vsnprintf                                0x080053a9   Thumb Code    48  vsnprintf.o(.text)
    __2printf                                0x080053dd   Thumb Code    20  __2printf.o(.text)
    _printf_str                              0x080053f5   Thumb Code    82  _printf_str.o(.text)
    _printf_int_dec                          0x08005449   Thumb Code   104  _printf_dec.o(.text)
    _printf_longlong_dec                     0x080054c1   Thumb Code   108  _printf_longlong_dec.o(.text)
    __printf                                 0x0800553d   Thumb Code   388  __printf_flags_ss_wp.o(.text)
    __use_two_region_memory                  0x080056c5   Thumb Code     2  heapauxi.o(.text)
    __rt_heap_escrow$2region                 0x080056c7   Thumb Code     2  heapauxi.o(.text)
    __rt_heap_expand$2region                 0x080056c9   Thumb Code     2  heapauxi.o(.text)
    __I$use$semihosting                      0x080056cb   Thumb Code     0  use_no_semi.o(.text)
    __use_no_semihosting_swi                 0x080056cb   Thumb Code     2  use_no_semi.o(.text)
    _ll_udiv10                               0x080056cd   Thumb Code   138  lludiv10.o(.text)
    _printf_pre_padding                      0x08005757   Thumb Code    44  _printf_pad.o(.text)
    _printf_post_padding                     0x08005783   Thumb Code    34  _printf_pad.o(.text)
    _printf_truncate_signed                  0x080057a5   Thumb Code    18  _printf_truncate.o(.text)
    _printf_truncate_unsigned                0x080057b7   Thumb Code    18  _printf_truncate.o(.text)
    _printf_int_common                       0x080057c9   Thumb Code   178  _printf_intcommon.o(.text)
    _printf_charcount                        0x0800587b   Thumb Code    40  _printf_charcount.o(.text)
    _printf_char_common                      0x080058af   Thumb Code    32  _printf_char_common.o(.text)
    _sputc                                   0x080058d5   Thumb Code    10  _sputc.o(.text)
    _snputc                                  0x080058df   Thumb Code    16  _snputc.o(.text)
    _printf_cs_common                        0x080058ef   Thumb Code    20  _printf_char.o(.text)
    _printf_char                             0x08005903   Thumb Code    16  _printf_char.o(.text)
    _printf_string                           0x08005913   Thumb Code     8  _printf_char.o(.text)
    _printf_char_file                        0x0800591d   Thumb Code    32  _printf_char_file.o(.text)
    _printf_wctomb                           0x08005941   Thumb Code   182  _printf_wctomb.o(.text)
    _printf_longlong_oct                     0x080059fd   Thumb Code    66  _printf_oct_int_ll.o(.text)
    _printf_int_oct                          0x08005a3f   Thumb Code    24  _printf_oct_int_ll.o(.text)
    _printf_ll_oct                           0x08005a57   Thumb Code    12  _printf_oct_int_ll.o(.text)
    _printf_longlong_hex                     0x08005a6d   Thumb Code    86  _printf_hex_int_ll_ptr.o(.text)
    _printf_int_hex                          0x08005ac3   Thumb Code    28  _printf_hex_int_ll_ptr.o(.text)
    _printf_ll_hex                           0x08005adf   Thumb Code    12  _printf_hex_int_ll_ptr.o(.text)
    _printf_hex_ptr                          0x08005aeb   Thumb Code    18  _printf_hex_int_ll_ptr.o(.text)
    __lib_sel_fp_printf                      0x08005b01   Thumb Code     2  _printf_fp_dec.o(.text)
    _printf_fp_dec_real                      0x08005cb3   Thumb Code   620  _printf_fp_dec.o(.text)
    _printf_fp_hex_real                      0x08005f21   Thumb Code   756  _printf_fp_hex.o(.text)
    _printf_lcs_common                       0x0800621d   Thumb Code    20  _printf_wchar.o(.text)
    _printf_wchar                            0x08006231   Thumb Code    16  _printf_wchar.o(.text)
    _printf_wstring                          0x08006241   Thumb Code     8  _printf_wchar.o(.text)
    ferror                                   0x08006249   Thumb Code     8  ferror.o(.text)
    _wcrtomb                                 0x08006251   Thumb Code    64  _wcrtomb.o(.text)
    __user_setup_stackheap                   0x08006291   Thumb Code    74  sys_stackheap_outer.o(.text)
    __rt_ctype_table                         0x080062dd   Thumb Code    16  rt_ctype_table.o(.text)
    __rt_locale                              0x080062ed   Thumb Code     8  rt_locale_intlibspace.o(.text)
    _printf_fp_infnan                        0x080062f5   Thumb Code   112  _printf_fp_infnan.o(.text)
    _btod_etento                             0x08006375   Thumb Code   224  bigflt0.o(.text)
    exit                                     0x08006459   Thumb Code    18  exit.o(.text)
    __user_libspace                          0x0800646d   Thumb Code     8  libspace.o(.text)
    __user_perproc_libspace                  0x0800646d   Thumb Code     0  libspace.o(.text)
    __user_perthread_libspace                0x0800646d   Thumb Code     0  libspace.o(.text)
    strcmp                                   0x08006475   Thumb Code   128  strcmpv7m.o(.text)
    _btod_d2e                                0x080064f5   Thumb Code    62  btod.o(CL$$btod_d2e)
    _d2e_denorm_low                          0x08006533   Thumb Code    70  btod.o(CL$$btod_d2e_denorm_low)
    _d2e_norm_op1                            0x08006579   Thumb Code    96  btod.o(CL$$btod_d2e_norm_op1)
    __btod_div_common                        0x080065d9   Thumb Code   696  btod.o(CL$$btod_div_common)
    _e2e                                     0x08006911   Thumb Code   220  btod.o(CL$$btod_e2e)
    _btod_ediv                               0x080069ed   Thumb Code    42  btod.o(CL$$btod_ediv)
    _btod_emul                               0x08006a17   Thumb Code    42  btod.o(CL$$btod_emul)
    __btod_mult_common                       0x08006a41   Thumb Code   580  btod.o(CL$$btod_mult_common)
    BKP_TamperPinCmd                         0x08006c85   Thumb Code    26  stm32f10x_bkp.o(i.BKP_TamperPinCmd)
    BTN1_DOUBLE_Click_Handler                0x08006cc9   Thumb Code     6  multi_button.o(i.BTN1_DOUBLE_Click_Handler)
    BTN1_LONG_PRESS_HOLD_Handler             0x08006ce9   Thumb Code     6  multi_button.o(i.BTN1_LONG_PRESS_HOLD_Handler)
    BTN1_LONG_RRESS_START_Handler            0x08006d0d   Thumb Code     6  multi_button.o(i.BTN1_LONG_RRESS_START_Handler)
    BTN1_PRESS_DOWN_Handler                  0x08006d31   Thumb Code     6  multi_button.o(i.BTN1_PRESS_DOWN_Handler)
    BTN1_PRESS_REPEAT_Handler                0x08006d51   Thumb Code    14  multi_button.o(i.BTN1_PRESS_REPEAT_Handler)
    BTN1_PRESS_UP_Handler                    0x08006d81   Thumb Code     6  multi_button.o(i.BTN1_PRESS_UP_Handler)
    BTN1_SINGLE_Click_Handler                0x08006d9d   Thumb Code     6  multi_button.o(i.BTN1_SINGLE_Click_Handler)
    BusFault_Handler                         0x08006dbd   Thumb Code     2  stm32f10x_it.o(i.BusFault_Handler)
    Button_Handler                           0x08006dbf   Thumb Code   474  multi_button.o(i.Button_Handler)
    Button_Ticks                             0x08006f99   Thumb Code    26  multi_button.o(i.Button_Ticks)
    DebugMon_Handler                         0x08006fb9   Thumb Code     2  stm32f10x_it.o(i.DebugMon_Handler)
    GPIO_Init                                0x08006fbd   Thumb Code   328  stm32f10x_gpio.o(i.GPIO_Init)
    GPIO_PinRemapConfig                      0x0800712d   Thumb Code   462  stm32f10x_gpio.o(i.GPIO_PinRemapConfig)
    GPIO_ReadInputDataBit                    0x0800735d   Thumb Code   188  stm32f10x_gpio.o(i.GPIO_ReadInputDataBit)
    HardFault_Handler                        0x08007441   Thumb Code     2  stm32f10x_it.o(i.HardFault_Handler)
    KEY_Scan                                 0x08007445   Thumb Code    82  key.o(i.KEY_Scan)
    Key_Scan_Init                            0x080074a1   Thumb Code    28  key.o(i.Key_Scan_Init)
    Led_Init                                 0x080074c5   Thumb Code    58  key.o(i.Led_Init)
    MemManage_Handler                        0x08007505   Thumb Code     2  stm32f10x_it.o(i.MemManage_Handler)
    Multi_Button_Init                        0x08007509   Thumb Code   138  multi_button.o(i.Multi_Button_Init)
    My_GPIO_Init                             0x080075c1   Thumb Code   188  sys.o(i.My_GPIO_Init)
    NMI_Handler                              0x0800767d   Thumb Code     2  stm32f10x_it.o(i.NMI_Handler)
    NVIC_Init                                0x08007681   Thumb Code   150  misc.o(i.NVIC_Init)
    NVIC_PriorityGroupConfig                 0x08007739   Thumb Code    56  misc.o(i.NVIC_PriorityGroupConfig)
    NVIC_SetVectorTable                      0x08007791   Thumb Code    58  misc.o(i.NVIC_SetVectorTable)
    PWR_BackupAccessCmd                      0x080077f1   Thumb Code    26  stm32f10x_pwr.o(i.PWR_BackupAccessCmd)
    PendSV_Handler                           0x08007835   Thumb Code     2  stm32f10x_it.o(i.PendSV_Handler)
    RCC_APB1PeriphClockCmd                   0x08007839   Thumb Code    58  stm32f10x_rcc.o(i.RCC_APB1PeriphClockCmd)
    RCC_APB2PeriphClockCmd                   0x080078a1   Thumb Code    58  stm32f10x_rcc.o(i.RCC_APB2PeriphClockCmd)
    RCC_GetClocksFreq                        0x08007909   Thumb Code   152  stm32f10x_rcc.o(i.RCC_GetClocksFreq)
    RCC_LSEConfig                            0x080079b5   Thumb Code    56  stm32f10x_rcc.o(i.RCC_LSEConfig)
    Read_Button1_GPIO                        0x08007a15   Thumb Code    10  multi_button.o(i.Read_Button1_GPIO)
    SVC_Handler                              0x08007a25   Thumb Code     2  stm32f10x_it.o(i.SVC_Handler)
    SoftTimer_Init                           0x08007a29   Thumb Code    88  soft_timer.o(i.SoftTimer_Init)
    SoftTimer_Update                         0x08007a95   Thumb Code   120  soft_timer.o(i.SoftTimer_Update)
    SysTick_CLKSourceConfig                  0x08007b31   Thumb Code    42  misc.o(i.SysTick_CLKSourceConfig)
    SysTick_Callback                         0x08007b79   Thumb Code   108  systick.o(i.SysTick_Callback)
    SysTick_Handler                          0x08007bf9   Thumb Code    20  delay.o(i.SysTick_Handler)
    SystemInit                               0x08007c11   Thumb Code   222  system_stm32f10x.o(i.SystemInit)
    USART1_IRQHandler                        0x08007d01   Thumb Code   168  usart1.o(i.USART1_IRQHandler)
    USART1_Init                              0x08007db5   Thumb Code   246  usart1.o(i.USART1_Init)
    USART1_printf                            0x08007ec9   Thumb Code    86  usart1.o(i.USART1_printf)
    USART2_IRQHandler                        0x08007f29   Thumb Code   166  usart2.o(i.USART2_IRQHandler)
    USART2_Init                              0x08007fdd   Thumb Code   242  usart2.o(i.USART2_Init)
    USART2_printf                            0x080080ed   Thumb Code    86  usart2.o(i.USART2_printf)
    USART3_IRQHandler                        0x0800814d   Thumb Code   166  usart3.o(i.USART3_IRQHandler)
    USART3_Init                              0x08008201   Thumb Code   246  usart3.o(i.USART3_Init)
    USART3_printf                            0x08008315   Thumb Code    86  usart3.o(i.USART3_printf)
    USART_ClearFlag                          0x08008375   Thumb Code   110  stm32f10x_usart.o(i.USART_ClearFlag)
    USART_Cmd                                0x08008419   Thumb Code   100  stm32f10x_usart.o(i.USART_Cmd)
    USART_GetFlagStatus                      0x080084a5   Thumb Code   148  stm32f10x_usart.o(i.USART_GetFlagStatus)
    USART_GetITStatus                        0x0800856d   Thumb Code   224  stm32f10x_usart.o(i.USART_GetITStatus)
    USART_ITConfig                           0x08008681   Thumb Code   228  stm32f10x_usart.o(i.USART_ITConfig)
    USART_Init                               0x08008799   Thumb Code   392  stm32f10x_usart.o(i.USART_Init)
    USART_ReceiveData                        0x0800895d   Thumb Code    70  stm32f10x_usart.o(i.USART_ReceiveData)
    USART_SendData                           0x080089cd   Thumb Code    88  stm32f10x_usart.o(i.USART_SendData)
    UsageFault_Handler                       0x08008a4d   Thumb Code     2  stm32f10x_it.o(i.UsageFault_Handler)
    __ARM_fpclassify                         0x08008a4f   Thumb Code    40  fpclassify.o(i.__ARM_fpclassify)
    _is_digit                                0x08008a77   Thumb Code    14  __printf_wp.o(i._is_digit)
    _sys_exit                                0x08008a85   Thumb Code     2  sys.o(i._sys_exit)
    assert_failed                            0x08008a89   Thumb Code    10  sys.o(i.assert_failed)
    callback0                                0x08008ab1   Thumb Code    44  soft_timer.o(i.callback0)
    callback1                                0x08008aed   Thumb Code     6  soft_timer.o(i.callback1)
    delay_init                               0x08008afd   Thumb Code    96  delay.o(i.delay_init)
    fputc                                    0x08008b71   Thumb Code    42  sys.o(i.fputc)
    main                                     0x08008ba1   Thumb Code   310  main.o(i.main)
    _get_lc_numeric                          0x08008d9d   Thumb Code    44  lc_numeric_c.o(locale$$code)
    _get_lc_ctype                            0x08008dc9   Thumb Code    44  lc_ctype_c.o(locale$$code)
    _printf_fp_dec                           0x08008df5   Thumb Code     4  printf1.o(x$fpl$printf1)
    _printf_fp_hex                           0x08008df9   Thumb Code     4  printf2.o(x$fpl$printf2)
    __I$use$fp                               0x08008dfc   Number         0  usenofp.o(x$fpl$usenofp)
    Region$$Table$$Base                      0x08008efc   Number         0  anon$$obj.o(Region$$Table)
    Region$$Table$$Limit                     0x08008f1c   Number         0  anon$$obj.o(Region$$Table)
    __ctype                                  0x08008f45   Data           0  lc_ctype_c.o(locale$$data)
    __stdout                                 0x20000000   Data           4  sys.o(.data)
    xitong_haomiao                           0x20000010   Data           8  delay.o(.data)
    USART1_RX_STA                            0x20000018   Data           2  usart1.o(.data)
    USART2_RX_STA                            0x2000001a   Data           2  usart2.o(.data)
    USART3_RX_STA                            0x2000001c   Data           2  usart3.o(.data)
    SystemCoreClock                          0x20000020   Data           4  system_stm32f10x.o(.data)
    AHBPrescTable                            0x20000024   Data          16  system_stm32f10x.o(.data)
    SoftTimer_Init_Flag                      0x20000048   Data           1  soft_timer.o(.data)
    data_data                                0x20000049   Data          10  soft_timer.o(.data)
    Key_Scan_Init_Flag                       0x20000053   Data           1  key.o(.data)
    Key                                      0x20000056   Data           1  key.o(.data)
    Button_Init_Flag                         0x20000058   Data           1  multi_button.o(.data)
    USART1_TX_BUF                            0x20000060   Data         300  usart1.o(.bss)
    USART1_RX_BUF                            0x2000018c   Data         300  usart1.o(.bss)
    USART2_TX_BUF                            0x200002b8   Data         600  usart2.o(.bss)
    USART2_RX_BUF                            0x20000510   Data         200  usart2.o(.bss)
    USART3_TX_BUF                            0x200005d8   Data         300  usart3.o(.bss)
    USART3_RX_BUF                            0x20000704   Data         200  usart3.o(.bss)
    timer                                    0x200007cc   Data          48  soft_timer.o(.bss)
    Button1                                  0x200007fc   Data          40  multi_button.o(.bss)
    __libspace_start                         0x20000824   Data          96  libspace.o(.bss)
    __temporary_stack_top$libspace           0x20000884   Data           0  libspace.o(.bss)



==============================================================================

Memory Map of the image

  Image Entry point : 0x08005131

  Load Region LR_IROM1 (Base: 0x08005000, Size: 0x000040a8, Max: 0x0007b000, ABSOLUTE)

    Execution Region ER_IROM1 (Exec base: 0x08005000, Load base: 0x08005000, Size: 0x00004048, Max: 0x0007b000, ABSOLUTE)

    Exec Addr    Load Addr    Size         Type   Attr      Idx    E Section Name        Object

    0x08005000   0x08005000   0x00000130   Data   RO          513    RESET               startup_stm32f10x_hd.o
    0x08005130   0x08005130   0x00000008   Code   RO         3814  * !!!main             c_w.l(__main.o)
    0x08005138   0x08005138   0x00000034   Code   RO         4117    !!!scatter          c_w.l(__scatter.o)
    0x0800516c   0x0800516c   0x0000001a   Code   RO         4119    !!handler_copy      c_w.l(__scatter_copy.o)
    0x08005186   0x08005186   0x00000002   PAD
    0x08005188   0x08005188   0x0000001c   Code   RO         4121    !!handler_zi        c_w.l(__scatter_zi.o)
    0x080051a4   0x080051a4   0x00000000   Code   RO         3810    .ARM.Collect$$_printf_percent$$00000000  c_w.l(_printf_percent.o)
    0x080051a4   0x080051a4   0x00000006   Code   RO         3874    .ARM.Collect$$_printf_percent$$00000001  c_w.l(_printf_n.o)
    0x080051aa   0x080051aa   0x00000006   Code   RO         3876    .ARM.Collect$$_printf_percent$$00000002  c_w.l(_printf_p.o)
    0x080051b0   0x080051b0   0x00000006   Code   RO         3880    .ARM.Collect$$_printf_percent$$00000003  c_w.l(_printf_f.o)
    0x080051b6   0x080051b6   0x00000006   Code   RO         3881    .ARM.Collect$$_printf_percent$$00000004  c_w.l(_printf_e.o)
    0x080051bc   0x080051bc   0x00000006   Code   RO         3882    .ARM.Collect$$_printf_percent$$00000005  c_w.l(_printf_g.o)
    0x080051c2   0x080051c2   0x00000006   Code   RO         3883    .ARM.Collect$$_printf_percent$$00000006  c_w.l(_printf_a.o)
    0x080051c8   0x080051c8   0x0000000a   Code   RO         3887    .ARM.Collect$$_printf_percent$$00000007  c_w.l(_printf_ll.o)
    0x080051d2   0x080051d2   0x00000006   Code   RO         3878    .ARM.Collect$$_printf_percent$$00000008  c_w.l(_printf_i.o)
    0x080051d8   0x080051d8   0x00000006   Code   RO         3809    .ARM.Collect$$_printf_percent$$00000009  c_w.l(_printf_d.o)
    0x080051de   0x080051de   0x00000006   Code   RO         3879    .ARM.Collect$$_printf_percent$$0000000A  c_w.l(_printf_u.o)
    0x080051e4   0x080051e4   0x00000006   Code   RO         3877    .ARM.Collect$$_printf_percent$$0000000B  c_w.l(_printf_o.o)
    0x080051ea   0x080051ea   0x00000006   Code   RO         3875    .ARM.Collect$$_printf_percent$$0000000C  c_w.l(_printf_x.o)
    0x080051f0   0x080051f0   0x00000006   Code   RO         3885    .ARM.Collect$$_printf_percent$$0000000D  c_w.l(_printf_lli.o)
    0x080051f6   0x080051f6   0x00000006   Code   RO         3886    .ARM.Collect$$_printf_percent$$0000000E  c_w.l(_printf_lld.o)
    0x080051fc   0x080051fc   0x00000006   Code   RO         3811    .ARM.Collect$$_printf_percent$$0000000F  c_w.l(_printf_llu.o)
    0x08005202   0x08005202   0x00000006   Code   RO         3891    .ARM.Collect$$_printf_percent$$00000010  c_w.l(_printf_llo.o)
    0x08005208   0x08005208   0x00000006   Code   RO         3892    .ARM.Collect$$_printf_percent$$00000011  c_w.l(_printf_llx.o)
    0x0800520e   0x0800520e   0x0000000a   Code   RO         3888    .ARM.Collect$$_printf_percent$$00000012  c_w.l(_printf_l.o)
    0x08005218   0x08005218   0x00000006   Code   RO         3873    .ARM.Collect$$_printf_percent$$00000013  c_w.l(_printf_c.o)
    0x0800521e   0x0800521e   0x00000006   Code   RO         3808    .ARM.Collect$$_printf_percent$$00000014  c_w.l(_printf_s.o)
    0x08005224   0x08005224   0x00000006   Code   RO         3889    .ARM.Collect$$_printf_percent$$00000015  c_w.l(_printf_lc.o)
    0x0800522a   0x0800522a   0x00000006   Code   RO         3890    .ARM.Collect$$_printf_percent$$00000016  c_w.l(_printf_ls.o)
    0x08005230   0x08005230   0x00000004   Code   RO         3884    .ARM.Collect$$_printf_percent$$00000017  c_w.l(_printf_percent_end.o)
    0x08005234   0x08005234   0x00000002   Code   RO         3983    .ARM.Collect$$libinit$$00000000  c_w.l(libinit.o)
    0x08005236   0x08005236   0x00000000   Code   RO         4006    .ARM.Collect$$libinit$$00000002  c_w.l(libinit2.o)
    0x08005236   0x08005236   0x00000000   Code   RO         4008    .ARM.Collect$$libinit$$00000004  c_w.l(libinit2.o)
    0x08005236   0x08005236   0x00000000   Code   RO         4011    .ARM.Collect$$libinit$$0000000A  c_w.l(libinit2.o)
    0x08005236   0x08005236   0x00000000   Code   RO         4013    .ARM.Collect$$libinit$$0000000C  c_w.l(libinit2.o)
    0x08005236   0x08005236   0x00000000   Code   RO         4015    .ARM.Collect$$libinit$$0000000E  c_w.l(libinit2.o)
    0x08005236   0x08005236   0x00000006   Code   RO         4016    .ARM.Collect$$libinit$$0000000F  c_w.l(libinit2.o)
    0x0800523c   0x0800523c   0x00000000   Code   RO         4018    .ARM.Collect$$libinit$$00000011  c_w.l(libinit2.o)
    0x0800523c   0x0800523c   0x0000000c   Code   RO         4019    .ARM.Collect$$libinit$$00000012  c_w.l(libinit2.o)
    0x08005248   0x08005248   0x00000000   Code   RO         4020    .ARM.Collect$$libinit$$00000013  c_w.l(libinit2.o)
    0x08005248   0x08005248   0x00000000   Code   RO         4022    .ARM.Collect$$libinit$$00000015  c_w.l(libinit2.o)
    0x08005248   0x08005248   0x0000000a   Code   RO         4023    .ARM.Collect$$libinit$$00000016  c_w.l(libinit2.o)
    0x08005252   0x08005252   0x00000000   Code   RO         4024    .ARM.Collect$$libinit$$00000017  c_w.l(libinit2.o)
    0x08005252   0x08005252   0x00000000   Code   RO         4026    .ARM.Collect$$libinit$$00000019  c_w.l(libinit2.o)
    0x08005252   0x08005252   0x00000000   Code   RO         4028    .ARM.Collect$$libinit$$0000001B  c_w.l(libinit2.o)
    0x08005252   0x08005252   0x00000000   Code   RO         4030    .ARM.Collect$$libinit$$0000001D  c_w.l(libinit2.o)
    0x08005252   0x08005252   0x00000000   Code   RO         4032    .ARM.Collect$$libinit$$0000001F  c_w.l(libinit2.o)
    0x08005252   0x08005252   0x00000000   Code   RO         4034    .ARM.Collect$$libinit$$00000021  c_w.l(libinit2.o)
    0x08005252   0x08005252   0x00000000   Code   RO         4036    .ARM.Collect$$libinit$$00000023  c_w.l(libinit2.o)
    0x08005252   0x08005252   0x00000000   Code   RO         4038    .ARM.Collect$$libinit$$00000025  c_w.l(libinit2.o)
    0x08005252   0x08005252   0x00000000   Code   RO         4042    .ARM.Collect$$libinit$$0000002C  c_w.l(libinit2.o)
    0x08005252   0x08005252   0x00000000   Code   RO         4044    .ARM.Collect$$libinit$$0000002E  c_w.l(libinit2.o)
    0x08005252   0x08005252   0x00000000   Code   RO         4046    .ARM.Collect$$libinit$$00000030  c_w.l(libinit2.o)
    0x08005252   0x08005252   0x00000000   Code   RO         4048    .ARM.Collect$$libinit$$00000032  c_w.l(libinit2.o)
    0x08005252   0x08005252   0x00000002   Code   RO         4049    .ARM.Collect$$libinit$$00000033  c_w.l(libinit2.o)
    0x08005254   0x08005254   0x00000002   Code   RO         4073    .ARM.Collect$$libshutdown$$00000000  c_w.l(libshutdown.o)
    0x08005256   0x08005256   0x00000000   Code   RO         4099    .ARM.Collect$$libshutdown$$00000002  c_w.l(libshutdown2.o)
    0x08005256   0x08005256   0x00000000   Code   RO         4101    .ARM.Collect$$libshutdown$$00000004  c_w.l(libshutdown2.o)
    0x08005256   0x08005256   0x00000000   Code   RO         4104    .ARM.Collect$$libshutdown$$00000007  c_w.l(libshutdown2.o)
    0x08005256   0x08005256   0x00000000   Code   RO         4107    .ARM.Collect$$libshutdown$$0000000A  c_w.l(libshutdown2.o)
    0x08005256   0x08005256   0x00000000   Code   RO         4109    .ARM.Collect$$libshutdown$$0000000C  c_w.l(libshutdown2.o)
    0x08005256   0x08005256   0x00000000   Code   RO         4112    .ARM.Collect$$libshutdown$$0000000F  c_w.l(libshutdown2.o)
    0x08005256   0x08005256   0x00000002   Code   RO         4113    .ARM.Collect$$libshutdown$$00000010  c_w.l(libshutdown2.o)
    0x08005258   0x08005258   0x00000000   Code   RO         3818    .ARM.Collect$$rtentry$$00000000  c_w.l(__rtentry.o)
    0x08005258   0x08005258   0x00000000   Code   RO         3902    .ARM.Collect$$rtentry$$00000002  c_w.l(__rtentry2.o)
    0x08005258   0x08005258   0x00000006   Code   RO         3914    .ARM.Collect$$rtentry$$00000004  c_w.l(__rtentry4.o)
    0x0800525e   0x0800525e   0x00000000   Code   RO         3904    .ARM.Collect$$rtentry$$00000009  c_w.l(__rtentry2.o)
    0x0800525e   0x0800525e   0x00000004   Code   RO         3905    .ARM.Collect$$rtentry$$0000000A  c_w.l(__rtentry2.o)
    0x08005262   0x08005262   0x00000000   Code   RO         3907    .ARM.Collect$$rtentry$$0000000C  c_w.l(__rtentry2.o)
    0x08005262   0x08005262   0x00000008   Code   RO         3908    .ARM.Collect$$rtentry$$0000000D  c_w.l(__rtentry2.o)
    0x0800526a   0x0800526a   0x00000002   Code   RO         3992    .ARM.Collect$$rtexit$$00000000  c_w.l(rtexit.o)
    0x0800526c   0x0800526c   0x00000000   Code   RO         4051    .ARM.Collect$$rtexit$$00000002  c_w.l(rtexit2.o)
    0x0800526c   0x0800526c   0x00000004   Code   RO         4052    .ARM.Collect$$rtexit$$00000003  c_w.l(rtexit2.o)
    0x08005270   0x08005270   0x00000006   Code   RO         4053    .ARM.Collect$$rtexit$$00000004  c_w.l(rtexit2.o)
    0x08005276   0x08005276   0x00000002   PAD
    0x08005278   0x08005278   0x00000040   Code   RO          514    .text               startup_stm32f10x_hd.o
    0x080052b8   0x080052b8   0x00000002   Code   RO         3770    .text               c_w.l(use_no_semi_2.o)
    0x080052ba   0x080052ba   0x000000ee   Code   RO         3772    .text               c_w.l(lludivv7m.o)
    0x080053a8   0x080053a8   0x00000034   Code   RO         3774    .text               c_w.l(vsnprintf.o)
    0x080053dc   0x080053dc   0x00000018   Code   RO         3776    .text               c_w.l(__2printf.o)
    0x080053f4   0x080053f4   0x00000052   Code   RO         3782    .text               c_w.l(_printf_str.o)
    0x08005446   0x08005446   0x00000002   PAD
    0x08005448   0x08005448   0x00000078   Code   RO         3784    .text               c_w.l(_printf_dec.o)
    0x080054c0   0x080054c0   0x0000007c   Code   RO         3786    .text               c_w.l(_printf_longlong_dec.o)
    0x0800553c   0x0800553c   0x00000188   Code   RO         3805    .text               c_w.l(__printf_flags_ss_wp.o)
    0x080056c4   0x080056c4   0x00000006   Code   RO         3812    .text               c_w.l(heapauxi.o)
    0x080056ca   0x080056ca   0x00000002   Code   RO         3816    .text               c_w.l(use_no_semi.o)
    0x080056cc   0x080056cc   0x0000008a   Code   RO         3823    .text               c_w.l(lludiv10.o)
    0x08005756   0x08005756   0x0000004e   Code   RO         3825    .text               c_w.l(_printf_pad.o)
    0x080057a4   0x080057a4   0x00000024   Code   RO         3827    .text               c_w.l(_printf_truncate.o)
    0x080057c8   0x080057c8   0x000000b2   Code   RO         3829    .text               c_w.l(_printf_intcommon.o)
    0x0800587a   0x0800587a   0x00000028   Code   RO         3831    .text               c_w.l(_printf_charcount.o)
    0x080058a2   0x080058a2   0x00000002   PAD
    0x080058a4   0x080058a4   0x00000030   Code   RO         3833    .text               c_w.l(_printf_char_common.o)
    0x080058d4   0x080058d4   0x0000000a   Code   RO         3835    .text               c_w.l(_sputc.o)
    0x080058de   0x080058de   0x00000010   Code   RO         3837    .text               c_w.l(_snputc.o)
    0x080058ee   0x080058ee   0x0000002c   Code   RO         3839    .text               c_w.l(_printf_char.o)
    0x0800591a   0x0800591a   0x00000002   PAD
    0x0800591c   0x0800591c   0x00000024   Code   RO         3841    .text               c_w.l(_printf_char_file.o)
    0x08005940   0x08005940   0x000000bc   Code   RO         3843    .text               c_w.l(_printf_wctomb.o)
    0x080059fc   0x080059fc   0x00000070   Code   RO         3850    .text               c_w.l(_printf_oct_int_ll.o)
    0x08005a6c   0x08005a6c   0x00000094   Code   RO         3870    .text               c_w.l(_printf_hex_int_ll_ptr.o)
    0x08005b00   0x08005b00   0x0000041e   Code   RO         3918    .text               c_w.l(_printf_fp_dec.o)
    0x08005f1e   0x08005f1e   0x00000002   PAD
    0x08005f20   0x08005f20   0x000002fc   Code   RO         3920    .text               c_w.l(_printf_fp_hex.o)
    0x0800621c   0x0800621c   0x0000002c   Code   RO         3925    .text               c_w.l(_printf_wchar.o)
    0x08006248   0x08006248   0x00000008   Code   RO         3927    .text               c_w.l(ferror.o)
    0x08006250   0x08006250   0x00000040   Code   RO         3931    .text               c_w.l(_wcrtomb.o)
    0x08006290   0x08006290   0x0000004a   Code   RO         3933    .text               c_w.l(sys_stackheap_outer.o)
    0x080062da   0x080062da   0x00000002   PAD
    0x080062dc   0x080062dc   0x00000010   Code   RO         3935    .text               c_w.l(rt_ctype_table.o)
    0x080062ec   0x080062ec   0x00000008   Code   RO         3940    .text               c_w.l(rt_locale_intlibspace.o)
    0x080062f4   0x080062f4   0x00000080   Code   RO         3942    .text               c_w.l(_printf_fp_infnan.o)
    0x08006374   0x08006374   0x000000e4   Code   RO         3944    .text               c_w.l(bigflt0.o)
    0x08006458   0x08006458   0x00000012   Code   RO         3972    .text               c_w.l(exit.o)
    0x0800646a   0x0800646a   0x00000002   PAD
    0x0800646c   0x0800646c   0x00000008   Code   RO         3989    .text               c_w.l(libspace.o)
    0x08006474   0x08006474   0x00000080   Code   RO         4003    .text               c_w.l(strcmpv7m.o)
    0x080064f4   0x080064f4   0x0000003e   Code   RO         3947    CL$$btod_d2e        c_w.l(btod.o)
    0x08006532   0x08006532   0x00000046   Code   RO         3949    CL$$btod_d2e_denorm_low  c_w.l(btod.o)
    0x08006578   0x08006578   0x00000060   Code   RO         3948    CL$$btod_d2e_norm_op1  c_w.l(btod.o)
    0x080065d8   0x080065d8   0x00000338   Code   RO         3957    CL$$btod_div_common  c_w.l(btod.o)
    0x08006910   0x08006910   0x000000dc   Code   RO         3954    CL$$btod_e2e        c_w.l(btod.o)
    0x080069ec   0x080069ec   0x0000002a   Code   RO         3951    CL$$btod_ediv       c_w.l(btod.o)
    0x08006a16   0x08006a16   0x0000002a   Code   RO         3950    CL$$btod_emul       c_w.l(btod.o)
    0x08006a40   0x08006a40   0x00000244   Code   RO         3956    CL$$btod_mult_common  c_w.l(btod.o)
    0x08006c84   0x08006c84   0x00000044   Code   RO          791    i.BKP_TamperPinCmd  stm32f10x_bkp.o
    0x08006cc8   0x08006cc8   0x00000020   Code   RO         3655    i.BTN1_DOUBLE_Click_Handler  multi_button.o
    0x08006ce8   0x08006ce8   0x00000024   Code   RO         3656    i.BTN1_LONG_PRESS_HOLD_Handler  multi_button.o
    0x08006d0c   0x08006d0c   0x00000024   Code   RO         3657    i.BTN1_LONG_RRESS_START_Handler  multi_button.o
    0x08006d30   0x08006d30   0x00000020   Code   RO         3658    i.BTN1_PRESS_DOWN_Handler  multi_button.o
    0x08006d50   0x08006d50   0x00000030   Code   RO         3659    i.BTN1_PRESS_REPEAT_Handler  multi_button.o
    0x08006d80   0x08006d80   0x0000001c   Code   RO         3660    i.BTN1_PRESS_UP_Handler  multi_button.o
    0x08006d9c   0x08006d9c   0x00000020   Code   RO         3661    i.BTN1_SINGLE_Click_Handler  multi_button.o
    0x08006dbc   0x08006dbc   0x00000002   Code   RO          407    i.BusFault_Handler  stm32f10x_it.o
    0x08006dbe   0x08006dbe   0x000001da   Code   RO         3663    i.Button_Handler    multi_button.o
    0x08006f98   0x08006f98   0x00000020   Code   RO         3667    i.Button_Ticks      multi_button.o
    0x08006fb8   0x08006fb8   0x00000002   Code   RO          408    i.DebugMon_Handler  stm32f10x_it.o
    0x08006fba   0x08006fba   0x00000002   PAD
    0x08006fbc   0x08006fbc   0x00000170   Code   RO         1698    i.GPIO_Init         stm32f10x_gpio.o
    0x0800712c   0x0800712c   0x00000230   Code   RO         1700    i.GPIO_PinRemapConfig  stm32f10x_gpio.o
    0x0800735c   0x0800735c   0x000000e4   Code   RO         1702    i.GPIO_ReadInputDataBit  stm32f10x_gpio.o
    0x08007440   0x08007440   0x00000002   Code   RO          409    i.HardFault_Handler  stm32f10x_it.o
    0x08007442   0x08007442   0x00000002   PAD
    0x08007444   0x08007444   0x0000005c   Code   RO         3625    i.KEY_Scan          key.o
    0x080074a0   0x080074a0   0x00000024   Code   RO         3626    i.Key_Scan_Init     key.o
    0x080074c4   0x080074c4   0x00000040   Code   RO         3627    i.Led_Init          key.o
    0x08007504   0x08007504   0x00000002   Code   RO          410    i.MemManage_Handler  stm32f10x_it.o
    0x08007506   0x08007506   0x00000002   PAD
    0x08007508   0x08007508   0x000000b8   Code   RO         3669    i.Multi_Button_Init  multi_button.o
    0x080075c0   0x080075c0   0x000000bc   Code   RO          164    i.My_GPIO_Init      sys.o
    0x0800767c   0x0800767c   0x00000002   Code   RO          411    i.NMI_Handler       stm32f10x_it.o
    0x0800767e   0x0800767e   0x00000002   PAD
    0x08007680   0x08007680   0x000000b8   Code   RO          518    i.NVIC_Init         misc.o
    0x08007738   0x08007738   0x00000058   Code   RO          519    i.NVIC_PriorityGroupConfig  misc.o
    0x08007790   0x08007790   0x00000060   Code   RO          520    i.NVIC_SetVectorTable  misc.o
    0x080077f0   0x080077f0   0x00000044   Code   RO         2061    i.PWR_BackupAccessCmd  stm32f10x_pwr.o
    0x08007834   0x08007834   0x00000002   Code   RO          412    i.PendSV_Handler    stm32f10x_it.o
    0x08007836   0x08007836   0x00000002   PAD
    0x08007838   0x08007838   0x00000068   Code   RO         2126    i.RCC_APB1PeriphClockCmd  stm32f10x_rcc.o
    0x080078a0   0x080078a0   0x00000068   Code   RO         2128    i.RCC_APB2PeriphClockCmd  stm32f10x_rcc.o
    0x08007908   0x08007908   0x000000ac   Code   RO         2136    i.RCC_GetClocksFreq  stm32f10x_rcc.o
    0x080079b4   0x080079b4   0x00000060   Code   RO         2144    i.RCC_LSEConfig     stm32f10x_rcc.o
    0x08007a14   0x08007a14   0x00000010   Code   RO         3671    i.Read_Button1_GPIO  multi_button.o
    0x08007a24   0x08007a24   0x00000002   Code   RO          413    i.SVC_Handler       stm32f10x_it.o
    0x08007a26   0x08007a26   0x00000002   PAD
    0x08007a28   0x08007a28   0x0000006c   Code   RO         3555    i.SoftTimer_Init    soft_timer.o
    0x08007a94   0x08007a94   0x0000009c   Code   RO         3559    i.SoftTimer_Update  soft_timer.o
    0x08007b30   0x08007b30   0x00000048   Code   RO          522    i.SysTick_CLKSourceConfig  misc.o
    0x08007b78   0x08007b78   0x00000080   Code   RO         3527    i.SysTick_Callback  systick.o
    0x08007bf8   0x08007bf8   0x00000018   Code   RO          222    i.SysTick_Handler   delay.o
    0x08007c10   0x08007c10   0x000000f0   Code   RO          488    i.SystemInit        system_stm32f10x.o
    0x08007d00   0x08007d00   0x000000b4   Code   RO          263    i.USART1_IRQHandler  usart1.o
    0x08007db4   0x08007db4   0x00000114   Code   RO          264    i.USART1_Init       usart1.o
    0x08007ec8   0x08007ec8   0x00000060   Code   RO          267    i.USART1_printf     usart1.o
    0x08007f28   0x08007f28   0x000000b4   Code   RO          312    i.USART2_IRQHandler  usart2.o
    0x08007fdc   0x08007fdc   0x00000110   Code   RO          313    i.USART2_Init       usart2.o
    0x080080ec   0x080080ec   0x00000060   Code   RO          316    i.USART2_printf     usart2.o
    0x0800814c   0x0800814c   0x000000b4   Code   RO          354    i.USART3_IRQHandler  usart3.o
    0x08008200   0x08008200   0x00000114   Code   RO          355    i.USART3_Init       usart3.o
    0x08008314   0x08008314   0x00000060   Code   RO          358    i.USART3_printf     usart3.o
    0x08008374   0x08008374   0x000000a4   Code   RO         3287    i.USART_ClearFlag   stm32f10x_usart.o
    0x08008418   0x08008418   0x0000008c   Code   RO         3291    i.USART_Cmd         stm32f10x_usart.o
    0x080084a4   0x080084a4   0x000000c8   Code   RO         3294    i.USART_GetFlagStatus  stm32f10x_usart.o
    0x0800856c   0x0800856c   0x00000114   Code   RO         3295    i.USART_GetITStatus  stm32f10x_usart.o
    0x08008680   0x08008680   0x00000118   Code   RO         3297    i.USART_ITConfig    stm32f10x_usart.o
    0x08008798   0x08008798   0x000001c4   Code   RO         3298    i.USART_Init        stm32f10x_usart.o
    0x0800895c   0x0800895c   0x00000070   Code   RO         3305    i.USART_ReceiveData  stm32f10x_usart.o
    0x080089cc   0x080089cc   0x00000080   Code   RO         3308    i.USART_SendData    stm32f10x_usart.o
    0x08008a4c   0x08008a4c   0x00000002   Code   RO          414    i.UsageFault_Handler  stm32f10x_it.o
    0x08008a4e   0x08008a4e   0x00000028   Code   RO         3987    i.__ARM_fpclassify  m_ws.l(fpclassify.o)
    0x08008a76   0x08008a76   0x0000000e   Code   RO         3798    i._is_digit         c_w.l(__printf_wp.o)
    0x08008a84   0x08008a84   0x00000002   Code   RO          165    i._sys_exit         sys.o
    0x08008a86   0x08008a86   0x00000002   PAD
    0x08008a88   0x08008a88   0x00000028   Code   RO          167    i.assert_failed     sys.o
    0x08008ab0   0x08008ab0   0x0000003c   Code   RO         3561    i.callback0         soft_timer.o
    0x08008aec   0x08008aec   0x00000010   Code   RO         3562    i.callback1         soft_timer.o
    0x08008afc   0x08008afc   0x00000074   Code   RO          223    i.delay_init        delay.o
    0x08008b70   0x08008b70   0x00000030   Code   RO          168    i.fputc             sys.o
    0x08008ba0   0x08008ba0   0x000001fc   Code   RO            2    i.main              main.o
    0x08008d9c   0x08008d9c   0x0000002c   Code   RO         3970    locale$$code        c_w.l(lc_numeric_c.o)
    0x08008dc8   0x08008dc8   0x0000002c   Code   RO         3997    locale$$code        c_w.l(lc_ctype_c.o)
    0x08008df4   0x08008df4   0x00000004   Code   RO         3893    x$fpl$printf1       fz_ws.l(printf1.o)
    0x08008df8   0x08008df8   0x00000004   Code   RO         3895    x$fpl$printf2       fz_ws.l(printf2.o)
    0x08008dfc   0x08008dfc   0x00000000   Code   RO         3986    x$fpl$usenofp       fz_ws.l(usenofp.o)
    0x08008dfc   0x08008dfc   0x00000011   Data   RO         3806    .constdata          c_w.l(__printf_flags_ss_wp.o)
    0x08008e0d   0x08008e0d   0x00000003   PAD
    0x08008e10   0x08008e10   0x00000008   Data   RO         3844    .constdata          c_w.l(_printf_wctomb.o)
    0x08008e18   0x08008e18   0x00000028   Data   RO         3871    .constdata          c_w.l(_printf_hex_int_ll_ptr.o)
    0x08008e40   0x08008e40   0x00000026   Data   RO         3921    .constdata          c_w.l(_printf_fp_hex.o)
    0x08008e66   0x08008e66   0x00000002   PAD
    0x08008e68   0x08008e68   0x00000094   Data   RO         3945    .constdata          c_w.l(bigflt0.o)
    0x08008efc   0x08008efc   0x00000020   Data   RO         4115    Region$$Table       anon$$obj.o
    0x08008f1c   0x08008f1c   0x0000001c   Data   RO         3969    locale$$data        c_w.l(lc_numeric_c.o)
    0x08008f38   0x08008f38   0x00000110   Data   RO         3996    locale$$data        c_w.l(lc_ctype_c.o)


    Execution Region RW_IRAM1 (Exec base: 0x20000000, Load base: 0x08009048, Size: 0x00000e88, Max: 0x00005000, ABSOLUTE)

    Exec Addr    Load Addr    Size         Type   Attr      Idx    E Section Name        Object

    0x20000000   0x08009048   0x00000004   Data   RW          171    .data               sys.o
    0x20000004   0x0800904c   0x00000004   PAD
    0x20000008   0x08009050   0x00000010   Data   RW          227    .data               delay.o
    0x20000018   0x08009060   0x00000002   Data   RW          269    .data               usart1.o
    0x2000001a   0x08009062   0x00000002   Data   RW          318    .data               usart2.o
    0x2000001c   0x08009064   0x00000002   Data   RW          360    .data               usart3.o
    0x2000001e   0x08009066   0x00000002   PAD
    0x20000020   0x08009068   0x00000014   Data   RW          489    .data               system_stm32f10x.o
    0x20000034   0x0800907c   0x00000014   Data   RW         2156    .data               stm32f10x_rcc.o
    0x20000048   0x08009090   0x0000000b   Data   RW         3565    .data               soft_timer.o
    0x20000053   0x0800909b   0x00000004   Data   RW         3628    .data               key.o
    0x20000057   0x0800909f   0x00000001   PAD
    0x20000058   0x080090a0   0x00000008   Data   RW         3673    .data               multi_button.o
    0x20000060        -       0x00000258   Zero   RW          268    .bss                usart1.o
    0x200002b8        -       0x00000320   Zero   RW          317    .bss                usart2.o
    0x200005d8        -       0x000001f4   Zero   RW          359    .bss                usart3.o
    0x200007cc        -       0x00000030   Zero   RW         3564    .bss                soft_timer.o
    0x200007fc        -       0x00000028   Zero   RW         3672    .bss                multi_button.o
    0x20000824        -       0x00000060   Zero   RW         3990    .bss                c_w.l(libspace.o)
    0x20000884   0x080090a8   0x00000004   PAD
    0x20000888        -       0x00000200   Zero   RW          512    HEAP                startup_stm32f10x_hd.o
    0x20000a88        -       0x00000400   Zero   RW          511    STACK               startup_stm32f10x_hd.o


==============================================================================

Image component sizes


      Code (inc. data)   RO Data    RW Data    ZI Data      Debug   Object Name

         0          0          0          0          0         32   core_cm3.o
       140         24          0         16          0      16533   delay.o
       192         24          0          4          0       1855   key.o
       508        198          0          0          0     234528   main.o
       440        134          0          0          0       4211   misc.o
       950        258          0          8         40       7465   multi_button.o
       340         82          0         11         48       3458   soft_timer.o
        64         26        304          0       1536        780   startup_stm32f10x_hd.o
        68         42          0          0          0        511   stm32f10x_bkp.o
      1156        178          0          0          0      11762   stm32f10x_gpio.o
        16          0          0          0          0       3220   stm32f10x_it.o
        68         42          0          0          0        518   stm32f10x_pwr.o
       476        152          0         20          0      13862   stm32f10x_rcc.o
      1752        392          0          0          0      13031   stm32f10x_usart.o
       278         36          0          4          0       5905   sys.o
       240         18          0         20          0       1385   system_stm32f10x.o
       128         20          0          0          0        479   systick.o
       552         52          0          2        600       3212   usart1.o
       548         54          0          2        800       2648   usart2.o
       552         54          0          2        500       2648   usart3.o

    ----------------------------------------------------------------------
      8482       1786        336         96       3524     328043   Object Totals
         0          0         32          0          0          0   (incl. Generated)
        14          0          0          7          0          0   (incl. Padding)

    ----------------------------------------------------------------------

      Code (inc. data)   RO Data    RW Data    ZI Data      Debug   Library Member Name

        24          4          0          0          0         84   __2printf.o
         8          0          0          0          0         68   __main.o
       392          4         17          0          0         92   __printf_flags_ss_wp.o
        14          0          0          0          0         68   __printf_wp.o
         0          0          0          0          0          0   __rtentry.o
        12          0          0          0          0          0   __rtentry2.o
         6          0          0          0          0          0   __rtentry4.o
        52          8          0          0          0          0   __scatter.o
        26          0          0          0          0          0   __scatter_copy.o
        28          0          0          0          0          0   __scatter_zi.o
         6          0          0          0          0          0   _printf_a.o
         6          0          0          0          0          0   _printf_c.o
        44          0          0          0          0        108   _printf_char.o
        48          6          0          0          0         96   _printf_char_common.o
        36          4          0          0          0         80   _printf_char_file.o
        40          0          0          0          0         68   _printf_charcount.o
         6          0          0          0          0          0   _printf_d.o
       120         16          0          0          0         92   _printf_dec.o
         6          0          0          0          0          0   _printf_e.o
         6          0          0          0          0          0   _printf_f.o
      1054          0          0          0          0        216   _printf_fp_dec.o
       764          8         38          0          0        100   _printf_fp_hex.o
       128         16          0          0          0         84   _printf_fp_infnan.o
         6          0          0          0          0          0   _printf_g.o
       148          4         40          0          0        160   _printf_hex_int_ll_ptr.o
         6          0          0          0          0          0   _printf_i.o
       178          0          0          0          0         88   _printf_intcommon.o
        10          0          0          0          0          0   _printf_l.o
         6          0          0          0          0          0   _printf_lc.o
        10          0          0          0          0          0   _printf_ll.o
         6          0          0          0          0          0   _printf_lld.o
         6          0          0          0          0          0   _printf_lli.o
         6          0          0          0          0          0   _printf_llo.o
         6          0          0          0          0          0   _printf_llu.o
         6          0          0          0          0          0   _printf_llx.o
       124         16          0          0          0         92   _printf_longlong_dec.o
         6          0          0          0          0          0   _printf_ls.o
         6          0          0          0          0          0   _printf_n.o
         6          0          0          0          0          0   _printf_o.o
       112         10          0          0          0        124   _printf_oct_int_ll.o
         6          0          0          0          0          0   _printf_p.o
        78          0          0          0          0        108   _printf_pad.o
         0          0          0          0          0          0   _printf_percent.o
         4          0          0          0          0          0   _printf_percent_end.o
         6          0          0          0          0          0   _printf_s.o
        82          0          0          0          0         80   _printf_str.o
        36          0          0          0          0         84   _printf_truncate.o
         6          0          0          0          0          0   _printf_u.o
        44          0          0          0          0        108   _printf_wchar.o
       188          6          8          0          0         92   _printf_wctomb.o
         6          0          0          0          0          0   _printf_x.o
        16          0          0          0          0         68   _snputc.o
        10          0          0          0          0         68   _sputc.o
        64          0          0          0          0         92   _wcrtomb.o
       228          4        148          0          0         96   bigflt0.o
      1936        128          0          0          0        672   btod.o
        18          0          0          0          0         80   exit.o
         8          0          0          0          0         68   ferror.o
         6          0          0          0          0        152   heapauxi.o
        44         10        272          0          0         76   lc_ctype_c.o
        44         10         28          0          0         76   lc_numeric_c.o
         2          0          0          0          0          0   libinit.o
        30          0          0          0          0          0   libinit2.o
         2          0          0          0          0          0   libshutdown.o
         2          0          0          0          0          0   libshutdown2.o
         8          4          0          0         96         68   libspace.o
       138          0          0          0          0         80   lludiv10.o
       238          0          0          0          0        100   lludivv7m.o
        16          4          0          0          0         76   rt_ctype_table.o
         8          4          0          0          0         68   rt_locale_intlibspace.o
         2          0          0          0          0          0   rtexit.o
        10          0          0          0          0          0   rtexit2.o
       128          0          0          0          0         68   strcmpv7m.o
        74          0          0          0          0         80   sys_stackheap_outer.o
         2          0          0          0          0         68   use_no_semi.o
         2          0          0          0          0         68   use_no_semi_2.o
        52          4          0          0          0         80   vsnprintf.o
         4          0          0          0          0         68   printf1.o
         4          0          0          0          0         68   printf2.o
         0          0          0          0          0          0   usenofp.o
        40          0          0          0          0         68   fpclassify.o

    ----------------------------------------------------------------------
      7082        270        556          0        100       4500   Library Totals
        16          0          5          0          4          0   (incl. Padding)

    ----------------------------------------------------------------------

      Code (inc. data)   RO Data    RW Data    ZI Data      Debug   Library Name

      7018        270        551          0         96       4296   c_w.l
         8          0          0          0          0        136   fz_ws.l
        40          0          0          0          0         68   m_ws.l

    ----------------------------------------------------------------------
      7082        270        556          0        100       4500   Library Totals

    ----------------------------------------------------------------------

==============================================================================


      Code (inc. data)   RO Data    RW Data    ZI Data      Debug   

     15564       2056        892         96       3624     326871   Grand Totals
     15564       2056        892         96       3624     326871   ELF Image Totals
     15564       2056        892         96          0          0   ROM Totals

==============================================================================

    Total RO  Size (Code + RO Data)                16456 (  16.07kB)
    Total RW  Size (RW Data + ZI Data)              3720 (   3.63kB)
    Total ROM Size (Code + RO Data + RW Data)      16552 (  16.16kB)

==============================================================================

