:020000040800F2
:10000000E8150020990200085F2B0008FD2A00086F
:100010005D2B000829230008E13C000800000000D7
:10002000000000000000000000000000252E000875
:10003000A525000800000000712C00081D310008F3
:10004000B3020008B3020008B3020008B3020008BC
:10005000B3020008B3020008B3020008B3020008AC
:10006000B3020008B3020008B3020008B30200089C
:10007000B3020008B3020008B3020008B30200088C
:10008000B3020008B3020008B3020008B30200087C
:10009000B3020008B3020008B3020008B30200086C
:1000A000B3020008B3020008B3020008B30200085C
:1000B000B3020008B3020008B3020008B30200084C
:1000C000B3020008B3020008B3020008B30200083C
:1000D000B3020008ED330008A134000855350008CC
:1000E000B3020008B3020008B3020008B30200081C
:1000F000B3020008B3020008B3020008B30200080C
:10010000B3020008B3020008B3020008B3020008FB
:1001100025320008B3020008B3020008B302000849
:10012000B3020008B3020008B3020008B3020008DB
:1001300000F002F800F090F80AA090E8000C824469
:100140008344AAF10107DA4501D100F085F8AFF246
:10015000090EBAE80F0013F0010F18BFFB1A43F0A5
:1001600001031847244A0000444A0000103A24BF03
:1001700078C878C1FAD8520724BF30C830C144BF0C
:1001800004680C607047000000230024002500264E
:10019000103A28BF78C1FBD8520728BF30C148BFEA
:1001A0000B6070476E2900F0FE83702900F07185A6
:1001B000662904F06584652904F06284672904F0E7
:1001C0005F84612904F05E8403681B0A28BF41F044
:1001D0008001692900F04881642900F04581752972
:1001E00000F042816F2900F0FE84782900F03D85FF
:1001F000E92900F09984E42900F09684F52900F0BB
:100200009384EF2900F0FB84F82900F03C85036813
:10021000DB0928BF41F08001632900F008847329BD
:1002200000F00D84E32901F09B81F32901F0A08106
:10023000002070471FB501F0ABFB04000020002137
:1002400004F008FC401C60600020002104F0ECFB7E
:10025000E0601FBD10B510BD01F06CFB1146FFF74B
:10026000E9FF04F0D9FB01F049FC03B4FFF7F2FF0A
:1002700003BC04F04EFB0000EFF30980704780F3ED
:1002800009887047EFF30880704780F3088870474B
:1002900040BA7047C0BA70470948804709480047CC
:1002A000FEE7FEE7FEE7FEE7FEE7FEE7FEE7FEE726
:1002B000FEE7FEE704480549054A064B7047000083
:1002C0003531000831010008E80F0020E815002052
:1002D000E8110020E8110020704753EA020C00F0FA
:1002E00069802DE9F04B4FF00006002B1FBFB3FAD9
:1002F00083F503FA05F424FA05F65E4012BF1643AF
:10030000B2FA82F502FA05F4C5F120051EBF22FA01
:1003100005FC44EA0C04203556EA044C4FEA144428
:1003200018BF641C4FF000084FF00009904271EBB9
:10033000030C39D3002919BFB1FA81F701FA07F686
:10034000B0FA80F700FA07F6C7F120071EBF20FABF
:1003500007FC46EA0C062037B6FBF4FCA7EB0507C2
:10036000103F07F01F0BCBF120060CFA0BFB2CFA09
:1003700006F644BFB3460026202FA4BF5E464FF0CA
:10038000000B5BEA060C08BF4FF0010B19EB0B09E1
:10039000ABFB027C48EB0608C01B06FB02CC0BFB48
:1003A00003CC71EB0C01C1E70B46024641464846BF
:1003B000BDE8F08B13B54FF000004FF00001AFF334
:1003C0000080BDE81C4070477CB51D4616460C00F9
:1003D000009001D02044401E074B7B442A466946CA
:1003E0000190304600F0F9FA05461CB1002069463C
:1003F00000F006FB28467CBD2D0600000FB4044922
:1004000010B503AA029800F01FFB10BC5DF814FBA6
:100410000000002070B50C460546012A05D028785A
:10042000800600D5EA69002302E0012305E05B1C99
:10043000934202D2E05C0028F9D1A869E618C01AFC
:10044000A861286A18442862284600F01AFA04E0D5
:10045000D5E9012114F8010B9047B442F8D328469E
:1004600000F025FA70BD00002DE9F0410646002499
:1004700010687529314616A510D000F029FA002819
:1004800002DA404213A507E031688A0701D512A5B8
:1004900002E0490704D511A5012401E000F021FA8A
:1004A00000210A2206F1240709E0B0FBF2FCB0FBB0
:1004B000F2F302FB1C00303078541846491C002827
:1004C000F3D123462A463046BDE8F04100F012BA87
:1004D000000000002D0000002B00000020000000A4
:1004E0002DE9F05F894604464FF0000ADFF874B149
:1004F000FB44C0F820A02046E1688847002874D05B
:10050000252806D0D4E901219047206A401C2062AA
:10051000F1E700265F462046E16888472028054627
:1005200007DB312D05D2781910F8200C08B10643ED
:10053000F1E7B00701D526F00406C4F81CA0002797
:10054000C4F818A02A2D09D0284604F0DBF938B3E6
:1005500004EB8708303DC8F8185019E059F8041B1F
:10056000204604EB87029161E1688847012F054628
:1005700018D1E069002820DA26F020061DE0D8F81E
:10058000180000EB800005EB40003038C8F8180078
:100590002046E1688847054604F0B4F90028EED10A
:1005A000012F0AD02E2D08D12046E16888477F1CF4
:1005B0000546022F46F02006C4DBA069002803DAB6
:1005C000404246F00106A061F00701D026F0100677
:1005D0006C2D0BD0682D09D04C2D39D06A2D35D01B
:1005E000742D35D07A2D33D016E038E0E1682F46EF
:1005F00020468847B842054609D16C2F26D04FF4D3
:100600008060E168064320468847054604E06C2F79
:100610001AD04FF4807006430DB3A5F1410019289C
:1006200002D8203546F400664A4629462046266010
:100630004E46FFF7B7FD80B101280BD0F61D26F01E
:10064000070000F1080956E74020E4E78020D8E7DA
:100650000020D6E706F104094DE7284652E7206A54
:10066000BDE8F09F944500000FB400B58DB010A90F
:10067000099000910B904FF0FF300A9000200C90F1
:10068000064878440690064878446A4607900F99D1
:1006900009A800F01DFB0DB05DF814FB6B0600000F
:1006A000830600002DE9FF5F1D464FF0FF3B91469A
:1006B0004FF000085F46D5E90146A96901987F1C03
:1006C0008847296A824688470028F6D1BAF1FF3F59
:1006D0000CD0002E24F4C06419DD600614D5BAF1E4
:1006E0002B0F09D0BAF12D0F0ED103E0584604B0FC
:1006F000BDE8F09F44F48064A96901987F1C884795
:10070000761E8246002E02DDBAF1300F03D0B9F119
:10071000000F26D032E0A969761E01987F1C44F4B0
:1007200000748847002E824605DDBAF1780F06D0A6
:10073000BAF1580F03D0B9F1000F10D01EE0B9F193
:10074000000F02D0B9F1100F18D1A969761E0198D7
:100750007F1C24F4007488478246102002E00820A1
:1007600000E00A20814609E0A96908FB0908761E15
:1007700001987F1C44F4007488478246002E05DDF2
:100780004946504600F090FA0028EDDAE9690198F0
:100790008847A00502D46FF00100A8E7E00725D143
:1007A000600613D5600502D5C8F1000000E04046A0
:1007B00029680A1D2A600968220501D5087015E01C
:1007C000220701D5088011E008600FE02868011DAC
:1007D00029600068210502D580F8008006E0210725
:1007E00002D5A0F8008001E0C0F8008038467EE71E
:1007F000032A40F2308010F0030C00F0158011F84D
:10080000013BBCF1020F624498BF11F801CB00F824
:10081000013B38BF11F8013BA2F1040298BF00F878
:1008200001CB38BF00F8013B11F0030300F08082D8
:10083000083AC0F0088051F8043B083A51F804CB5C
:10084000A0E80810F5E7121D5CBF51F8043B40F822
:10085000043BAFF30080D20724BF11F8013B11F82D
:1008600001CB48BF11F8012B24BF00F8013B00F871
:1008700001CB48BF00F8012B7047704770477047A5
:10088000704770B5044685690068C10601D53026F9
:1008900000E02026C00707D070BDD4E90121304612
:1008A0009047206A401C20626D1EF6D570BD70B561
:1008B000044685690078C00707D170BDD4E90121DD
:1008C00020209047206A401C20626D1EF6D570BD26
:1008D00009684A0501D540B27047C905FCD500B288
:1008E000704709684A0501D5C0B27047C905FCD5F3
:1008F00080B270472DE9F0470D469946924604466E
:1009000000F124080168880604D5E06921F010018F
:10091000216000E00120A84201DD471B00E0002724
:10092000A1697A1902EB0900081AA0612078C006B3
:1009300002D42046FFF7A5FF002608E0D4E90121F4
:100940001AF806009047206A401C761C20624E452B
:10095000F4DB2078C0060AD52046FFF792FF06E0B8
:10096000D4E9012130209047206A401C2062381EC3
:10097000A7F10107F4DC07E0D4E9012118F805002C
:100980009047206A401C2062281EA5F10105F3DC77
:100990002046FFF78CFF2078000602D50220BDE834
:1009A000F0870120FBE711680268006A530501D552
:1009B00008700AE0D30501D5088006E0130603D5C8
:1009C000C217C1E9000200E0086001207047000082
:1009D00001694A1C02610878704700B58FB0CDE903
:1009E00001310021059105497944CDE903101146F3
:1009F0006846FFF775FD0FB000BD0000E5FFFFFF83
:100A00000A6802F8010B0A607047D1E900239A4294
:100A100002D2531C0B601070704710B5436913B1BC
:100A2000AFF3008001E0FFF7F5FC012010BD127864
:100A300000F124010A7000224A700122EDE71168DA
:100A40004FF0FF32E9E70000074B70B50D467B44DD
:100A5000FFF7C3FF0446284600F048FF10B14FF0EF
:100A6000FF3070BD204670BD973F00002DE9FF5F4D
:100A700015468A460446DFF8AC80F8440027D8E9DA
:100A800000103E46CDE9001010E03AF816106A4614
:100A900002A800F02FFF411C07D02178890603D55A
:100AA000E269391891420DD80744761C20788006F7
:100AB00002D5E069B84205DDAE42E6DB3AF8160041
:100AC0000028E2D1A069C01BA0612046FFF7D9FE33
:100AD000D8E90010CDE90010002017E03AF818100E
:100AE0006A4602A800F006FFB0F1FF3F81460BD036
:100AF00000250DF1080B05E0D4E901211BF80500E4
:100B000090476D1C4D45F7D308F10100B042804677
:100B1000E4DB206A384420622046FFF7C8FEBDE8C7
:100B2000FF9F00001E4000002DE9F0418046D21DCD
:100B300022F007020025D2E90002F52915A614D0FB
:100B4000011E72F1000106DA0023D0EB030063EB13
:100B5000020211A608E0D8F800108B0701D50FA6F5
:100B600002E0490701D50EA601251146002408F12F
:100B7000240704E000F00EF930323A55641C50EAC4
:100B80000102F7D12B46324621464046BDE8F041EE
:100B9000FFF7B0BE000000002D0000002B00000099
:100BA0002000000030B4002100F1240408E002F02D
:100BB0000705D208303542EA4372DB086554491C08
:100BC00052EA0305F3D10468002310A2250707D5D4
:100BD000A40600D421B1C46901230DA2641EC4611E
:100BE00030BCFFF787BE10B5044621461068FFF7FA
:100BF00078FE02462046BDE810400023D2E7D21D11
:100C000022F00701D1E90023CCE70000000000003A
:100C100030000000F0B40D460188090502D5214CD2
:100C20007C4402E01F4C7C440E34002100F1240679
:100C300008E002F00F071209E75D42EA03721B09A0
:100C40007754491C52EA0307F3D1027800231207B4
:100C500004D5702D06D009B1022311342246F0BC10
:100C6000FFF748BE01231034F8E770B504460D467F
:100C700021461068FFF735FE024629462046BDE8AA
:100C800070400023C6E7D21D22F00703D3E90023FA
:100C9000C0E70368126843F0200303600823C361C0
:100CA0000023B7E7803E00003A2800D2303820F019
:100CB0002002412A01D3A2F13700884201D34FF02C
:100CC000FF3070470268114413780160184670477E
:100CD000D160054979445161044979441162002188
:100CE0001161114600F048BCEDFFFFFF410100001B
:100CF000426842B1016811F8013B23B1521EC0E9BC
:100D00000012184670470121C160881E7047426872
:100D10005AB1C368016843B983688B4205D0491E44
:100D2000521CC0E90012002070474FF0FF3070479E
:100D300010B5203AC0F00B80B1E81850203AA0E876
:100D40001850B1E81850A0E81850BFF4F5AF5FEAAA
:100D5000027C24BFB1E81850A0E8185044BF18C95D
:100D600018C0BDE810405FEA827C24BF51F8043B04
:100D700040F8043B08BF7047D20728BF31F8023B58
:100D800048BF11F8012B28BF20F8023B48BF00F8EC
:100D9000012B704730B5B0F10A024FEA900E71F1A5
:100DA00000034EEA817EB0EB0E0061EB91014FEA49
:100DB000101E4EEA017E10EB0E0041EB11114FEABE
:100DC000102E4EEA016E10EB0E0041EB11214FEA9E
:100DD000104E4EEA014E10EB0E0041EB114140184F
:100DE00041F100014FEAD00040EA41704FEAD101E1
:100DF00010EB80054FEA810444EA907444EB01044F
:100E00006D1944EB0404521BA3414FF0000348BF8B
:100E10000A3200D530BD401C41F1000130BD10B593
:100E2000044600F0ADFD0068005D00F0010010BD5B
:100E300070472DE9FF4F0C461E464FF0FF378BB031
:100E4000D2E90001DDF860800A908A46C1F30A55B4
:100E500005B93D46002108464FF00000BAF1000FE9
:100E600000F4400005DA00EB80004FF4400101EA95
:100E700050004FEA9059B9F1010F00DDB9460A98C8
:100E800050EA4A000ED044F61050A5F2FF35454313
:100E90002F14B8F1000F1ED07542291E1EDDC9F1B6
:100EA00000021CE0B8F1010F4FF0000001D030212A
:100EB00003E0F24305E02154401CB042FBDB304626
:100EC0000022002121540B99C1F80880C1E90020BB
:100ED0000FB0BDE8F08FBD1B6D1CDEE74A4600DA9F
:100EE000694206A800F098FD06AB93E8070003AB43
:100EF00083E8070050460A9900F04EFE8DE807008F
:100F0000A0F500501F3800900398002D0ADD42F232
:100F10001F014A460844002303A90390684601F0D4
:100F2000B7F809E0A0F500504A461F38002303A98E
:100F30000390684601F0C1F88DE807000004000C3A
:100F400003D04FF0FF30410800E01046B8F1000F29
:100F500003D00022009215461EE0751E05D4FFF74F
:100F600019FF303262556D1EF9D5B3460122084390
:100F700002D000227F1C04E02078302801D100221A
:100F80007F1E002A099784D01DE0112D07DAFFF794
:100F900001FF303262556D1C50EA0102F5D1084361
:100FA00002D00098C8B10EE00021681E05E0235C65
:100FB000625C63542254401E491C8142F7DBAB46FD
:100FC000A81B401E0990002004F80B000B98099AFA
:100FD000C0F80880C0E9002B7AE711264FF000081E
:100FE00057E72DE9F04F88460446D21D22F007014D
:100FF00091B0D1E90001CDE90A0103F06FFC02468E
:101000000B98C00F01D02D2007E02068810701D583
:101010002B2002E0202101EAC000032A099001D020
:10102000072A05DB03464146204600F0B5FC0BE1EC
:101030002078800601D5E06900E00620B8F1650F50
:10104000814606D0B8F1660F18D0B8F1670F70D19D
:1010500031E00020B9F1110F009001DB112301E014
:1010600009F101030AAA01A90CA8FFF7E2FEDDE9D4
:101070000C70002609F10105834647E001204B462C
:1010800000904FF000470AAA01A90CA8FFF7D1FE73
:10109000DDE90DB00C995D46002610B909F101009B
:1010A0000D18B9EB050003D4C0F1FF3609F10105B5
:1010B000A5EB09002BE0B9F1010F01DA4FF00109AE
:1010C0000020B9F1110F0090484601DD112300E026
:1010D00003460AAA01A90CA8FFF7ABFEDDE90C70D4
:1010E0004D4600268346207800070AD4AB4500DA37
:1010F0005D4601A8012D04DD411911F8011C3029BC
:1011000007D04F4502DA17F1040F04DA01208246B6
:101110000FE06D1EEEE7002F02DCED1B3E4403E006
:10112000781CA84200DD7D1CB81B00F1010A4FF0BD
:1011300000472078000703D4AA4501DB4FF0FF3AAF
:101140000021B7F1004F0DF143088DF8431024D072
:1011500002202B23002F01DA7F422D230A21021EB9
:10116000A0F1010000DC5FB197FBF1FC97FBF1F20D
:1011700001FB1C7C17460CF1300C08F801CDEEE7A2
:10118000A8F1010003702188090501D5452100E07F
:101190006521A0F1010800F8011C09980FA9A1EB35
:1011A0000807FF1D00B10120411901EBEA70A16998
:1011B0003844081A401EA0612078C00602D4204698
:1011C000FFF75FFB099828B1D4E901219047206A15
:1011D000401C20622078C00622D52046FFF751FB34
:1011E0001EE0002E04DBB34502DD01A8805D00E0B7
:1011F0003020D4E901219047206A401C2062761CEF
:10120000AAF101005FEA000A0AD100F0C1FBC06840
:101210000168405CD4E901219047206A401C2062AB
:10122000281EA5F10105DCDC07E0D4E9012118F84E
:10123000010B9047206A401C2062381EA7F101076D
:10124000F3DC2046FFF733FB032011B041E600003A
:101250002DE9F04F04460D46D21D22F0070089B05B
:10126000D0E900974846394603F038FB0246F80FAC
:1012700001D02D2307E02068810701D52B2302E050
:10128000202101EAC0038DF820300BB1012000E0DD
:101290000020032A824601D0072A04DB2946204683
:1012A00000F07AFB3FE12078800601D40D2500E0B4
:1012B000E569C7F30A560D2D49DA00214FEA175B9D
:1012C00008464FF00000002F00F4400007DA00EB62
:1012D00080004FF4400100EBD07001EA60008115FE
:1012E000012901DD4FF0FF3100224FEA850CBCF1EE
:1012F000180F06D31346ACF118004FF08052C240CD
:1013000003E04FF4801323FA0CF30CF10C0CBCF146
:10131000200F04D3ACF1200C09FA0CF001E007FA1D
:101320000CF000294FF0004801DD18B90FE00ED194
:1013300040450CD319EB02095F4121B9404502D168
:101340009F4329EA0209BBEB175F00D0761C208877
:10135000000502D57B48784402E07A487844193881
:1013600008AA302302F80A30037C0AF10101002E9A
:101370000AF1020A53546A4602DC4FF0300101E0E0
:101380004FF031014FF001088DF8001002D0A6F2A5
:10139000FF3603E059EA470100D06B4E002D02DC16
:1013A0002178090704D54FF002082E218DF801108D
:1013B000C44600210BE0C7F303433F01C35C491C53
:1013C0006D1E02F80830052908F1010801DA002D28
:1013D000F1DC00210CE000EB1973491C1B786D1E39
:1013E000082902F808304FEA091908F1010801DA62
:1013F000002DF0DC21688B0602D516E0A8F101086B
:10140000E04505DD02EB080313F8013C302BF5D075
:10141000B8F1000F09DD02EB080313F8013C2E2B95
:1014200003D1090701D4A8F10108002D05DD3E21F3
:1014300002F808106D1E08F10108407C002E02F829
:10144000080008F1010804DA2D20764202F80800AD
:1014500002E02B2002F808000A214FF47A7086423D
:1014600008F101080BDB96FBF0F3303302F808308B
:1014700096FBF0F308F1010800FB136601E0642E0F
:101480000CDB642096FBF0F3303302F8083096FB57
:10149000F0F308F1010800FB136601E00A2E06DBF9
:1014A00096FBF1F0303002F8080008F1010896FBD5
:1014B000F1F001FB1060303002F80800A16908F17A
:1014C000010808EB050202EB0A00081AA061207867
:1014D000C00602D42046FFF7D4F9216A08AE01EB1A
:1014E0000A00206204E0D4E9012116F8010B9047BC
:1014F000BAF1010AF7D22078C00602D52046FFF7DC
:10150000C0F96E4609E016F8010B3E280FD0D4E969
:1015100001219047206A401C2062B8F10108F2D2F4
:101520002046FFF7C4F909B00320BDE8F08F206A18
:101530002844206203E0D4E90121302090476D1E49
:10154000EBD3F8E78537000002FCFFFF10B54369D5
:1015500013B1AFF3008001E0FFF788FA012010BD5E
:10156000128800F1240182840022C2840122EDE766
:1015700011684FF0FF32E9E72DE9F34F4FF0000A11
:101580000C4656468DB001200C9001F10C000B90DA
:1015900062690B9801219047051E2DD0252D2CD076
:1015A000216A8847C0B162690B9801219047216A7E
:1015B00088470028F7D16269411E0B98904700E0E8
:1015C000761CA1690D988847216A88470028F7D1C1
:1015D000E1690D988847DBE7A1690D988847A84223
:1015E000074601D1761CD3E7E1690D9888477F1C37
:1015F00002D1BAF1000F6FD06BE162690B9800273E
:101600003D46394690472A2804D162690B9801214A
:1016100090470125DFF8D08262690B98012190473D
:10162000A0F130010A290AD24745E5DC07EB870122
:1016300000EB4107303FDFD445F01005ECE7E90649
:1016400001D46FF000476C280AD04C2814D06828C9
:1016500015D06A280DD074281CD07A281AD01DE025
:1016600062690B98012190476C2802D045F004056F
:1016700014E045F002050DE045F020050AE062693E
:101680000B9801219047682802D045F0080505E035
:1016900045F4006562690B9801219047C4E9015740
:1016A00065283DD019DC58287AD00CDC452837D085
:1016B00004DC252826D041289ED131E046282FD0B1
:1016C000472899D12CE05B2877D0612828D063285F
:1016D0007CD0642823D15AE0F6E06F2848D008DC9B
:1016E00066281DD067281BD0692821D06E2816D106
:1016F00027E0702845D0732868D0752847D078280F
:101700000DD14DE0A1690D988847252805463FF485
:1017100069AFE1690D9888476D1C3FF46AAFD8E066
:101720000D9923466A466FF00100AFF30080C5E0D3
:1017300045F0400023464FF000026060A80736D411
:101740003EE0E8077FF447AF2068011D2160006894
:10175000290501D506701BE7290701D5068017E783
:10176000A90703D5F117C0E9006111E706600FE78B
:1017700045F0400023464FF008026060A80716D4E9
:101780001EE040F60E0125EA0100606016E045F01B
:10179000400023464FF00A026060A80707D40FE01C
:1017A00045F040006060A80708D5234610220D9937
:1017B0006FF00100AFF3008080E007E010222346C5
:1017C0000D996FF00100FEF76DFF77E04FF0000913
:1017D00063284F46C8464B46CB4602D05B2806D00E
:1017E00038E0E80601D40120A060012732E06269F8
:1017F000D4F80CB00B98012190475E2807D14FF028
:10180000010949466269D4F80CB00B9890472169E8
:1018100039B900210A4603AB43F82120491C0829A5
:10182000FADBD8B3216949B308F1010862690B9862
:10183000012190475D28F4D1B9F1000F09D00020B3
:1018400003A951F82020D24341F82020401C082849
:10185000F7DB03AB2069002820794FEA40701ED0E7
:101860005B462246CDF80080CDE901970D9900280E
:101870006FF0010020DAAFF300801FE0C11703AA68
:1018800000EBD1614B1121F01F0102EB8302411AE1
:1018900013680120884003431360C7E719E00D99DE
:1018A000224600286FF00100009702DAAFF30080B3
:1018B00004E0AFF3008001E0AFF3008000280ADA13
:1018C000401C06D10C9820B14FF0FF300FB0BDE89E
:1018D000F08F5046FAE7E90701D10AF1010A064400
:1018E00000200C9054E60000CCCCCC0C007B00F027
:1018F0008000704770B516460C46054600F040F86B
:10190000036893F80101012806D0FF2C0FD8185D59
:1019100068B101202C7070BDD3F807013246214612
:1019200003F2071303442846BDE8704018474FF000
:10193000FF3070BD754600F0EBF8AE460500694615
:10194000534620F00700854618B020B5FEF7B2FCDC
:10195000BDE820404FF000064FF000074FF00008B0
:101960004FF0000B21F00701AC46ACE8C009ACE831
:10197000C009ACE8C009ACE8C0098D46704700005A
:1019800010B500F005F8001D10BD00BFC930000003
:1019900000487047A40F00202DE9F0411F4604467F
:1019A00003260168072A01F4006004DB08B116A5CC
:1019B00005E016A503E008B115A500E015A521F086
:1019C00010002060A069C01EA0610FB1401EA06180
:1019D0002046FEF756FF4FB1D4E901213846904723
:1019E000206A401C2062C01C206206E0206AFAE7E0
:1019F000D4E9012115F8010B9047761EF8D2204654
:101A0000FEF755FFBDE8F0814E414E006E616E005D
:101A1000494E4600696E66002DE9F047814616463C
:101A20008AB0354878440DC88DE80D0032487844B6
:101A3000801C03AC0DC884E80D0041F69B300844BF
:101A4000372190FBF1F290FBF1F5A5F1800501FB48
:101A500012041B3C02D56442012000E00020DFF8A4
:101A600098A080460027FA44AAF1BE0A0EE0E007DB
:101A70000AD03246684607EB470101230AEB810191
:101A800000F01BFB8DE8070064107F1C002CEED1DA
:101A9000194F7F44AE3F19E0E80715D007EB04105B
:101AA0000DF1180A90E80E008AE80E00C068F042B6
:101AB00001D1981908903246012306A903A800F025
:101AC000FCFA03AB83E807006D10641C002DE3D122
:101AD0004FF0010332466946B8F1000F03A802D067
:101AE00000F0D6FA01E000F0E8FAC9E90001C9F80F
:101AF00008200AB0BDE8F0874831000010B5044660
:101B0000AFF300802046BDE81040FEF7AEBB0000FA
:101B100000487047840F00204FF0013C50F8042B20
:101B200051F8043B9A4221D1A2EB0C03934313EAF0
:101B3000CC1317D150F8042B51F8043B9A4215D11D
:101B4000A2EB0C03934313EACC130BD150F8042BF4
:101B500051F8043B9A4209D1A2EB0C03934313EAD8
:101B6000CC13DBD04FF00000704700BFD01A01BA91
:101B7000B1FA81F101F0180122FA01F0CB40C1F174
:101B80002001DBB2C0B2C01A2CFA01F3D11A914382
:101B900011EAC311E6D170475FEA400C08BF91F02B
:101BA000000F4FEA8C234FEAC12243EA51514FEA1A
:101BB0001C5018BF00F5F0404FEA300018BF41F04C
:101BC00000415FEA6C5C00F02980BCF1FF3F08BF78
:101BD00040F080407047130C06BF12044FF0100C09
:101BE0004FF0000C130E04BF12020CF1080C130F7F
:101BF00004BF12010CF1040C930F04BF92000CF10E
:101C0000020CD30F04BF52000CF1010C11464FF02F
:101C10000002A0F11F00A0EB0C00704711F0004F74
:101C200008BF704731F000413FF4D5AF0B0C06BF41
:101C300009044FF0100C4FF0000C0B0E04BF09020A
:101C40000CF1080C0B0F04BF09010CF1040C8B0FF5
:101C500004BF89000CF1020CCB0F04BF49000CF14A
:101C6000010CCCF12003A0EB0C0022FA03F302FAE2
:101C70000CF241EA030100F10100704720F07F4CB3
:101C800080EA030023F07F47ACEB070303F57C53A6
:101C900000F0004003F1FF032DE980494FEA154BA6
:101CA00009B44FEA144325EA0B4E24EA03480FF225
:101CB000042606EB132749083E785FEA320203FB4D
:101CC0000667C7F5000707FB06F64FEA54374FEAE9
:101CD000D64606F1020607FB066CCCF1005C4FEA23
:101CE0001C472CEA074C07FB06F40CFB06F504EB3B
:101CF00015464FEA961634BF00204FF000404FEAD9
:101D0000D13706FB07FC4FEA1C4C0CFB0BF7D21B30
:101D100003FB0CF761EB07010CFB0EF7B0EB074080
:101D200072EB17420CFB08F734BFA2EB0742B2EB91
:101D3000074261EB17414FEA0C444FEA910706FB5B
:101D400007FC4FEA1C4C0CFB0BF7B0EBC74072EBE7
:101D5000573203FB0CF734BFA2EBC742B2EBC742CA
:101D600061EB57310CFB0EF7B0EBC70072EB57720B
:101D70000CFB08F734BFA2EBC702B2EBC70261EB62
:101D80005771039F4FEA816141EA921104EBCC0441
:101D90004FEAD1374FEA826206FB07FC42EA901213
:101DA0004FEA80604FEA1C4C0CFB0BF7D21B03FB85
:101DB0000CF761EB07010CFB0EF7B0EB074072EB81
:101DC00017420CFB08F734BFA2EB0742B2EB074205
:101DD00061EB17414FEA8C554FEA910704EB9C24C5
:101DE00006FB07FC4FEA1C4C0CFB0BF7B0EBC740A3
:101DF00072EB573203FB0CF734BFA2EBC742B2EBD6
:101E0000C74261EB57310CFB0EF7B0EBC70072EB2A
:101E100057720CFB08F734BFA2EBC702B2EBC70244
:101E200061EB577115EB4C254FEA816141EA921144
:101E30004FEA82624FEAD13742EA901206FB07FC72
:101E400044F100044FEA80604FEA1C4C0CFB0BF796
:101E5000D21B03FB0CF761EB07010CFB0EF7B0EB99
:101E6000074072EB17420CFB08F734BFA2EB0742A6
:101E7000B2EB074261EB174115EB1C154FEA8131BC
:101E800041EA92414FEA823242EA90424FEA803080
:101E90004FEA0C7644F1000448EA03434EEA0B484B
:101EA0004FF0000EB2EB080C71EB030724BF624643
:101EB00039464EEB0E0E4FF0000B001852414941CF
:101EC0004BEB0B0BB2EB080C71EB03077BF1000B38
:101ED00024BF624639464EEB0E0E4FF0000B001841
:101EE000524149414BEB0B0BB2EB080C71EB030772
:101EF0007BF1000B24BF624639464EEB0E0E51EAD1
:101F0000020718BF46F0010616EB0E7655F10002E7
:101F100054F1000103D5BDE88901BDE80088BDE8A2
:101F20008901BDE80048B619524141EB0101A3F116
:101F30000103704780807F7E7D7C7B7A797877761D
:101F400076757473727171706F6E6E6D6C6C6B6A96
:101F50006A69686867666665646463636261616034
:101F6000605F5F5E5E5D5D5C5C5B5B5A5A595958B1
:101F7000585757565655555554545353525252511B
:101F8000515050504F4F4F4E4E4D4D4D4C4C4C4B71
:101F90004B4B4A4A4A4949494848484747474746B8
:101FA00046464545454444444443434343424242F4
:101FB00042414141002B9C4630D477002BD01CB5C8
:101FC0004FEA370703B44FF010004FF01001BAF199
:101FD000000F06D0BCF1000FDCBF40F0080040F05D
:101FE00008014FF000000FBCBDE810400BF1010BE1
:101FF000BBF1010F08BF5FEA170722BF12F1010210
:1020000011F101014FF0004143F1000300F00040E5
:1020100043EA00007047F9D35708D0E746EA06467E
:1020200013F1400F4FEA16461FDD13F1200FDFBFFB
:1020300016430A46002120335B42BED0C3F120077D
:1020400046EA064602FA07F74FEA164646EA070648
:10205000C3F1200722FA03F201FA07F721FA03F18C
:102060004FF0000342EA0702A7E746EA020646EA03
:1020700006464FEA164646EA0106BCBF46EA064651
:10208000360C4FF000034FF000024FF0000194E7D0
:102090002DE9804C9A46934670B491E8380007C801
:1020A00031EA400C48BF34EA430C03D5FFF7E6FDA4
:1020B000FFF780FFF0BCBDE8008C2DE9804C9A460C
:1020C000934670B491E8380007C810F0804F08BFFD
:1020D00013F0804F03D100F005F8FFF76BFFF0BC61
:1020E000BDE8008C20F07F4780EA030023F07F4C9E
:1020F00007EB0C03A3F57C5300F00040A3F1FE03B3
:1021000092F0000F00F0B38095F0000F00F07780A0
:102110002DE901494FEA11404FEA144621EA0048EF
:1021200000FB06FC24EA064708FB06F607FB08F856
:1021300000FB07F718EB06484CEB164C4FEA124B26
:1021400018EB07484FEA15464CEB174022EA0B4EB6
:102150000BFB06FC25EA06470EFB06F607FB0EFE08
:102160000BFB07F71EEB064E4CEB164C4FF0000630
:102170001EEB074E4CEB174B18EB0B0840F1000021
:1021800018EB0E0B58EB000840F100008F1A4FF0CF
:1021900000013CBFC943661B14BFB5EB040C002112
:1021A0003CBFC943F61B4FEA17444EEA8E0E27EA9E
:1021B00004454FEA1C4704FB07622CEA074C05FB69
:1021C00007F70CFB05F604FB0CFC16EB074642EB8D
:1021D000174216EB0C4642EB1C421BEB060658EB73
:1021E0000202414146EA9E0601D5BDE80189B619C1
:1021F000524141EB0101A3F10103BDE801894FEA1E
:1022000014454FEA114724EA054621EA074C05FB2D
:1022100007F406FB07F70CFB06F105FB0CFC11EBC2
:10222000074144EB17444FEA124711EB0C4144EBD2
:102230001C4422EA074C05FB07F206FB07F70CFBE0
:1022400006F605FB0CFC16EB074642EB174216EBB5
:102250000C4642EB1C456A1854F1000148BF704718
:10226000B619524141EB0101A3F10103704795F00A
:10227000000F37D04FEA11424FEA144721EA0246D5
:1022800024EA074C02FB07F106FB07F70CFB06F4F8
:1022900002FB0CFC14EB074441EB17414FEA1547D6
:1022A00014EB0C4441EB1C4125EA074C02FB07F5FB
:1022B00006FB07F70CFB06F602FB0CFC16EB0746C9
:1022C00045EB174516EB0C4645EB1C42121951F134
:1022D000000148BF7047B619524141EB0101A3F11B
:1022E000010370474FEA14454FEA114724EA0546B7
:1022F00021EA074C05FB07F106FB07F70CFB06F28A
:102300004FF0000605FB0CFC12EB074241EB1741B6
:1023100012EB0C4251EB1C4148BF7047921841EB45
:102320000101A3F101037047FEE770B50446406860
:102330008047E17811F0070F02D02288521C2280DA
:10234000B0EBD11F04BF21F03800E0700FD04FF088
:10235000005202EBB1114FEAB161C1F3C202E17068
:10236000032A04D360F3C71121F03800E070E0784D
:10237000002500F00701062928BF70BDDFE801F045
:10238000031F47908FA4C0F38011B1EBD01FA0783A
:1023900020F0F0001EBF8030A07070BDA070A1685A
:1023A00000291CBF204688472580A07820F00F0018
:1023B000401CA070E07820F00700401C6EE0C0F3E5
:1023C0008011B1EBD01F0FD0A07820F0F0001030BA
:1023D000A070E16800291CBF204688472580E0786E
:1023E00020F00700801C59E02088C82898BF70BDE5
:1023F000A07820F0F0005030A070E16900291CBFE7
:1024000020468847E07820F00700401D46E0C0F3F2
:102410008011B1EBD01F24D1A07820F0F000A07083
:10242000A16800291CBF20468847A0784FF0805142
:1024300001EB30104FEA3070A07000F00F0002285E
:1024400004D1A16900291CBF2046884721690029C1
:102450001CBF204688472580E07820F00700C01C7C
:102460001CE020883C2898BF70BDA07800F00F01C8
:10247000012902D002290AD00DE020F0F00030300E
:10248000A070616900291CBF2046884703E020F046
:10249000F0004030A070E07820F00700E07070BDE0
:1024A000C0F38011B1EBD01F08BF70BDA07820F041
:1024B000F0001030A070E16800291CBF204688475A
:1024C00020883C28E7D289E7C0F38011B1EBD01F08
:1024D000A07820F0F00009D16030A070216A0029B6
:1024E00008BF70BD2046BDE8704008471030A0709E
:1024F000E16800291CBF20468847E07820F00700EB
:10250000E07070BD064810B54468002C08BF10BDCF
:102510002046FFF70AFF646A002CF9D110BD0000C5
:102520005800002010B4002200EB010C41F22103FE
:10253000604514D291B210F8012B42F48072490028
:10254000520012F4807F18BF491C11F4803F18BF5D
:10255000594012F4803FF2D08AB28445EAD890B252
:102560004FF480714000490011F4807F18BF401C77
:1025700010F4803F18BF584011F4803FF2D080B271
:102580004FF480714000490011F4807F18BF401C57
:1025900010F4803F18BF584011F4803FF2D010BCB7
:1025A00080B270477047000070B505461249A0F12F
:1025B0000060884204D340F2A71110A002F0AAF9EB
:1025C0004FF4302000F098F8042818BF70BD154C67
:1025D000206940F0020020616561206940F0400000
:1025E00020614FF4302000F087F8216941F6FD7238
:1025F0001140216170BD0000FFFF0F0073746D3347
:1026000032663130335C6C69627261726965735C29
:1026100073746D3332663130785F666C6173682E27
:1026200063000000002002400248016941F080017F
:10263000016170470020024001B400984105490D36
:102640001ABF012101EBD020C00A01B07047000081
:10265000F8B505460E46002000901549A5F100602A
:10266000884204D340F2AF2112A002F053F94FF494
:10267000005000F041F8042818BFF8BD174C20693D
:1026800040F0010020612E804FF4005000F034F83B
:1026900041F6FE77042807D1A81C00900099300C61
:1026A0000880B81C00F028F8216939402161F8BD84
:1026B000FFFF0F0073746D3332663130335C6C6929
:1026C000627261726965735C73746D333266313046
:1026D000785F666C6173682E630000000020024022
:1026E000034802494160034941607047230167453F
:1026F00000200240AB89EFCD174902460420CB6889
:1027000013F0010F25D1CB6813F0040F18BF02207E
:102710001AD1C96811F0100F18BF032014E0CB685C
:10272000042013F0010F18BF01200AD1CB6813F069
:10273000040F18BF022004D1CB6813F0100F18BF8C
:102740000320521E012804D0002A18BF704705201C
:102750007047002AE3D1FAE7002002402DE9F0415A
:1027600004460026A0F180400D46B0F584301CBF21
:10277000A4F18040B0F586301BD0A4F18040B0F5C4
:1027800088301CBFA4F18040B0F58A3011D0A4F18C
:102790008040B0F58C301FBFA4F18040B0F58E3082
:1027A000A4F18040B0F5903003D0B2213DA002F0FA
:1027B000B1F8E878002818BF042810D0282818BFDE
:1027C00048280CD0142818BF102808D01C2818BF7F
:1027D000182804D04FF0B30132A002F09BF82888EB
:1027E00018B9B4212FA002F095F8E87800F00F078F
:1027F00010F0100F0CD0A87801281CBF0228032865
:1028000004D04FF0BB0127A002F084F8A87807435A
:1028100028784FF00F0C10F0FF0F4FF0010318BF96
:1028200021681AD02A8803FA06F002EA00028242DE
:102830000FD1B2000CFA02F821EA080107FA02F2FD
:102840001143EA78282A08BF606102D0482A08BFED
:102850002061761C082EE5D321602888FF2886BFDA
:1028600062680020BDE8F08100F108012E8803FABB
:1028700001F10E408E420FD186000CFA06F822EAD2
:10288000080207FA06F63243EE78282E08BF616187
:10289000EE78482E08BF2161401C0828E4D362600E
:1028A000BDE8F08173746D3332663130335C6C692E
:1028B000627261726965735C73746D333266313054
:1028C000785F6770696F2E630000000070B50D4679
:1028D0000446012818BF022C7ED0042C18BF082CF7
:1028E0007AD0A4F5A01010381CBFA4F5A010B0F148
:1028F000300071D0A4F5B01040381CBFA4F5B01062
:10290000B0F1C00068D0A4F5C010B0F580701CBF55
:10291000A4F5C010B0F500705ED0A4F5C010B0F5FD
:1029200040701CBFA4F5C010B0F502307CD0A4F5F7
:10293000C010B0F5033018BFB4F5805F74D0B4F5A3
:10294000EA1F18BFB4F5EB1F6ED0B4F5004F1CBFE3
:102950006FF40010C44267D0A4F50010801E1CBFA5
:10296000A4F50010B0F104005ED0A4F50010083802
:102970001CBFA4F50010B0F1100055D0B4F1201F19
:102980001CBFA4F50010B0F140004DD0A4F54010DC
:10299000B0F580701CBFA4F54010B0F5007043D0B6
:1029A000A4F54010B0F580601CBFA4F50010B0F590
:1029B000885039D0A4F50010B0F5005018BFB4F518
:1029C000011F31D06FF00040C4421CBF3348844225
:1029D0002AD03348844200E026E01CBF31488442BC
:1029E00022D0314884421CBF304884421CD0304839
:1029F00084421CBF2F48844216D02F4884421CBFFB
:102A00002E48844210D02E4884421CBF2D48844258
:102A10000AD02D4884421CBF2C48844204D040F286
:102A20002A212BA001F076FF002D18BF012D04D024
:102A300040F22B2126A001F06DFF2F4814F0004F2B
:102A400014BFC2694268C4F303434FF4401131EA32
:102A5000040C4FEA54514FEA0111A6B206FA01F1F3
:102A600014D014F4801F08BF8A4304D04FF0030C25
:102A70000CFA03F39A4342F07062002D18BF0A4328
:102A800014F0004F14BFC261426070BD436822F071
:102A9000706223F070634360EFE700000200008083
:102AA00004000080080000801000008020000080EA
:102AB0004000008080000080000100800002008053
:102AC00000040080000800800010008000200080CA
:102AD00073746D3332663130335C6C69627261726B
:102AE0006965735C73746D3332663130785F67701B
:102AF000696F2E630000000000000140FEE7000047
:102B00001449CA78002A1CBFC878704701220028DF
:102B100018BF8A704B78104813B1012B0ED016E005
:102B20008B782BB1D0F82031002B08BF4A700ED023
:102B3000D0F82001012808BF8A7008E000228A70BE
:102B40004A70D0F82001002804BF012070470020FF
:102B5000704700005300002000002142FEE770474C
:102B600070B50446C0780F25002818BF012804D08E
:102B70004FF0750120A001F0CDFE6078102803D33E
:102B800076211DA001F0C6FEA078102803D377217E
:102B900019A001F0BFFEE078012108B31D480068CC
:102BA000637800F4E060C0F5E060000AC0F1040260
:102BB00003FA02F2A37825FA00F0184010432278B5
:102BC000000102F1E02282F80004207800F01F02E8
:102BD00091404009800000F1E020C0F8001170BD74
:102BE000207800F01F0291404009800000F1E020B1
:102BF000C0F8801170BD000073746D3332663130DF
:102C0000335C6C69627261726965735C6D69736370
:102C10002E6300000CED00E010B50446B0F5E06F47
:102C200018BFB4F5C06F0CD0B4F5A06F1CBFB4F5DD
:102C3000806FB4F5407F04D04FF0630104A001F031
:102C400069FE0A4944F0FD7040F08060086010BDE4
:102C500073746D3332663130335C6C6962726172E9
:102C60006965735C6D6973632E6300000CED00E0B1
:102C70007047000070B505460D480E46054200D16C
:102C800025B940F269410BA001F044FE124C002E20
:102C900004BFE069A84308D0012E04D040F26A4185
:102CA00004A001F037FEE0692843E06170BD000038
:102CB0000036018173746D3332663130335C6C6978
:102CC000627261726965735C73746D333266313040
:102CD000785F7263632E63000010024070B5054692
:102CE0000D480E46054200D125B940F24A410BA0DD
:102CF00001F010FE124C002E04BFA069A84308D0BA
:102D0000012E04D040F24B4104A001F003FEA06963
:102D10002843A06170BD00000200C0FF73746D33D2
:102D200032663130335C6C69627261726965735C02
:102D300073746D3332663130785F7263632E630073
:102D400000100240254910B44A6812F00C03244ACE
:102D500018BF042B01D0082B01D0026015E04A688F
:102D60004B6802F470124FF0020C13F4803F0CEB2E
:102D7000924203D04B6813F4003F03D0194B5A43DF
:102D8000026002E0164B5A4302604A680F2303EACE
:102D90001212154B9A5CD0F800C02CFA02F2426075
:102DA000D1F804C0072404EA1C2C13F80CC022FA42
:102DB0000CFCC0F808C0D1F804C004EADC2C13F8FD
:102DC0000C30DA40C2604968032303EA9131074BB3
:102DD000595CB2FBF1F1016110BC70470010024078
:102DE00000127A0000093D00380000203400002065
:102DF00070B505464C1E28BF084E0BD32021304627
:102E000000F09AFC20B1064800882870002070BDB0
:102E1000641EF3D24FF0FF3070BD0000004C004044
:102E2000044C00407047000010B51CA0FDF7E6FA06
:102E3000FFF756FC274801F04FF80446FFF7F4FB74
:102E40004FF47A7001F0B4FD002C09DD22A0FDF7EB
:102E5000D5FA2246BDE8104029492AA0FDF7CEBA8E
:102E6000B4F1FF3F0AD014F1020F0CD014F1030F9C
:102E70000ED0BDE810402BA0FDF7C0BABDE8104051
:102E800030A0FDF7BBBABDE810403EA0FDF7B6BAD2
:102E9000BDE8104042A0FDF7B1BA0000B5C8B4FDCE
:102EA000C9CFCEBBBBFACFC2D4D8415050202E2EB2
:102EB0002E2028B7A2CBCD2027412720BBF22027E8
:102EC000612720CDCBB3F6B5C8B4FDA3A1290D0A67
:102ED00000000000040A00200D0A50726F67726142
:102EE0006D6D696E6720436F6D706C6574656420ED
:102EF0005375636365737366756C6C79210D0A0095
:102F0000040E00204E616D653A202573202020209C
:102F10002053697A653A25642042797465730D0AF5
:102F2000000000000A0D4661696C656420746F2022
:102F300072656365697665207468652066696C658D
:102F4000210A0D000A0A0D54686520696D616765E4
:102F50002073697A652069732068696768657220E3
:102F60007468616E2074686520616C6C6F7765644D
:102F7000207370616365206D656D6F7279210A0D34
:102F8000000000000A0A0D56657269666963617483
:102F9000696F6E206661696C6564210A0D0000002E
:102FA0000D0A0A41626F727465642062792075733C
:102FB00065722E0A0D0000002DE9F04700251C4C1B
:102FC0001C4E0227A8464FF0010900BF05EB450043
:102FD00014F8301039B101290BD0022918D0294634
:102FE00015A0FDF70BFA681C85B2022DEED3BDE8E3
:102FF000F0873268716804EBC0014B689A42F2D3E3
:1030000004F83070D1E903208B8A19469047EAE72B
:1030100004EBC0014A78002A08BF04F83080E2D0EF
:10302000326873688B681A444A6004F83090DAE7B3
:10303000D40900201000002074696D65725B25645E
:103040005D207374617465206572726F72210D0A60
:103050000000000010B54FF0E024042804BF2069F0
:1030600040F0040009D010F1050F03D0CA2104A0DC
:1030700001F050FC206920F00400206110BD000028
:1030800073746D3332663130335C6C6962726172B5
:103090006965735C6D6973632E63000010B51A4C2B
:1030A0001422002320686168FDF717F952EA030033
:1030B00008D116480078012804D10020FFF720FD30
:1030C000134908700522206800236168FDF705F99F
:1030D00052EA030005D10F480078012808BFFFF726
:1030E00011FA0A22206800236168FDF7F6F852EA17
:1030F000030018BF10BD08480078012818BF10BD94
:10310000BDE81040FFF758BF10000020530000201A
:103110005600002058000020480000200448826823
:10312000C168521C41F100018260C160FFF7B6BF67
:1031300008000020374882B0016841F001010160B9
:103140004168354A11404160016821F4102121F0A5
:1031500080710160016821F480210160416821F4DF
:10316000FE0141604FF41F01816000220192009234
:10317000016841F480310160016801F4003100917F
:103180000199491C0191009919B90199B1F5A06FF4
:10319000F2D1016811F4003F08BF009233D0012141
:1031A00000911E490A6842F010020A600A6822F083
:1031B00003020A600A6842F002020A604168416044
:1031C00041684160416841F480614160416821F497
:1031D0007C114160416841F4E8114160016841F0AF
:1031E00080710160016811F0007FFBD0416821F01F
:1031F00003014160416841F002014160416801F012
:103200000C010829FAD106494FF00060086002B0AD
:1032100070470000001002400000FFF8002002404C
:1032200008ED00E070B5294E40F22441304600F030
:10323000E7FA274D274CA0B1304600F0D9FC208892
:10324000C0F30E00284410F8021C00200D2921882C
:10325000C1F30E0118BF68540AD0208840F4004022
:1032600020800821304600F067FA01280ED106E0E0
:10327000294401F8020C2088801E2080EDE70821F7
:10328000304600F0C1F9304600F0B2FC40F2255162
:10329000304600F0B5FA002808BF70BD304600F097
:1032A000A7FC2188C0B211F4004F18BF70BD21885F
:1032B000C1F30E01C72928BF70BD2188C1F30E01DB
:1032C00068542088401C208070BD0000004C0040E5
:1032D0000C0900201E00002070B50546012188B0B1
:1032E000C804FFF7C7FC01211020FFF7F7FC4FF4DB
:1032F0008060ADF8180003248DF81A401820344E71
:103300008DF81B0006A93046FFF728FAF014ADF837
:1033100018008DF81A4004248DF81B4006A9304689
:10332000FFF71CFA34208DF81C008DF81D40002496
:103330008DF81E4001208DF81F0007A8FFF710FC34
:10334000ADF810400C20234EADF80C40ADF8120043
:103350000295ADF80E40ADF8144002A9304600F0D9
:1033600065FB012240F22551304600F0D3FA0122DC
:1033700040F22441304600F0CDFA0121304600F001
:1033800095F915A202AB40F22D1117480192FDF7F5
:103390001BF8154D16E08021304600F0CDF90028CD
:1033A000F9D0295D601C84B2304600F059FC402100
:1033B000304600F0C1F90028F9D0B4F5967F24BF5B
:1033C00008B070BD285D0028E5D108B070BD0000D0
:1033D00000100140004C00405541525434204F4BE6
:1033E0002E2E2E0D0A000000E007002070B5294E99
:1033F00040F22441304600F003FA274D274CA0B19B
:10340000304600F0F5FB2088C0F30E00284410F889
:10341000021C00200D292188C1F30E0118BF685439
:103420000AD0208840F4004020800821304600F077
:1034300083F901280ED106E0294401F8020C208806
:10344000801E2080EDE70821304600F0DDF8304690
:1034500000F0CEFB40F22551304600F0D1F90028B3
:1034600008BF70BD304600F0C3FB2188C0B211F424
:10347000004F18BF70BD2188C1F30E01B1F5957FD3
:1034800088BF70BD2188C1F30E0168542088401C9C
:10349000208070BD00380140A001002018000020ED
:1034A00070B5294E40F22441304600F0A9F9274D6D
:1034B000274CA0B1304600F09BFB2088C0F30E00E3
:1034C000284410F8021C00200D292188C1F30E01A8
:1034D00018BF68540AD0208840F40040208008219A
:1034E000304600F029F901280ED106E0294401F800
:1034F000020C2088801E2080EDE70821304600F075
:1035000083F8304600F074FB40F22551304600F05D
:1035100077F9002808BF70BD304600F069FB2188AC
:10352000C0B211F4004F18BF70BD2188C1F30E0165
:10353000C72928BF70BD2188C1F30E0168542088B7
:10354000401C208070BD0000004400402405002085
:103550001A00002070B5294E40F22441304600F098
:103560004FF9274D274CA0B1304600F041FB208891
:10357000C0F30E00284410F8021C00200D292188F9
:10358000C1F30E0118BF68540AD0208840F40040EF
:1035900020800821304600F0CFF801280ED106E047
:1035A000294401F8020C2088801E2080EDE70821C4
:1035B000304600F029F8304600F01AFB40F2255161
:1035C000304600F01DF9002808BF70BD304600F0FD
:1035D0000FFB2188C0B211F4004F18BF70BD2188C5
:1035E000C1F30E01C72928BF70BD2188C1F30E01A8
:1035F00068542088401C208070BD000000480040B6
:10360000180700201C0000202DE9F0411A4EDFF8B9
:103610006C801B4F0D460446B04218BF44450FD086
:10362000BC421FBFA4F18040B0F59840A4F1804097
:10363000B0F5A04004D040F29E3112A001F06AF92A
:1036400035F4587000D125B940F29F310DA001F03A
:1036500061F915F4007F18BFB44208D0444518BF83
:10366000BC4204D040F2A33106A001F053F9E84374
:103670002080BDE8F0810000003801400044004097
:103680000048004073746D3332663130335C6C69CE
:10369000627261726965735C73746D333266313066
:1036A000785F75736172742E6300000070B5044614
:1036B000A0F180400D46B0F59C301CBFA4F18040C5
:1036C000B0F5884012D0A4F18040B0F590401FBF03
:1036D000A4F18040B0F59840A4F18040B0F5A0403E
:1036E00004D04FF4B1710AA001F014F9002D04BF09
:1036F000A08920F4005009D0012D04D040F26311BC
:1037000003A001F007F9A08940F40050A08170BD2A
:1037100073746D3332663130335C6C69627261721E
:103720006965735C73746D3332663130785F7573BD
:103730006172742E630000002DE9F047DFF88C8081
:103740000026234FDFF88C900C460546404518BFF5
:10375000BD420FD04D451FBFA5F18040B0F5984048
:10376000A5F18040B0F5A04004D040F26E311AA01F
:1037700001F0D0F8012C18BF802C20D0402C18BFAD
:10378000202C1CD0102C18BFB4F5807F17D0B4F5B6
:10379000007F0AD0082C1CBF042C022C0FD040F252
:1037A0006F310DA001F0B6F809E045451CBFBD42E0
:1037B0004D4504D040F2733107A001F0ABF82888E2
:1037C000204218BF01263046BDE8F087003801408E
:1037D000004400400048004073746D33326631305D
:1037E000335C6C69627261726965735C73746D33AA
:1037F00032663130785F75736172742E6300000039
:103800002DE9F047364F0026DFF8D880DFF8D89052
:103810000C460546B84218BF45450FD04D451FBF61
:10382000A5F18040B0F59840A5F18040B0F5A040EA
:1038300004D040F2C1312DA001F06CF8282C1CBF3F
:10384000A4F5E060B0F127002DD0A4F5C0602638C3
:103850001CBFA4F5A060B0F1250024D0A4F58060C1
:1038600024381CBFA4F50060B0F146001BD0A4F5BD
:1038700010606A380DD0B4F5587F1CBFB4F5187FBE
:10388000B4F5B07F0FD040F2C23118A001F042F879
:1038900009E0BD421CBF45454D4504D040F2C6314C
:1038A00012A001F037F804F01F000122C4F3421106
:1038B00002FA00F0012904BFA989084004D00229B6
:1038C0000CBF298AA98A0840210A02FA01F12A8834
:1038D000114000281CBF002901263046BDE8F087B2
:1038E00000380140004400400048004073746D33CC
:1038F00032663130335C6C69627261726965735C27
:1039000073746D3332663130785F75736172742E03
:10391000630000002DE9F047374FDFF8E080DFF863
:10392000E09016460D460446B84218BF44450FD0F5
:103930004C451FBFA4F18040B0F59840A4F18040F1
:10394000B0F5A04004D040F289112EA000F0E2FFB3
:1039500040F66A1A282D1CBFA5F5E060B0F12700DB
:103960001AD0A5F5C06026381CBFA5F5A060B0F13F
:10397000250011D0A5F5806024381CBFA5F5006096
:10398000B0F1460008D0554518BF602D04D04FF463
:10399000C5711CA000F0BEFF002E18BF012E04D080
:1039A00040F28B1117A000F0B5FF554509D1BC427C
:1039B0001CBF44454C4504D040F28F1111A000F0CB
:1039C000A9FF05F01F010122C5F3421002FA01F11F
:1039D000012808BF04F10C0005D002280CBF04F137
:1039E000100004F11400002E026814BF114322EAF3
:1039F00001010160BDE8F08700380140004400404B
:103A00000048004073746D3332663130335C6C694A
:103A1000627261726965735C73746D3332663130E2
:103A2000785F75736172742E630000002DE9F041B8
:103A3000604E614FDFF8848186B00D460446B04287
:103A400018BFBC420ED044451FBFA4F18040B0F562
:103A50009840A4F18040B0F5A04003D0B82158A010
:103A600000F058FF28686049401E884203D3B921FE
:103A700053A000F04FFFA888002818BFB0F5805F62
:103A800004D04FF0BA014EA000F044FFE8880028AF
:103A900018BFB0F5805F0AD0B0F5005F18BFB0F571
:103AA000405F04D04FF0BB0145A000F033FF2889F0
:103AB00000281CBFB0F5806FB0F5C06F04D04FF088
:103AC000BC013FA000F026FF688930F00C0100D156
:103AD00018B9BD213AA000F01DFFA889002818D010
:103AE000B0F5807F1CBFB0F5007FB0F5407F06D0F9
:103AF0004FF0BE0132A000F00DFFA88948B1B442DA
:103B00001CBFBC42444504D04FF0C2012CA000F0C1
:103B100001FF208A4CF6FF710840E98808432082A3
:103B2000A0894EF6F3110840A9882A8911436A89B1
:103B300010430843A081A08A4FF6FF410840A9899D
:103B40000843A0826846FFF7FDF8B4420CBF039813
:103B50000298A18911F4004F00EBC00101EB0010A5
:103B6000296814BF49008900B0FBF1F01F4A6FF0CB
:103B7000180CA2FB0031490909010B0903FB0CF3E6
:103B800000EB8300A38913F4004F4FF0320314BFFE
:103B900003EBC00003EB0010A2FB00204FEA501023
:103BA00014BF00F0070000F00F000843208106B0AA
:103BB000BDE8F0810038014000440040004800406A
:103BC00073746D3332663130335C6C69627261726A
:103BD0006965735C73746D3332663130785F757309
:103BE0006172742E6300000020AA44001F85EB510F
:103BF00010B50446A0F18040B0F59C301CBFA4F184
:103C00008040B0F5884012D0A4F18040B0F59040DB
:103C10001FBFA4F18040B0F59840A4F18040B0F5FA
:103C2000A04004D04FF4197103A000F073FEA088E7
:103C3000C0F3080010BD000073746D33326631307C
:103C4000335C6C69627261726965735C73746D3345
:103C500032663130785F75736172742E63000000D4
:103C600070B50446A0F180400D46B0F59C301CBFF5
:103C7000A4F18040B0F5884012D0A4F18040B0F5A6
:103C800090401FBFA4F18040B0F59840A4F180405F
:103C9000B0F5A04004D040F2532107A000F03AFE56
:103CA000B5F5007F04D34FF4157103A000F032FE88
:103CB000C5F30800A08070BD73746D333266313077
:103CC000335C6C69627261726965735C73746D33C5
:103CD00032663130785F75736172742E6300000054
:103CE000FEE7000038B500218DF800100C46FFF704
:103CF000F3FA3E4D002240F225512846FFF70AFE16
:103D0000002240F224412846FFF704FE38A0FCF7C9
:103D100075FB3C4D3CA0FCF771FB3DA0FCF76EFB36
:103D20004AA0FCF76BFB4CA0FCF768FB50A0FCF72B
:103D300065FB37A0FCF762FB29466846FFF758F899
:103D40009DF8000031281CD0322806D04FF47A703C
:103D500000F02EFE641C052CDCD34AA0FCF74EFBC1
:103D60002BA0FCF74BFB642000F022FE4A480168C0
:103D70004A4A1140B1F1005F2FD049A0FCF73EFB49
:103D800038BD4B48FCF73AFBFEF7AAFC494800F067
:103D9000A3F80446FEF748FC4FF47A7000F008FEE2
:103DA000002C08DD4448FCF729FB224643494448DF
:103DB000FCF724FBD1E7B4F1FF3F08BF414809D02D
:103DC00014F1020F08BF404804D014F1030F0CBFD8
:103DD0003E483F48FCF712FBBFE741683D4C21607D
:103DE0000068FCF752FA2068804738BD004C00405C
:103DF000BDF8C8EB20626F6F746C6F616465720D03
:103E00000A000000A08601000D0A0D0A0000000053
:103E10002A2A2A2A2A2A2A2A2A2A2A2A2A2A2A2A02
:103E20002A2A2A2A2A2A2A2A2A2A2A2A2A2A2A2AF2
:103E30002A2A2A2A2A2A2A2A2A2A2A2A2A2A2A2AE2
:103E40002A2A2A2A2A2A2A2A2A0D0A00C7EBD1A1BD
:103E5000D4F13A0D0A000000312EB8FCD0C2D3A62E
:103E6000D3C3C7F8B3CCD0F2A1A30D0A0000000061
:103E7000322ED4CBD0D0415050B3CCD0F2A1A30D30
:103E80000A0000000D0A0D0ABDF8C8EB4150502E83
:103E90002E2E0D0A00000000005000080000FE2F2A
:103EA000C3BBD3D04150502E2E2E0D0A0A00000065
:103EB0009C2E0008040A0020D82E0008040E0020C2
:103EC000042F0008442F0008842F0008A02F0008AA
:103ED000242F0008700000202DE9F14FADF58B6D07
:103EE0000021FE4EFE4DCDF81814CDF83C14CDF84F
:103EF0003414CDF844140020CDF81C04DDF8580427
:103F0000CDF838044FF480196F460DF58868A9F193
:103F1000010420212846FFF70FFC002836D0F14C81
:103F2000208888F800009DF84004182800F0598186
:103F300030DC012800F0B980022800F0EB80042872
:103F400000F02881E94AE849642390880B54401C1A
:103F500080B265230B54401C80B266230B54401C76
:103F600080B22D230B54401C80B20B54401C80B2F5
:103F70003E230B54401C80B20D230B54401C80B2D6
:103F80000A230B54401C908000F0D6B9641EC0D2A6
:103F900000F0D2B9412818BF6128D3D1D34ED24CFA
:103FA0004FF04108B0884FF042014FF02D0704F860
:103FB000008000F1010080B24FF00D09215400F1A2
:103FC000010080B24FF04F01215400F1010080B296
:103FD0004FF05201215400F1010080B24FF0540122
:103FE000215400F1010080B24FF03E01275400F14E
:103FF000010080B24FF00A0A275400F1010080B29C
:10400000215400F1010080B24FF0180104F8009033
:1040100000F1010080B204F800A000F10100B080BE
:104020002846FFF71DFE80212846FFF785FB002864
:10403000F9D018212846FFF713FE80212846FFF704
:104040007BFB0028F9D0B18843206054481C80B223
:10405000612104F80080401C80B22754401C80B2CB
:104060002154401C80B262212154401C80B26F2137
:104070002154401C80B272212154401C80B2742112
:104080002154401C80B23C212154401C80B204F8D1
:104090000090401C80B204F800A0401CB0800DF2DB
:1040A0005C4D6FF00200BDE8F08F80218F4BCDF8A2
:1040B00010148D499A884FF0530C01F802C0521C1D
:1040C00092B24FF04F0C01F802C0521C92B24FF066
:1040D000480C01F802C0521C92B24FF02D0C01F8AE
:1040E00002C0521C92B201F802C0521C92B24FF0B0
:1040F0003E0C01F802C0521C92B24FF00D0C01F8B8
:1041000002C0521C92B24FF00A0C01F802C0511CBE
:1041100034E000BF754B4FF48061CDF81014724A43
:1041200099884FF0530C02F801C0491C89B24FF036
:10413000540C02F801C0491C89B24FF0580C02F827
:1041400001C0491C89B24FF02D0C02F801C0491C76
:1041500089B202F801C0491C89B24FF03E0C02F846
:1041600001C0491C89B24FF00D0C02F801C0491C76
:1041700089B24FF00A0C02F801C0491C99803870CE
:10418000DDF810044FF0010800F1050BBBF1010F41
:104190005AD86DE0554A5449452390880B54401C29
:1041A00080B24F230B54401C80B254230B54401C4C
:1041B00080B22D230B54401C80B20B54401C80B2A3
:1041C0003E230B54401C80B20D230B54401C80B284
:1041D0000A230B54401C90800020CDF8340400F0DA
:1041E0003FB9424A4048432391880DF58868A9F1B8
:1041F00001074354491C89B241234354491C8BB2E3
:104200002D21C1545B1C9BB2C154591C89B23E2361
:104210004354491C89B20D234354491C89B20A23D3
:104220004354481C908020212846FFF785FA40B16E
:10423000208888F800009DF84004182800F0D280FB
:104240007AE07F1EEFD277E007EB080AA9F10104BC
:1042500020212846FFF770FA00286BD021480088FB
:104260008AF8000008F101001FFA80F8D845EBD366
:10427000B878797880F0FF0081425DD1F81CDDF8D4
:104280001014FEF74FF9DDF810143944B1F803109B
:1042900049BA814250D10027DDF81084CDF834743A
:1042A000B8F1FF3F7ED0B8F1000F00F0D980DDF803
:1042B0001C049DF80110C0B2814200F00D8115214F
:1042C0002846FFF7CDFC80212846FFF735FA002865
:1042D000F9D006494E2304488A8809E000500008B6
:1042E000004C0040044C0040040F002060000020FF
:1042F0008354521C92B241238354521C92B24B23DA
:104300008354521C92B22D238354521C92B2835474
:10431000521C92B28354521C92B23C238354521CBE
:1043200092B20D238354521C92B20A238354501C20
:104330008880E7E5641E8BD2DDF844040028DDF8B0
:104340003404C4BF401CCDF83404052840F39982DE
:1043500018212846FFF784FC80212846FFF7ECF956
:104360000028F9D018212846FFF77AFC802128463A
:10437000FFF7E2F90028F9D0FF4BFE484322998865
:104380004254491C89B241224254491C89B22D220F
:104390004254491C89B265224254491C8AB2722196
:1043A000815400E01EE0521C92B24FF06F0C815419
:1043B000521C92B200F802C0521C92B28154511C9D
:1043C00089B23C224254491C89B20D224254491CF4
:1043D00089B20A224254481C98800DF25C4D00209C
:1043E000BDE8F08F06212846FFF73AFC80212846D9
:1043F000FFF7A2F90028F9D0DF4ADE48412391886F
:104400004354491C89B243234354491C89B24B236A
:104410004354491C89B22D234354491C89B261235A
:104420004354491C89B262234354491C89B26F2307
:104430004354491C89B272234354491C89B27423E2
:104440004354491C89B23C234354491C89B20D236F
:104450004354491C89B20A234354481C9080BCE74A
:1044600006212846FFF7FCFB80212846FFF764F968
:104470000028F9D0C04ABF48412391884354491CC1
:1044800089B243234354491C89B24B234354491CEA
:1044900089B22D234354491C89B265234354491CD6
:1044A00089B26E234354491C89B264234354491C86
:1044B00089B23C234354491C89B20D234354491CFF
:1044C00089B20A234354481C9080DDF83C0400283C
:1044D0003FF411AD00F029B9DDF81C0458B1424693
:1044E0000DF10301DDF83804FCF782F90027DDF84F
:1044F000584400F083B99DF80300002800F0D880EC
:1045000000210DF103029D4B02E05854491C521C3E
:104510001078002818BFB1F5807FF6DB5F540021CA
:10452000501C0DF5846302E05A54401C491C02786B
:10453000202A18BF0F29F7DB5F540DF5836290A185
:104540001846FCF791F8DDF818046FF48021C84292
:1045500040DD18212846FFF783FB80212846FFF71E
:10456000EBF80028F9D018212846FFF779FB8021C5
:104570002846FFF7E1F80028F9D07F4A7D49432318
:1045800090880B54401C80B241230B54401C80B2D5
:104590002D230B54401C80B265230B54401C80B269
:1045A0006E230B54401C80B264230B54401C80B219
:1045B0003C230B54401C80B20D230B54401C80B292
:1045C0000A230B54401C90800DF25C4D4FF0FF30DD
:1045D000BDE8F08FFEF730F8674CC4E9027038464A
:1045E00008E0618801FB0060FDF7DEFF2070A06835
:1045F000401CA060E168884202D221780429F0D0F2
:1046000006212846FFF72CFB80212846FFF794F867
:104610000028F9D043212846FFF722FB80212846B5
:10462000FFF78AF80028F9D05248A1884122432791
:104630004254491C89B24B224754491C89B24FF05D
:104640002D0C4254491C89B23C2200F801C0491C7F
:1046500089B24FF00A0800F801C0491C89B200F87D
:1046600001C0491C89B24254491C8BB20D21C1546E
:104670005B1C9BB200F803805B1C9BB2C7545B1CA5
:104680009BB200F803C05B1C9BB200F803C05B1C2C
:104690009BB200F803C05B1C9BB2C2545A1C92B27E
:1046A0008154511C89B200F80180481CA080DEE0D2
:1046B00006212846FFF7D4FA80212846FFF73CF868
:1046C0000028F9D02C4A2B49412390880B54401CD8
:1046D00080B243230B54401C80B24B230B54401C2C
:1046E00080B22D230B54401C80B265230B54401C18
:1046F00080B26D230B54401C80B270230B54401CBD
:1047000080B274230B54401C80B279230B54401C9C
:1047100080B23C230B54401C80B20D230B54401C30
:1047200080B20A230B54401C9080134A1149002088
:1047300092888854DDF818040DF25C4DBDE8F08FC6
:1047400030462168FDF784FF30682168884252D0E6
:1047500018212846FFF784FA80212846FEF7ECFF4F
:104760000028F9D018212846FFF77AFA8021284638
:1047700008E00000040F002060000020040E00206C
:10478000256C6400FEF7D8FF0028EFD0524A51484C
:10479000432391884354491C89B241234354491C03
:1047A00089B22D234354491C89B266234354491CC2
:1047B00089B26C234354491C89B261234354491C78
:1047C00089B273234354491C89B268234354491C5A
:1047D00089B23C234354491C89B20D234354491CDC
:1047E00089B20A234354481C90800DF25C4D6FF04F
:1047F0000100BDE8F08F241D361D3F1D474507DA37
:10480000DDF8180400F1006000F5A040864297D35F
:1048100006212846FFF724FA80212846FEF78CFF60
:104820000028F9D02C4B2B4841219A888154511CE7
:1048300089B243224254491C89B24B224254491C3A
:1048400089B22D224254491C89B24254491C89B272
:104850004254491C89B23C224254491C89B20D225F
:104860004254491C89B20A224254481C9880DDF8FF
:104870001C04401CCDF81C040120CDF84404FFF7B3
:1048800041BB43212846FFF7EBF980212846FEF77C
:1048900053FF0028F9D010490E4843238A888354D7
:1048A000521C92B22D238354521C92B28354521C38
:1048B00092B28354521C92B23C238354521C92B243
:1048C0000D238354521C92B20A238354501C8880B7
:1048D000FFF718BB040F002060000020490050EAD9
:1048E000C12018BF04204A0D18BF40F0010040F25B
:1048F000FF72B2EB515F08BF40F00200012808BF11
:104900000520704730380A2801D201207047002066
:10491000704770470A46014601A0FBF76FBD0000D3
:10492000B6CFD1D43A5BCEC4BCFE3A25735D205BD2
:10493000D0D03A25645D0D0A0000000010B54FF498
:104940004070FEF769F91549F02081F8140D012136
:104950000846FEF7C3F901211148FDF7B7FF6FF0D4
:104960000400FEF777FB0F480F490068B0FBF1F039
:10497000C1B20E4801704FF0E020026942F002021D
:10498000026101EB4102C2EBC111421702EBC1010E
:104990004161016941F00101016110BD0FE000E0DA
:1049A000000230002000002000127A0008000020E1
:1049B00030B44FF0E0234FF47A7148435C69002132
:1049C000084A127800FB02FC98699A698242FCD07E
:1049D00026BFA51A2844801A014410466145F4D325
:1049E00030BC70470800002070B50A4C0546802195
:1049F0002046FEF7A1FE0028F9D0E9B22046FFF7D5
:104A00002FF940212046FEF797FE0028F9D02846CE
:104A100070BD0000004C0040FFF790FF4FF4E13004
:104A2000FFF760F9FEE7000010B500290AD008780A
:104A3000002807D005487844FDF76EF8002801D01B
:104A4000002010BD0248784410BD00007201000033
:104A50006A01000010B500290AD00878002807D0A4
:104A600005487844FDF758F8002801D0002010BD13
:104A70000248784410BD0000620100005A010000A5
:104A8000FCF7AFBAFCF7E4BB04000008000000002C
:104A90000000000200010000100000000000000003
:104AA0000000000030313233343536373839414276
:104AB0004344454640305800303132333435363780
:104AC0003839616263646566403078003031323372
:104AD0003435363738396162636465667870003022
:104AE00031323334353637383941424344454658FC
:104AF0005000000002400000000000A00000000084
:104B000005400000000000C8000000000C4000004C
:104B10000000409C00000000194000000020BCBEC6
:104B20000000000034400000BFC91B8E00000004DC
:104B3000B5400000504BCFD06607E2CF0100000027
:104B40006C4100003E8251AADFEEA7340100000054
:104B5000D9420000DCB5A0E23A301F97FFFFFFFF0B
:104B6000B4450000FD25A0C8E9A3C14FFFFFFFFF2A
:104B7000FF3F00000000008000000000FF3F000039
:104B80000000008000000000D44C0008000000205D
:104B9000740000006C010008484D000874000020FB
:104BA00074150000880100081C000000430000008C
:104BB000F8FFFFFF0C0000000E0000000F000000D7
:104BC0002E0000001001000043000000F8FFFFFF6E
:104BD0000040404040404040404041414141414010
:104BE00040404040404040404040404040404040C5
:104BF0004005020202020202020202020202020254
:104C00000220202020202020202020020202020258
:104C100002029090909090901010101010101010B0
:104C200010101010101010101010101002020202BC
:104C30000202888888888888080808080808080800
:104C400008080808080808080808080802020202FC
:104C50004000000000000000000000000000000014
:104C60000000000000000000000000000000000044
:104C70000000000000000000000000000000000034
:104C80000000000000000000000000000000000024
:104C90000000000000000000000000000000000014
:104CA0000000000000000000000000000000000004
:104CB00000000000000000000000000000000000F4
:104CC00000000000000000000000000000000000E4
:104CD00000000000000000000000000000000000D4
:104CE00000000000000000000000000000000000C4
:104CF0000000000000A24A040000000000000000C4
:104D00000102030406070809020406080000000067
:104D1000010203040102030406070809000102035B
:104D2000040506070809000000010000000000005B
:104D30000000000004000008000000000000000067
:084D400000000000000000006B
:0400000508000131BD
:00000001FF
