Component: ARM Compiler 5.06 update 6 (build 750) Tool: armlink [4d35ed]

==============================================================================

Section Cross References

    main.o(i.main) refers to delay.o(i.delay_init) for delay_init
    main.o(i.main) refers to my_ymodem.o(i.Ymodem_Init) for Ymodem_Init
    sys.o(i.My_GPIO_Init) refers (Special) to use_no_semi_2.o(.text) for __use_no_semihosting
    sys.o(i.My_GPIO_Init) refers to stm32f10x_rcc.o(i.RCC_APB2PeriphClockCmd) for RCC_APB2PeriphClockCmd
    sys.o(i.My_GPIO_Init) refers to stm32f10x_gpio.o(i.GPIO_Init) for GPIO_Init
    sys.o(i._sys_exit) refers (Special) to use_no_semi_2.o(.text) for __use_no_semihosting
    sys.o(i._ttywrch) refers (Special) to use_no_semi_2.o(.text) for __use_no_semihosting
    sys.o(i.assert_failed) refers (Special) to use_no_semi_2.o(.text) for __use_no_semihosting
    sys.o(i.assert_failed) refers to _printf_percent.o(.ARM.Collect$$_printf_percent$$00000000) for _printf_percent
    sys.o(i.assert_failed) refers to _printf_d.o(.ARM.Collect$$_printf_percent$$00000009) for _printf_d
    sys.o(i.assert_failed) refers to _printf_s.o(.ARM.Collect$$_printf_percent$$00000014) for _printf_s
    sys.o(i.assert_failed) refers to _printf_dec.o(.text) for _printf_int_dec
    sys.o(i.assert_failed) refers to _printf_str.o(.text) for _printf_str
    sys.o(i.assert_failed) refers to __2printf.o(.text) for __2printf
    sys.o(i.fputc) refers (Special) to use_no_semi_2.o(.text) for __use_no_semihosting
    sys.o(i.fputc) refers to stm32f10x_usart.o(i.USART_GetFlagStatus) for USART_GetFlagStatus
    sys.o(i.fputc) refers to stm32f10x_usart.o(i.USART_SendData) for USART_SendData
    sys.o(i.log_2) refers (Special) to use_no_semi_2.o(.text) for __use_no_semihosting
==============================================================================

Removing Unused input sections from the image.

    Removing sys.o(i.My_GPIO_Init), (188 bytes).
    Removing sys.o(i._ttywrch), (2 bytes).
    Removing sys.o(i.log_2), (42 bytes).
    Removing sys.o(i.power), (34 bytes).
    Removing delay.o(i.delay_us), (52 bytes).
    Removing delay.o(.data), (8 bytes).
    Removing usart1.o(i.USART1_Init), (276 bytes).
    Removing usart1.o(i.USART1_RX_STA_SET), (64 bytes).
    Removing usart1.o(i.USART1_Send_Array), (68 bytes).
    Removing usart1.o(i.USART1_printf), (96 bytes).
    Removing usart2.o(i.USART2_Init), (272 bytes).
    Removing usart2.o(i.USART2_RX_STA_SET), (64 bytes).
    Removing usart2.o(i.USART2_Send_Array), (68 bytes).
    Removing usart2.o(i.USART2_printf), (96 bytes).
    Removing usart3.o(i.USART3_Init), (276 bytes).
    Removing usart3.o(i.USART3_RX_STA_SET), (64 bytes).
    Removing usart3.o(i.USART3_Send_Array), (68 bytes).
    Removing usart3.o(i.USART3_printf), (96 bytes).
==============================================================================

Image Symbol Table

    Local Symbols

    Symbol Name                              Value     Ov Type        Size  Object(Section)

    ../clib/angel/boardlib.s                 0x00000000   Number         0  boardinit3.o ABSOLUTE
    ../clib/angel/boardlib.s                 0x00000000   Number         0  boardinit1.o ABSOLUTE
    ../clib/angel/boardlib.s                 0x00000000   Number         0  boardshut.o ABSOLUTE
    ../clib/angel/boardlib.s                 0x00000000   Number         0  boardinit2.o ABSOLUTE
    ../clib/angel/handlers.s                 0x00000000   Number         0  __scatter_copy.o ABSOLUTE
    ../clib/angel/handlers.s                 0x00000000   Number         0  __scatter_zi.o ABSOLUTE
    ../clib/angel/kernel.s                   0x00000000   Number         0  __rtentry.o ABSOLUTE
    ../clib/angel/kernel.s                   0x00000000   Number         0  rtexit.o ABSOLUTE
    ../clib/angel/kernel.s                   0x00000000   Number         0  __rtentry4.o ABSOLUTE
    ../clib/angel/kernel.s                   0x00000000   Number         0  rtexit2.o ABSOLUTE
    ../clib/angel/kernel.s                   0x00000000   Number         0  __rtentry2.o ABSOLUTE
    ../clib/angel/rt.s                       0x00000000   Number         0  rt_raise.o ABSOLUTE
    ../clib/angel/rt.s                       0x00000000   Number         0  aeabi_ldiv0.o ABSOLUTE
    ../clib/angel/rt.s                       0x00000000   Number         0  rt_div0.o ABSOLUTE
    ../clib/angel/rt.s                       0x00000000   Number         0  rt_locale_intlibspace.o ABSOLUTE
    ../clib/angel/rt.s                       0x00000000   Number         0  aeabi_ldiv0_sigfpe.o ABSOLUTE
    ../clib/angel/rt.s                       0x00000000   Number         0  rt_ctype_table.o ABSOLUTE
    ../clib/angel/rt.s                       0x00000000   Number         0  rt_locale.o ABSOLUTE
    ../clib/angel/scatter.s                  0x00000000   Number         0  __scatter.o ABSOLUTE
    ../clib/angel/startup.s                  0x00000000   Number         0  __main.o ABSOLUTE
    ../clib/angel/sys.s                      0x00000000   Number         0  use_no_semi.o ABSOLUTE
    ../clib/angel/sys.s                      0x00000000   Number         0  sys_stackheap_outer.o ABSOLUTE
    ../clib/angel/sys.s                      0x00000000   Number         0  libspace.o ABSOLUTE
    ../clib/angel/sys.s                      0x00000000   Number         0  use_no_semi_2.o ABSOLUTE
    ../clib/angel/sys.s                      0x00000000   Number         0  indicate_semi.o ABSOLUTE
    ../clib/angel/sysapp.c                   0x00000000   Number         0  sys_command.o ABSOLUTE
    ../clib/armsys.c                         0x00000000   Number         0  no_argv.o ABSOLUTE
    ../clib/armsys.c                         0x00000000   Number         0  _get_argv_nomalloc.o ABSOLUTE
    ../clib/armsys.c                         0x00000000   Number         0  argv_veneer.o ABSOLUTE
    ../clib/armsys.c                         0x00000000   Number         0  argv_veneer.o ABSOLUTE
    ../clib/bigflt.c                         0x00000000   Number         0  bigflt0.o ABSOLUTE
    ../clib/btod.s                           0x00000000   Number         0  btod.o ABSOLUTE
    ../clib/ctype.c                          0x00000000   Number         0  isspace.o ABSOLUTE
    ../clib/heapalloc.c                      0x00000000   Number         0  hrguard.o ABSOLUTE
    ../clib/heapaux.c                        0x00000000   Number         0  heapauxi.o ABSOLUTE
    ../clib/libinit.s                        0x00000000   Number         0  libinit.o ABSOLUTE
    ../clib/libinit.s                        0x00000000   Number         0  libinit2.o ABSOLUTE
    ../clib/libinit.s                        0x00000000   Number         0  libshutdown2.o ABSOLUTE
    ../clib/libinit.s                        0x00000000   Number         0  libshutdown.o ABSOLUTE
    ../clib/locale.c                         0x00000000   Number         0  _wcrtomb.o ABSOLUTE
    ../clib/locale.s                         0x00000000   Number         0  lc_ctype_c.o ABSOLUTE
    ../clib/locale.s                         0x00000000   Number         0  lc_numeric_c.o ABSOLUTE
    ../clib/longlong.s                       0x00000000   Number         0  lludiv10.o ABSOLUTE
    ../clib/longlong.s                       0x00000000   Number         0  lludivv7m.o ABSOLUTE
    ../clib/memcpset.s                       0x00000000   Number         0  strcmpv7m.o ABSOLUTE
    ../clib/memcpset.s                       0x00000000   Number         0  rt_memcpy_v6.o ABSOLUTE
    ../clib/memcpset.s                       0x00000000   Number         0  rt_memclr.o ABSOLUTE
    ../clib/memcpset.s                       0x00000000   Number         0  rt_memclr_w.o ABSOLUTE
    ../clib/memcpset.s                       0x00000000   Number         0  rt_memcpy_w.o ABSOLUTE
    ../clib/misc.s                           0x00000000   Number         0  printf_stubs.o ABSOLUTE
    ../clib/printf.c                         0x00000000   Number         0  __2sprintf.o ABSOLUTE
    ../clib/printf.c                         0x00000000   Number         0  _printf_char.o ABSOLUTE
    ../clib/printf.c                         0x00000000   Number         0  __2printf.o ABSOLUTE
    ../clib/printf.c                         0x00000000   Number         0  _printf_char_file.o ABSOLUTE
    ../clib/printf.c                         0x00000000   Number         0  vsnprintf.o ABSOLUTE
    ../clib/printf.c                         0x00000000   Number         0  _printf_wctomb.o ABSOLUTE
    ../clib/printf.c                         0x00000000   Number         0  _printf_longlong_dec.o ABSOLUTE
    ../clib/printf.c                         0x00000000   Number         0  _printf_fp_infnan.o ABSOLUTE
    ../clib/printf.c                         0x00000000   Number         0  _printf_oct_ll.o ABSOLUTE
    ../clib/printf.c                         0x00000000   Number         0  _printf_oct_int.o ABSOLUTE
    ../clib/printf.c                         0x00000000   Number         0  _printf_oct_int_ll.o ABSOLUTE
    ../clib/printf.c                         0x00000000   Number         0  _printf_hex_ll.o ABSOLUTE
    ../clib/printf.c                         0x00000000   Number         0  _printf_hex_int.o ABSOLUTE
    ../clib/printf.c                         0x00000000   Number         0  _printf_hex_int_ll.o ABSOLUTE
    ../clib/printf.c                         0x00000000   Number         0  _printf_hex_ptr.o ABSOLUTE
    ../clib/printf.c                         0x00000000   Number         0  _printf_hex_int_ptr.o ABSOLUTE
    ../clib/printf.c                         0x00000000   Number         0  _printf_hex_ll_ptr.o ABSOLUTE
    ../clib/printf.c                         0x00000000   Number         0  _printf_hex_int_ll_ptr.o ABSOLUTE
    ../clib/printf.c                         0x00000000   Number         0  __printf_flags_ss_wp.o ABSOLUTE
    ../clib/printf.c                         0x00000000   Number         0  _printf_fp_dec.o ABSOLUTE
    ../clib/printf.c                         0x00000000   Number         0  _printf_fp_hex.o ABSOLUTE
    ../clib/printf.c                         0x00000000   Number         0  __printf_nopercent.o ABSOLUTE
    ../clib/printf.c                         0x00000000   Number         0  _printf_wchar.o ABSOLUTE
    ../clib/printf.c                         0x00000000   Number         0  _printf_charcount.o ABSOLUTE
    ../clib/printf.c                         0x00000000   Number         0  _printf_intcommon.o ABSOLUTE
    ../clib/printf.c                         0x00000000   Number         0  _printf_truncate.o ABSOLUTE
    ../clib/printf.c                         0x00000000   Number         0  _printf_pad.o ABSOLUTE
    ../clib/printf.c                         0x00000000   Number         0  _printf_dec.o ABSOLUTE
    ../clib/printf.c                         0x00000000   Number         0  __printf_ss_wp.o ABSOLUTE
    ../clib/printf.c                         0x00000000   Number         0  __printf_flags_wp.o ABSOLUTE
    ../clib/printf.c                         0x00000000   Number         0  __printf_wp.o ABSOLUTE
    ../clib/printf.c                         0x00000000   Number         0  __printf_flags_ss.o ABSOLUTE
    ../clib/printf.c                         0x00000000   Number         0  __printf_ss.o ABSOLUTE
    ../clib/printf.c                         0x00000000   Number         0  __printf_flags.o ABSOLUTE
    ../clib/printf.c                         0x00000000   Number         0  _sputc.o ABSOLUTE
    ../clib/printf.c                         0x00000000   Number         0  _snputc.o ABSOLUTE
    ../clib/printf.c                         0x00000000   Number         0  _printf_str.o ABSOLUTE
    ../clib/printf.c                         0x00000000   Number         0  __printf.o ABSOLUTE
    ../clib/printf.c                         0x00000000   Number         0  _printf_char_common.o ABSOLUTE
    ../clib/printf.c                         0x00000000   Number         0  noretval__2sprintf.o ABSOLUTE
    ../clib/printf.c                         0x00000000   Number         0  noretval__2printf.o ABSOLUTE
    ../clib/printf_percent.s                 0x00000000   Number         0  _printf_f.o ABSOLUTE
    ../clib/printf_percent.s                 0x00000000   Number         0  _printf_u.o ABSOLUTE
    ../clib/printf_percent.s                 0x00000000   Number         0  _printf_x.o ABSOLUTE
    ../clib/printf_percent.s                 0x00000000   Number         0  _printf_s.o ABSOLUTE
    ../clib/printf_percent.s                 0x00000000   Number         0  _printf_llu.o ABSOLUTE
    ../clib/printf_percent.s                 0x00000000   Number         0  _printf_d.o ABSOLUTE
    ../clib/printf_percent.s                 0x00000000   Number         0  _printf_lld.o ABSOLUTE
    ../clib/printf_percent.s                 0x00000000   Number         0  _printf_percent.o ABSOLUTE
    ../clib/printf_percent.s                 0x00000000   Number         0  _printf_e.o ABSOLUTE
    ../clib/printf_percent.s                 0x00000000   Number         0  _printf_g.o ABSOLUTE
    ../clib/printf_percent.s                 0x00000000   Number         0  _printf_i.o ABSOLUTE
    ../clib/printf_percent.s                 0x00000000   Number         0  _printf_c.o ABSOLUTE
    ../clib/printf_percent.s                 0x00000000   Number         0  _printf_ll.o ABSOLUTE
    ../clib/printf_percent.s                 0x00000000   Number         0  _printf_ls.o ABSOLUTE
    ../clib/printf_percent.s                 0x00000000   Number         0  _printf_p.o ABSOLUTE
    ../clib/printf_percent.s                 0x00000000   Number         0  _printf_lc.o ABSOLUTE
    ../clib/printf_percent.s                 0x00000000   Number         0  _printf_llo.o ABSOLUTE
    ../clib/printf_percent.s                 0x00000000   Number         0  _printf_l.o ABSOLUTE
    ../clib/printf_percent.s                 0x00000000   Number         0  _printf_n.o ABSOLUTE
    ../clib/printf_percent.s                 0x00000000   Number         0  _printf_llx.o ABSOLUTE
    ../clib/printf_percent.s                 0x00000000   Number         0  _printf_percent_end.o ABSOLUTE
    ../clib/printf_percent.s                 0x00000000   Number         0  _printf_o.o ABSOLUTE
    ../clib/printf_percent.s                 0x00000000   Number         0  _printf_lli.o ABSOLUTE
    ../clib/printf_percent.s                 0x00000000   Number         0  _printf_a.o ABSOLUTE
    ../clib/scanf.c                          0x00000000   Number         0  _scanf.o ABSOLUTE
    ../clib/scanf.c                          0x00000000   Number         0  __0sscanf.o ABSOLUTE
    ../clib/scanf.c                          0x00000000   Number         0  _sgetc.o ABSOLUTE
    ../clib/scanf.c                          0x00000000   Number         0  _scanf_int.o ABSOLUTE
    ../clib/scanf.c                          0x00000000   Number         0  scanf_char.o ABSOLUTE
    ../clib/scanf.c                          0x00000000   Number         0  _chval.o ABSOLUTE
    ../clib/signal.c                         0x00000000   Number         0  defsig_fpe_formal.o ABSOLUTE
    ../clib/signal.c                         0x00000000   Number         0  defsig_rtred_inner.o ABSOLUTE
    ../clib/signal.c                         0x00000000   Number         0  defsig_abrt_inner.o ABSOLUTE
    ../clib/signal.c                         0x00000000   Number         0  defsig_other.o ABSOLUTE
    ../clib/signal.c                         0x00000000   Number         0  defsig_segv_inner.o ABSOLUTE
    ../clib/signal.c                         0x00000000   Number         0  defsig_cppl_inner.o ABSOLUTE
    ../clib/signal.c                         0x00000000   Number         0  defsig_fpe_outer.o ABSOLUTE
    ../clib/signal.c                         0x00000000   Number         0  defsig_stak_inner.o ABSOLUTE
    ../clib/signal.c                         0x00000000   Number         0  defsig_pvfn_inner.o ABSOLUTE
    ../clib/signal.c                         0x00000000   Number         0  defsig_rtmem_formal.o ABSOLUTE
    ../clib/signal.c                         0x00000000   Number         0  defsig_rtmem_outer.o ABSOLUTE
    ../clib/signal.c                         0x00000000   Number         0  defsig_rtmem_inner.o ABSOLUTE
    ../clib/signal.c                         0x00000000   Number         0  __raise.o ABSOLUTE
    ../clib/signal.c                         0x00000000   Number         0  defsig_general.o ABSOLUTE
    ../clib/signal.c                         0x00000000   Number         0  defsig_exit.o ABSOLUTE
    ../clib/signal.c                         0x00000000   Number         0  defsig_fpe_inner.o ABSOLUTE
    ../clib/signal.s                         0x00000000   Number         0  defsig.o ABSOLUTE
    ../clib/stdio.c                          0x00000000   Number         0  ferror.o ABSOLUTE
    ../clib/stdio.c                          0x00000000   Number         0  ferror_locked.o ABSOLUTE
    ../clib/stdlib.c                         0x00000000   Number         0  exit.o ABSOLUTE
    ../fplib/fpinit.s                        0x00000000   Number         0  fpinit.o ABSOLUTE
    ../fplib/istatus.s                       0x00000000   Number         0  istatus.o ABSOLUTE
    ../fplib/printf1.s                       0x00000000   Number         0  printf1.o ABSOLUTE
    ../fplib/printf2.s                       0x00000000   Number         0  printf2.o ABSOLUTE
    ../fplib/printf2a.s                      0x00000000   Number         0  printf2a.o ABSOLUTE
    ../fplib/printf2b.s                      0x00000000   Number         0  printf2b.o ABSOLUTE
    ../fplib/usenofp.s                       0x00000000   Number         0  usenofp.o ABSOLUTE
    ../mathlib/fpclassify.c                  0x00000000   Number         0  fpclassify.o ABSOLUTE
    app\SysTick.c                            0x00000000   Number         0  systick.o ABSOLUTE
    app\key.c                                0x00000000   Number         0  key.o ABSOLUTE
    app\multi_button.c                       0x00000000   Number         0  multi_button.o ABSOLUTE
    app\soft_timer.c                         0x00000000   Number         0  soft_timer.o ABSOLUTE
    app\ymodem\my_ymodem.c                   0x00000000   Number         0  my_ymodem.o ABSOLUTE
    app\ymodem\ymodem.c                      0x00000000   Number         0  ymodem.o ABSOLUTE
    dc.s                                     0x00000000   Number         0  dc.o ABSOLUTE
    stm32f103\\startup\\core_cm3.c           0x00000000   Number         0  core_cm3.o ABSOLUTE
    stm32f103\libraries\misc.c               0x00000000   Number         0  misc.o ABSOLUTE
    stm32f103\libraries\stm32f10x_adc.c      0x00000000   Number         0  stm32f10x_adc.o ABSOLUTE
    stm32f103\libraries\stm32f10x_bkp.c      0x00000000   Number         0  stm32f10x_bkp.o ABSOLUTE
    stm32f103\libraries\stm32f10x_can.c      0x00000000   Number         0  stm32f10x_can.o ABSOLUTE
    stm32f103\libraries\stm32f10x_cec.c      0x00000000   Number         0  stm32f10x_cec.o ABSOLUTE
    stm32f103\libraries\stm32f10x_crc.c      0x00000000   Number         0  stm32f10x_crc.o ABSOLUTE
    stm32f103\libraries\stm32f10x_dac.c      0x00000000   Number         0  stm32f10x_dac.o ABSOLUTE
    stm32f103\libraries\stm32f10x_dbgmcu.c   0x00000000   Number         0  stm32f10x_dbgmcu.o ABSOLUTE
    stm32f103\libraries\stm32f10x_dma.c      0x00000000   Number         0  stm32f10x_dma.o ABSOLUTE
    stm32f103\libraries\stm32f10x_exti.c     0x00000000   Number         0  stm32f10x_exti.o ABSOLUTE
    stm32f103\libraries\stm32f10x_flash.c    0x00000000   Number         0  stm32f10x_flash.o ABSOLUTE
    stm32f103\libraries\stm32f10x_fsmc.c     0x00000000   Number         0  stm32f10x_fsmc.o ABSOLUTE
    stm32f103\libraries\stm32f10x_gpio.c     0x00000000   Number         0  stm32f10x_gpio.o ABSOLUTE
    stm32f103\libraries\stm32f10x_i2c.c      0x00000000   Number         0  stm32f10x_i2c.o ABSOLUTE
    stm32f103\libraries\stm32f10x_iwdg.c     0x00000000   Number         0  stm32f10x_iwdg.o ABSOLUTE
    stm32f103\libraries\stm32f10x_pwr.c      0x00000000   Number         0  stm32f10x_pwr.o ABSOLUTE
    stm32f103\libraries\stm32f10x_rcc.c      0x00000000   Number         0  stm32f10x_rcc.o ABSOLUTE
    stm32f103\libraries\stm32f10x_rtc.c      0x00000000   Number         0  stm32f10x_rtc.o ABSOLUTE
    stm32f103\libraries\stm32f10x_sdio.c     0x00000000   Number         0  stm32f10x_sdio.o ABSOLUTE
    stm32f103\libraries\stm32f10x_spi.c      0x00000000   Number         0  stm32f10x_spi.o ABSOLUTE
    stm32f103\libraries\stm32f10x_tim.c      0x00000000   Number         0  stm32f10x_tim.o ABSOLUTE
    stm32f103\libraries\stm32f10x_usart.c    0x00000000   Number         0  stm32f10x_usart.o ABSOLUTE
    stm32f103\libraries\stm32f10x_wwdg.c     0x00000000   Number         0  stm32f10x_wwdg.o ABSOLUTE
    stm32f103\startup\core_cm3.c             0x00000000   Number         0  core_cm3.o ABSOLUTE
    stm32f103\startup\startup_stm32f10x_hd.s 0x00000000   Number         0  startup_stm32f10x_hd.o ABSOLUTE
    stm32f103\startup\stm32f10x_it.c         0x00000000   Number         0  stm32f10x_it.o ABSOLUTE
    stm32f103\startup\system_stm32f10x.c     0x00000000   Number         0  system_stm32f10x.o ABSOLUTE
    system\delay.c                           0x00000000   Number         0  delay.o ABSOLUTE
    system\sys.c                             0x00000000   Number         0  sys.o ABSOLUTE
    system\uart4.c                           0x00000000   Number         0  uart4.o ABSOLUTE
    system\usart1.c                          0x00000000   Number         0  usart1.o ABSOLUTE
    system\usart2.c                          0x00000000   Number         0  usart2.o ABSOLUTE
    system\usart3.c                          0x00000000   Number         0  usart3.o ABSOLUTE
    user\main.c                              0x00000000   Number         0  main.o ABSOLUTE
    RESET                                    0x08000000   Section      304  startup_stm32f10x_hd.o(RESET)
    !!!main                                  0x08000130   Section        8  __main.o(!!!main)
    !!!scatter                               0x08000138   Section       52  __scatter.o(!!!scatter)
    !!handler_copy                           0x0800016c   Section       26  __scatter_copy.o(!!handler_copy)
    !!handler_zi                             0x08000188   Section       28  __scatter_zi.o(!!handler_zi)
    .ARM.Collect$$_printf_percent$$00000000  0x080001a4   Section        0  _printf_percent.o(.ARM.Collect$$_printf_percent$$00000000)
    .ARM.Collect$$_printf_percent$$00000001  0x080001a4   Section        6  _printf_n.o(.ARM.Collect$$_printf_percent$$00000001)
    .ARM.Collect$$_printf_percent$$00000002  0x080001aa   Section        6  _printf_p.o(.ARM.Collect$$_printf_percent$$00000002)
    .ARM.Collect$$_printf_percent$$00000003  0x080001b0   Section        6  _printf_f.o(.ARM.Collect$$_printf_percent$$00000003)
    .ARM.Collect$$_printf_percent$$00000004  0x080001b6   Section        6  _printf_e.o(.ARM.Collect$$_printf_percent$$00000004)
    .ARM.Collect$$_printf_percent$$00000005  0x080001bc   Section        6  _printf_g.o(.ARM.Collect$$_printf_percent$$00000005)
    .ARM.Collect$$_printf_percent$$00000006  0x080001c2   Section        6  _printf_a.o(.ARM.Collect$$_printf_percent$$00000006)
    .ARM.Collect$$_printf_percent$$00000007  0x080001c8   Section       10  _printf_ll.o(.ARM.Collect$$_printf_percent$$00000007)
    .ARM.Collect$$_printf_percent$$00000008  0x080001d2   Section        6  _printf_i.o(.ARM.Collect$$_printf_percent$$00000008)
    .ARM.Collect$$_printf_percent$$00000009  0x080001d8   Section        6  _printf_d.o(.ARM.Collect$$_printf_percent$$00000009)
    .ARM.Collect$$_printf_percent$$0000000A  0x080001de   Section        6  _printf_u.o(.ARM.Collect$$_printf_percent$$0000000A)
    .ARM.Collect$$_printf_percent$$0000000B  0x080001e4   Section        6  _printf_o.o(.ARM.Collect$$_printf_percent$$0000000B)
    .ARM.Collect$$_printf_percent$$0000000C  0x080001ea   Section        6  _printf_x.o(.ARM.Collect$$_printf_percent$$0000000C)
    .ARM.Collect$$_printf_percent$$0000000D  0x080001f0   Section        6  _printf_lli.o(.ARM.Collect$$_printf_percent$$0000000D)
    .ARM.Collect$$_printf_percent$$0000000E  0x080001f6   Section        6  _printf_lld.o(.ARM.Collect$$_printf_percent$$0000000E)
    .ARM.Collect$$_printf_percent$$0000000F  0x080001fc   Section        6  _printf_llu.o(.ARM.Collect$$_printf_percent$$0000000F)
    .ARM.Collect$$_printf_percent$$00000010  0x08000202   Section        6  _printf_llo.o(.ARM.Collect$$_printf_percent$$00000010)
    .ARM.Collect$$_printf_percent$$00000011  0x08000208   Section        6  _printf_llx.o(.ARM.Collect$$_printf_percent$$00000011)
    .ARM.Collect$$_printf_percent$$00000012  0x0800020e   Section       10  _printf_l.o(.ARM.Collect$$_printf_percent$$00000012)
    .ARM.Collect$$_printf_percent$$00000013  0x08000218   Section        6  _printf_c.o(.ARM.Collect$$_printf_percent$$00000013)
    .ARM.Collect$$_printf_percent$$00000014  0x0800021e   Section        6  _printf_s.o(.ARM.Collect$$_printf_percent$$00000014)
    .ARM.Collect$$_printf_percent$$00000015  0x08000224   Section        6  _printf_lc.o(.ARM.Collect$$_printf_percent$$00000015)
    .ARM.Collect$$_printf_percent$$00000016  0x0800022a   Section        6  _printf_ls.o(.ARM.Collect$$_printf_percent$$00000016)
    .ARM.Collect$$_printf_percent$$00000017  0x08000230   Section        4  _printf_percent_end.o(.ARM.Collect$$_printf_percent$$00000017)
    .ARM.Collect$$libinit$$00000000          0x08000234   Section        2  libinit.o(.ARM.Collect$$libinit$$00000000)
    .ARM.Collect$$libinit$$00000002          0x08000236   Section        0  libinit2.o(.ARM.Collect$$libinit$$00000002)
    .ARM.Collect$$libinit$$00000004          0x08000236   Section        0  libinit2.o(.ARM.Collect$$libinit$$00000004)
    .ARM.Collect$$libinit$$0000000A          0x08000236   Section        0  libinit2.o(.ARM.Collect$$libinit$$0000000A)
    .ARM.Collect$$libinit$$0000000C          0x08000236   Section        0  libinit2.o(.ARM.Collect$$libinit$$0000000C)
    .ARM.Collect$$libinit$$0000000E          0x08000236   Section        0  libinit2.o(.ARM.Collect$$libinit$$0000000E)
    .ARM.Collect$$libinit$$0000000F          0x08000236   Section        6  libinit2.o(.ARM.Collect$$libinit$$0000000F)
    .ARM.Collect$$libinit$$00000011          0x0800023c   Section        0  libinit2.o(.ARM.Collect$$libinit$$00000011)
    .ARM.Collect$$libinit$$00000012          0x0800023c   Section       12  libinit2.o(.ARM.Collect$$libinit$$00000012)
    .ARM.Collect$$libinit$$00000013          0x08000248   Section        0  libinit2.o(.ARM.Collect$$libinit$$00000013)
    .ARM.Collect$$libinit$$00000015          0x08000248   Section        0  libinit2.o(.ARM.Collect$$libinit$$00000015)
    .ARM.Collect$$libinit$$00000016          0x08000248   Section       10  libinit2.o(.ARM.Collect$$libinit$$00000016)
    .ARM.Collect$$libinit$$00000017          0x08000252   Section        0  libinit2.o(.ARM.Collect$$libinit$$00000017)
    .ARM.Collect$$libinit$$00000019          0x08000252   Section        0  libinit2.o(.ARM.Collect$$libinit$$00000019)
    .ARM.Collect$$libinit$$0000001B          0x08000252   Section        0  libinit2.o(.ARM.Collect$$libinit$$0000001B)
    .ARM.Collect$$libinit$$0000001D          0x08000252   Section        0  libinit2.o(.ARM.Collect$$libinit$$0000001D)
    .ARM.Collect$$libinit$$0000001F          0x08000252   Section        0  libinit2.o(.ARM.Collect$$libinit$$0000001F)
    .ARM.Collect$$libinit$$00000021          0x08000252   Section        0  libinit2.o(.ARM.Collect$$libinit$$00000021)
    .ARM.Collect$$libinit$$00000023          0x08000252   Section        0  libinit2.o(.ARM.Collect$$libinit$$00000023)
    .ARM.Collect$$libinit$$00000025          0x08000252   Section        0  libinit2.o(.ARM.Collect$$libinit$$00000025)
    .ARM.Collect$$libinit$$0000002C          0x08000252   Section        0  libinit2.o(.ARM.Collect$$libinit$$0000002C)
    .ARM.Collect$$libinit$$0000002E          0x08000252   Section        0  libinit2.o(.ARM.Collect$$libinit$$0000002E)
    .ARM.Collect$$libinit$$00000030          0x08000252   Section        0  libinit2.o(.ARM.Collect$$libinit$$00000030)
    .ARM.Collect$$libinit$$00000032          0x08000252   Section        0  libinit2.o(.ARM.Collect$$libinit$$00000032)
    .ARM.Collect$$libinit$$00000033          0x08000252   Section        2  libinit2.o(.ARM.Collect$$libinit$$00000033)
    .ARM.Collect$$libshutdown$$00000000      0x08000254   Section        2  libshutdown.o(.ARM.Collect$$libshutdown$$00000000)
    .ARM.Collect$$libshutdown$$00000002      0x08000256   Section        0  libshutdown2.o(.ARM.Collect$$libshutdown$$00000002)
    .ARM.Collect$$libshutdown$$00000004      0x08000256   Section        0  libshutdown2.o(.ARM.Collect$$libshutdown$$00000004)
    .ARM.Collect$$libshutdown$$00000007      0x08000256   Section        0  libshutdown2.o(.ARM.Collect$$libshutdown$$00000007)
    .ARM.Collect$$libshutdown$$0000000A      0x08000256   Section        0  libshutdown2.o(.ARM.Collect$$libshutdown$$0000000A)
    .ARM.Collect$$libshutdown$$0000000C      0x08000256   Section        0  libshutdown2.o(.ARM.Collect$$libshutdown$$0000000C)
    .ARM.Collect$$libshutdown$$0000000F      0x08000256   Section        0  libshutdown2.o(.ARM.Collect$$libshutdown$$0000000F)
    .ARM.Collect$$libshutdown$$00000010      0x08000256   Section        2  libshutdown2.o(.ARM.Collect$$libshutdown$$00000010)
    .ARM.Collect$$rtentry$$00000000          0x08000258   Section        0  __rtentry.o(.ARM.Collect$$rtentry$$00000000)
    .ARM.Collect$$rtentry$$00000002          0x08000258   Section        0  __rtentry2.o(.ARM.Collect$$rtentry$$00000002)
    .ARM.Collect$$rtentry$$00000004          0x08000258   Section        6  __rtentry4.o(.ARM.Collect$$rtentry$$00000004)
    .ARM.Collect$$rtentry$$00000009          0x0800025e   Section        0  __rtentry2.o(.ARM.Collect$$rtentry$$00000009)
    .ARM.Collect$$rtentry$$0000000A          0x0800025e   Section        4  __rtentry2.o(.ARM.Collect$$rtentry$$0000000A)
    .ARM.Collect$$rtentry$$0000000C          0x08000262   Section        0  __rtentry2.o(.ARM.Collect$$rtentry$$0000000C)
    .ARM.Collect$$rtentry$$0000000D          0x08000262   Section        8  __rtentry2.o(.ARM.Collect$$rtentry$$0000000D)
    .ARM.Collect$$rtexit$$00000000           0x0800026a   Section        2  rtexit.o(.ARM.Collect$$rtexit$$00000000)
    .ARM.Collect$$rtexit$$00000002           0x0800026c   Section        0  rtexit2.o(.ARM.Collect$$rtexit$$00000002)
    .ARM.Collect$$rtexit$$00000003           0x0800026c   Section        4  rtexit2.o(.ARM.Collect$$rtexit$$00000003)
    .ARM.Collect$$rtexit$$00000004           0x08000270   Section        6  rtexit2.o(.ARM.Collect$$rtexit$$00000004)
    .emb_text                                0x08000278   Section       32  core_cm3.o(.emb_text)
    .text                                    0x08000298   Section       64  startup_stm32f10x_hd.o(.text)
    .text                                    0x080002d8   Section        2  use_no_semi_2.o(.text)
    .text                                    0x080002da   Section      238  lludivv7m.o(.text)
    .text                                    0x080003c8   Section        0  vsnprintf.o(.text)
    .text                                    0x080003fc   Section        0  __2printf.o(.text)
    .text                                    0x08000414   Section        0  _printf_str.o(.text)
    .text                                    0x08000468   Section        0  _printf_dec.o(.text)
    .text                                    0x080004e0   Section        0  __printf_flags_ss_wp.o(.text)
    .text                                    0x08000668   Section        0  __0sscanf.o(.text)
    .text                                    0x080006a4   Section        0  _scanf_int.o(.text)
    .text                                    0x080007f0   Section      138  rt_memcpy_v6.o(.text)
    .text                                    0x0800087a   Section        0  heapauxi.o(.text)
    .text                                    0x08000880   Section        2  use_no_semi.o(.text)
    .text                                    0x08000882   Section        0  _printf_pad.o(.text)
    .text                                    0x080008d0   Section        0  _printf_truncate.o(.text)
    .text                                    0x080008f4   Section        0  _printf_intcommon.o(.text)
    .text                                    0x080009a6   Section        0  _printf_charcount.o(.text)
    .text                                    0x080009d0   Section        0  _printf_char_common.o(.text)
    _printf_input_char                       0x080009d1   Thumb Code    10  _printf_char_common.o(.text)
    .text                                    0x08000a00   Section        0  _sputc.o(.text)
    .text                                    0x08000a0a   Section        0  _snputc.o(.text)
    .text                                    0x08000a1a   Section        0  _printf_char.o(.text)
    .text                                    0x08000a48   Section        0  _printf_char_file.o(.text)
    .text                                    0x08000a6c   Section        0  _printf_wctomb.o(.text)
    .text                                    0x08000b28   Section        0  _printf_longlong_dec.o(.text)
    .text                                    0x08000ba4   Section        0  _printf_oct_int_ll.o(.text)
    _printf_longlong_oct_internal            0x08000ba5   Thumb Code     0  _printf_oct_int_ll.o(.text)
    .text                                    0x08000c14   Section        0  _printf_hex_int_ll_ptr.o(.text)
    _printf_hex_common                       0x08000c15   Thumb Code     0  _printf_hex_int_ll_ptr.o(.text)
    .text                                    0x08000ca8   Section        0  _chval.o(.text)
    .text                                    0x08000cc4   Section        0  scanf_char.o(.text)
    _scanf_char_input                        0x08000cc5   Thumb Code    12  scanf_char.o(.text)
    .text                                    0x08000cf0   Section        0  _sgetc.o(.text)
    .text                                    0x08000d30   Section      100  rt_memcpy_w.o(.text)
    .text                                    0x08000d94   Section      138  lludiv10.o(.text)
    .text                                    0x08000e1e   Section        0  isspace.o(.text)
    .text                                    0x08000e30   Section        0  _printf_fp_dec.o(.text)
    _fp_digits                               0x08000e33   Thumb Code   432  _printf_fp_dec.o(.text)
    .text                                    0x08001250   Section        0  _printf_fp_hex.o(.text)
    .text                                    0x0800154c   Section        0  _printf_wchar.o(.text)
    .text                                    0x08001578   Section        0  _scanf.o(.text)
    .text                                    0x080018ec   Section        0  ferror.o(.text)
    .text                                    0x080018f4   Section        0  _wcrtomb.o(.text)
    .text                                    0x08001934   Section       74  sys_stackheap_outer.o(.text)
    .text                                    0x08001980   Section       16  rt_ctype_table.o(.text)
    .text                                    0x08001990   Section        8  rt_locale_intlibspace.o(.text)
    .text                                    0x08001998   Section        0  _printf_fp_infnan.o(.text)
    .text                                    0x08001a18   Section        0  bigflt0.o(.text)
    .text                                    0x08001afc   Section        0  exit.o(.text)
    .text                                    0x08001b10   Section        8  libspace.o(.text)
    .text                                    0x08001b18   Section      128  strcmpv7m.o(.text)
    CL$$btod_d2e                             0x08001b98   Section       62  btod.o(CL$$btod_d2e)
    CL$$btod_d2e_denorm_low                  0x08001bd6   Section       70  btod.o(CL$$btod_d2e_denorm_low)
    CL$$btod_d2e_norm_op1                    0x08001c1c   Section       96  btod.o(CL$$btod_d2e_norm_op1)
    CL$$btod_div_common                      0x08001c7c   Section      824  btod.o(CL$$btod_div_common)
    CL$$btod_e2e                             0x08001fb4   Section      220  btod.o(CL$$btod_e2e)
    CL$$btod_ediv                            0x08002090   Section       42  btod.o(CL$$btod_ediv)
    CL$$btod_emul                            0x080020ba   Section       42  btod.o(CL$$btod_emul)
    CL$$btod_mult_common                     0x080020e4   Section      580  btod.o(CL$$btod_mult_common)
    i.BusFault_Handler                       0x08002328   Section        0  stm32f10x_it.o(i.BusFault_Handler)
    i.Button_Handler                         0x0800232a   Section        0  multi_button.o(i.Button_Handler)
    i.Button_Ticks                           0x08002504   Section        0  multi_button.o(i.Button_Ticks)
    i.Cal_CRC16                              0x08002524   Section        0  ymodem.o(i.Cal_CRC16)
    i.DebugMon_Handler                       0x080025a4   Section        0  stm32f10x_it.o(i.DebugMon_Handler)
    i.FLASH_ErasePage                        0x080025a8   Section        0  stm32f10x_flash.o(i.FLASH_ErasePage)
    i.FLASH_Lock                             0x08002628   Section        0  stm32f10x_flash.o(i.FLASH_Lock)
    i.FLASH_PagesMask                        0x08002638   Section        0  my_ymodem.o(i.FLASH_PagesMask)
    i.FLASH_ProgramWord                      0x08002650   Section        0  stm32f10x_flash.o(i.FLASH_ProgramWord)
    i.FLASH_Unlock                           0x080026e0   Section        0  stm32f10x_flash.o(i.FLASH_Unlock)
    i.FLASH_WaitForLastOperation             0x080026f8   Section        0  stm32f10x_flash.o(i.FLASH_WaitForLastOperation)
    i.GPIO_Init                              0x0800275c   Section        0  stm32f10x_gpio.o(i.GPIO_Init)
    i.GPIO_PinRemapConfig                    0x080028cc   Section        0  stm32f10x_gpio.o(i.GPIO_PinRemapConfig)
    i.HardFault_Handler                      0x08002afc   Section        0  stm32f10x_it.o(i.HardFault_Handler)
    i.KEY_Scan                               0x08002b00   Section        0  key.o(i.KEY_Scan)
    i.MemManage_Handler                      0x08002b5c   Section        0  stm32f10x_it.o(i.MemManage_Handler)
    i.NMI_Handler                            0x08002b5e   Section        0  stm32f10x_it.o(i.NMI_Handler)
    i.NVIC_Init                              0x08002b60   Section        0  misc.o(i.NVIC_Init)
    i.NVIC_PriorityGroupConfig               0x08002c18   Section        0  misc.o(i.NVIC_PriorityGroupConfig)
    i.PendSV_Handler                         0x08002c70   Section        0  stm32f10x_it.o(i.PendSV_Handler)
    i.RCC_APB1PeriphClockCmd                 0x08002c74   Section        0  stm32f10x_rcc.o(i.RCC_APB1PeriphClockCmd)
    i.RCC_APB2PeriphClockCmd                 0x08002cdc   Section        0  stm32f10x_rcc.o(i.RCC_APB2PeriphClockCmd)
    i.RCC_GetClocksFreq                      0x08002d44   Section        0  stm32f10x_rcc.o(i.RCC_GetClocksFreq)
    i.Receive_Byte                           0x08002df0   Section        0  ymodem.o(i.Receive_Byte)
    i.SVC_Handler                            0x08002e24   Section        0  stm32f10x_it.o(i.SVC_Handler)
    i.SerialDownload                         0x08002e28   Section        0  my_ymodem.o(i.SerialDownload)
    i.SoftTimer_Update                       0x08002fb8   Section        0  soft_timer.o(i.SoftTimer_Update)
    i.SysTick_CLKSourceConfig                0x08003054   Section        0  misc.o(i.SysTick_CLKSourceConfig)
    i.SysTick_Callback                       0x0800309c   Section        0  systick.o(i.SysTick_Callback)
    i.SysTick_Handler                        0x0800311c   Section        0  delay.o(i.SysTick_Handler)
    i.SystemInit                             0x08003134   Section        0  system_stm32f10x.o(i.SystemInit)
    i.UART4_IRQHandler                       0x08003224   Section        0  uart4.o(i.UART4_IRQHandler)
    i.UART4_Init                             0x080032d8   Section        0  uart4.o(i.UART4_Init)
    i.USART1_IRQHandler                      0x080033ec   Section        0  usart1.o(i.USART1_IRQHandler)
    i.USART2_IRQHandler                      0x080034a0   Section        0  usart2.o(i.USART2_IRQHandler)
    i.USART3_IRQHandler                      0x08003554   Section        0  usart3.o(i.USART3_IRQHandler)
    i.USART_ClearFlag                        0x08003608   Section        0  stm32f10x_usart.o(i.USART_ClearFlag)
    i.USART_Cmd                              0x080036ac   Section        0  stm32f10x_usart.o(i.USART_Cmd)
    i.USART_GetFlagStatus                    0x08003738   Section        0  stm32f10x_usart.o(i.USART_GetFlagStatus)
    i.USART_GetITStatus                      0x08003800   Section        0  stm32f10x_usart.o(i.USART_GetITStatus)
    i.USART_ITConfig                         0x08003914   Section        0  stm32f10x_usart.o(i.USART_ITConfig)
    i.USART_Init                             0x08003a2c   Section        0  stm32f10x_usart.o(i.USART_Init)
    i.USART_ReceiveData                      0x08003bf0   Section        0  stm32f10x_usart.o(i.USART_ReceiveData)
    i.USART_SendData                         0x08003c60   Section        0  stm32f10x_usart.o(i.USART_SendData)
    i.UsageFault_Handler                     0x08003ce0   Section        0  stm32f10x_it.o(i.UsageFault_Handler)
    i.Ymodem_Init                            0x08003ce4   Section        0  my_ymodem.o(i.Ymodem_Init)
    i.Ymodem_Receive                         0x08003ed8   Section        0  ymodem.o(i.Ymodem_Receive)
    i.__ARM_fpclassify                       0x080048dc   Section        0  fpclassify.o(i.__ARM_fpclassify)
    i._is_digit                              0x08004904   Section        0  __printf_wp.o(i._is_digit)
    i._sys_exit                              0x08004912   Section        0  sys.o(i._sys_exit)
    i.assert_failed                          0x08004914   Section        0  sys.o(i.assert_failed)
    i.delay_init                             0x0800493c   Section        0  delay.o(i.delay_init)
    i.delay_ms                               0x080049b0   Section        0  delay.o(i.delay_ms)
    i.fputc                                  0x080049e8   Section        0  sys.o(i.fputc)
    i.main                                   0x08004a18   Section        0  main.o(i.main)
    locale$$code                             0x08004a28   Section       44  lc_numeric_c.o(locale$$code)
    locale$$code                             0x08004a54   Section       44  lc_ctype_c.o(locale$$code)
    x$fpl$printf1                            0x08004a80   Section        4  printf1.o(x$fpl$printf1)
    x$fpl$printf2                            0x08004a84   Section        4  printf2.o(x$fpl$printf2)
    .constdata                               0x08004a88   Section       17  __printf_flags_ss_wp.o(.constdata)
    x$fpl$usenofp                            0x08004a88   Section        0  usenofp.o(x$fpl$usenofp)
    maptable                                 0x08004a88   Data          17  __printf_flags_ss_wp.o(.constdata)
    .constdata                               0x08004a9c   Section        8  _printf_wctomb.o(.constdata)
    initial_mbstate                          0x08004a9c   Data           8  _printf_wctomb.o(.constdata)
    .constdata                               0x08004aa4   Section       40  _printf_hex_int_ll_ptr.o(.constdata)
    uc_hextab                                0x08004aa4   Data          20  _printf_hex_int_ll_ptr.o(.constdata)
    lc_hextab                                0x08004ab8   Data          20  _printf_hex_int_ll_ptr.o(.constdata)
    .constdata                               0x08004acc   Section       38  _printf_fp_hex.o(.constdata)
    lc_hextab                                0x08004acc   Data          19  _printf_fp_hex.o(.constdata)
    uc_hextab                                0x08004adf   Data          19  _printf_fp_hex.o(.constdata)
    .constdata                               0x08004af4   Section      148  bigflt0.o(.constdata)
    tenpwrs_x                                0x08004af4   Data          60  bigflt0.o(.constdata)
    tenpwrs_i                                0x08004b30   Data          64  bigflt0.o(.constdata)
    locale$$data                             0x08004ba8   Section       28  lc_numeric_c.o(locale$$data)
    __lcnum_c_name                           0x08004bac   Data           2  lc_numeric_c.o(locale$$data)
    __lcnum_c_start                          0x08004bb4   Data           0  lc_numeric_c.o(locale$$data)
    __lcnum_c_point                          0x08004bc0   Data           0  lc_numeric_c.o(locale$$data)
    __lcnum_c_thousands                      0x08004bc2   Data           0  lc_numeric_c.o(locale$$data)
    __lcnum_c_grouping                       0x08004bc3   Data           0  lc_numeric_c.o(locale$$data)
    locale$$data                             0x08004bc4   Section      272  lc_ctype_c.o(locale$$data)
    __lcnum_c_end                            0x08004bc4   Data           0  lc_numeric_c.o(locale$$data)
    __lcctype_c_name                         0x08004bc8   Data           2  lc_ctype_c.o(locale$$data)
    __lcctype_c_start                        0x08004bd0   Data           0  lc_ctype_c.o(locale$$data)
    __lcctype_c_end                          0x08004cd4   Data           0  lc_ctype_c.o(locale$$data)
    .data                                    0x20000000   Section        4  sys.o(.data)
    .data                                    0x20000008   Section       16  delay.o(.data)
    fac_us                                   0x20000008   Data           1  delay.o(.data)
    .data                                    0x20000018   Section        2  usart1.o(.data)
    .data                                    0x2000001a   Section        2  usart2.o(.data)
    .data                                    0x2000001c   Section        2  usart3.o(.data)
    .data                                    0x2000001e   Section        2  uart4.o(.data)
    .data                                    0x20000020   Section       20  system_stm32f10x.o(.data)
    .data                                    0x20000034   Section       20  stm32f10x_rcc.o(.data)
    ADCPrescTable                            0x20000034   Data           4  stm32f10x_rcc.o(.data)
    APBAHBPrescTable                         0x20000038   Data          16  stm32f10x_rcc.o(.data)
    .data                                    0x20000048   Section       11  soft_timer.o(.data)
    .data                                    0x20000053   Section        4  key.o(.data)
    flag                                     0x20000054   Data           1  key.o(.data)
    key_up                                   0x20000055   Data           1  key.o(.data)
    .data                                    0x20000058   Section        8  multi_button.o(.data)
    head_handle                              0x2000005c   Data           4  multi_button.o(.data)
    .data                                    0x20000060   Section       16  ymodem.o(.data)
    .data                                    0x20000070   Section        4  ymodem.o(.data)
    .bss                                     0x20000074   Section      600  usart1.o(.bss)
    .bss                                     0x200002cc   Section      800  usart2.o(.bss)
    .bss                                     0x200005ec   Section      500  usart3.o(.bss)
    .bss                                     0x200007e0   Section      500  uart4.o(.bss)
    .bss                                     0x200009d4   Section       48  soft_timer.o(.bss)
    .bss                                     0x20000a04   Section     1024  ymodem.o(.bss)
    .bss                                     0x20000e04   Section      384  ymodem.o(.bss)
    .bss                                     0x20000f84   Section       96  libspace.o(.bss)
    HEAP                                     0x20000fe8   Section      512  startup_stm32f10x_hd.o(HEAP)
    Heap_Mem                                 0x20000fe8   Data         512  startup_stm32f10x_hd.o(HEAP)
    STACK                                    0x200011e8   Section     1024  startup_stm32f10x_hd.o(STACK)
    Stack_Mem                                0x200011e8   Data        1024  startup_stm32f10x_hd.o(STACK)
    __initial_sp                             0x200015e8   Data           0  startup_stm32f10x_hd.o(STACK)

    Global Symbols

    Symbol Name                              Value     Ov Type        Size  Object(Section)

    BuildAttributes$$THM_ISAv4$P$D$K$B$S$PE$A:L22UL41UL21$X:L11$S22US41US21$IEEE1$IW$USESV6$~STKCKD$USESV7$~SHL$OTIME$ROPI$IEEEJ$EBA8$UX$STANDARDLIB$REQ8$PRES8$EABIv2 0x00000000   Number         0  anon$$obj.o ABSOLUTE
    __ARM_use_no_argv                        0x00000000   Number         0  main.o ABSOLUTE
    _printf_flags                            0x00000000   Number         0  printf_stubs.o ABSOLUTE
    _printf_return_value                     0x00000000   Number         0  printf_stubs.o ABSOLUTE
    _printf_sizespec                         0x00000000   Number         0  printf_stubs.o ABSOLUTE
    _printf_widthprec                        0x00000000   Number         0  printf_stubs.o ABSOLUTE
    __ARM_exceptions_init                     - Undefined Weak Reference
    __alloca_initialize                       - Undefined Weak Reference
    __arm_preinit_                            - Undefined Weak Reference
    __cpp_initialize__aeabi_                  - Undefined Weak Reference
    __cxa_finalize                            - Undefined Weak Reference
    __sigvec_lookup                           - Undefined Weak Reference
    _atexit_init                              - Undefined Weak Reference
    _call_atexit_fns                          - Undefined Weak Reference
    _clock_init                               - Undefined Weak Reference
    _fp_trap_init                             - Undefined Weak Reference
    _fp_trap_shutdown                         - Undefined Weak Reference
    _get_lc_collate                           - Undefined Weak Reference
    _get_lc_monetary                          - Undefined Weak Reference
    _get_lc_time                              - Undefined Weak Reference
    _getenv_init                              - Undefined Weak Reference
    _handle_redirection                       - Undefined Weak Reference
    _init_alloc                               - Undefined Weak Reference
    _init_user_alloc                          - Undefined Weak Reference
    _initio                                   - Undefined Weak Reference
    _mutex_acquire                            - Undefined Weak Reference
    _mutex_release                            - Undefined Weak Reference
    _printf_mbtowc                            - Undefined Weak Reference
    _printf_wc                                - Undefined Weak Reference
    _rand_init                                - Undefined Weak Reference
    _scanf_longlong                           - Undefined Weak Reference
    _scanf_mbtowc                             - Undefined Weak Reference
    _scanf_real                               - Undefined Weak Reference
    _scanf_string                             - Undefined Weak Reference
    _scanf_wctomb                             - Undefined Weak Reference
    _scanf_wstring                            - Undefined Weak Reference
    _signal_finish                            - Undefined Weak Reference
    _signal_init                              - Undefined Weak Reference
    _terminate_alloc                          - Undefined Weak Reference
    _terminate_user_alloc                     - Undefined Weak Reference
    _terminateio                              - Undefined Weak Reference
    __Vectors_Size                           0x00000130   Number         0  startup_stm32f10x_hd.o ABSOLUTE
    __Vectors                                0x08000000   Data           4  startup_stm32f10x_hd.o(RESET)
    __Vectors_End                            0x08000130   Data           0  startup_stm32f10x_hd.o(RESET)
    __main                                   0x08000131   Thumb Code     8  __main.o(!!!main)
    __scatterload                            0x08000139   Thumb Code     0  __scatter.o(!!!scatter)
    __scatterload_rt2                        0x08000139   Thumb Code    44  __scatter.o(!!!scatter)
    __scatterload_rt2_thumb_only             0x08000139   Thumb Code     0  __scatter.o(!!!scatter)
    __scatterload_null                       0x08000147   Thumb Code     0  __scatter.o(!!!scatter)
    __scatterload_copy                       0x0800016d   Thumb Code    26  __scatter_copy.o(!!handler_copy)
    __scatterload_zeroinit                   0x08000189   Thumb Code    28  __scatter_zi.o(!!handler_zi)
    _printf_n                                0x080001a5   Thumb Code     0  _printf_n.o(.ARM.Collect$$_printf_percent$$00000001)
    _printf_percent                          0x080001a5   Thumb Code     0  _printf_percent.o(.ARM.Collect$$_printf_percent$$00000000)
    _printf_p                                0x080001ab   Thumb Code     0  _printf_p.o(.ARM.Collect$$_printf_percent$$00000002)
    _printf_f                                0x080001b1   Thumb Code     0  _printf_f.o(.ARM.Collect$$_printf_percent$$00000003)
    _printf_e                                0x080001b7   Thumb Code     0  _printf_e.o(.ARM.Collect$$_printf_percent$$00000004)
    _printf_g                                0x080001bd   Thumb Code     0  _printf_g.o(.ARM.Collect$$_printf_percent$$00000005)
    _printf_a                                0x080001c3   Thumb Code     0  _printf_a.o(.ARM.Collect$$_printf_percent$$00000006)
    _printf_ll                               0x080001c9   Thumb Code     0  _printf_ll.o(.ARM.Collect$$_printf_percent$$00000007)
    _printf_i                                0x080001d3   Thumb Code     0  _printf_i.o(.ARM.Collect$$_printf_percent$$00000008)
    _printf_d                                0x080001d9   Thumb Code     0  _printf_d.o(.ARM.Collect$$_printf_percent$$00000009)
    _printf_u                                0x080001df   Thumb Code     0  _printf_u.o(.ARM.Collect$$_printf_percent$$0000000A)
    _printf_o                                0x080001e5   Thumb Code     0  _printf_o.o(.ARM.Collect$$_printf_percent$$0000000B)
    _printf_x                                0x080001eb   Thumb Code     0  _printf_x.o(.ARM.Collect$$_printf_percent$$0000000C)
    _printf_lli                              0x080001f1   Thumb Code     0  _printf_lli.o(.ARM.Collect$$_printf_percent$$0000000D)
    _printf_lld                              0x080001f7   Thumb Code     0  _printf_lld.o(.ARM.Collect$$_printf_percent$$0000000E)
    _printf_llu                              0x080001fd   Thumb Code     0  _printf_llu.o(.ARM.Collect$$_printf_percent$$0000000F)
    _printf_llo                              0x08000203   Thumb Code     0  _printf_llo.o(.ARM.Collect$$_printf_percent$$00000010)
    _printf_llx                              0x08000209   Thumb Code     0  _printf_llx.o(.ARM.Collect$$_printf_percent$$00000011)
    _printf_l                                0x0800020f   Thumb Code     0  _printf_l.o(.ARM.Collect$$_printf_percent$$00000012)
    _printf_c                                0x08000219   Thumb Code     0  _printf_c.o(.ARM.Collect$$_printf_percent$$00000013)
    _printf_s                                0x0800021f   Thumb Code     0  _printf_s.o(.ARM.Collect$$_printf_percent$$00000014)
    _printf_lc                               0x08000225   Thumb Code     0  _printf_lc.o(.ARM.Collect$$_printf_percent$$00000015)
    _printf_ls                               0x0800022b   Thumb Code     0  _printf_ls.o(.ARM.Collect$$_printf_percent$$00000016)
    _printf_percent_end                      0x08000231   Thumb Code     0  _printf_percent_end.o(.ARM.Collect$$_printf_percent$$00000017)
    __rt_lib_init                            0x08000235   Thumb Code     0  libinit.o(.ARM.Collect$$libinit$$00000000)
    __rt_lib_init_fp_1                       0x08000237   Thumb Code     0  libinit2.o(.ARM.Collect$$libinit$$00000002)
    __rt_lib_init_heap_1                     0x08000237   Thumb Code     0  libinit2.o(.ARM.Collect$$libinit$$0000000A)
    __rt_lib_init_lc_common                  0x08000237   Thumb Code     0  libinit2.o(.ARM.Collect$$libinit$$0000000F)
    __rt_lib_init_preinit_1                  0x08000237   Thumb Code     0  libinit2.o(.ARM.Collect$$libinit$$00000004)
    __rt_lib_init_rand_1                     0x08000237   Thumb Code     0  libinit2.o(.ARM.Collect$$libinit$$0000000E)
    __rt_lib_init_user_alloc_1               0x08000237   Thumb Code     0  libinit2.o(.ARM.Collect$$libinit$$0000000C)
    __rt_lib_init_lc_collate_1               0x0800023d   Thumb Code     0  libinit2.o(.ARM.Collect$$libinit$$00000011)
    __rt_lib_init_lc_ctype_2                 0x0800023d   Thumb Code     0  libinit2.o(.ARM.Collect$$libinit$$00000012)
    __rt_lib_init_lc_ctype_1                 0x08000249   Thumb Code     0  libinit2.o(.ARM.Collect$$libinit$$00000013)
    __rt_lib_init_lc_monetary_1              0x08000249   Thumb Code     0  libinit2.o(.ARM.Collect$$libinit$$00000015)
    __rt_lib_init_lc_numeric_2               0x08000249   Thumb Code     0  libinit2.o(.ARM.Collect$$libinit$$00000016)
    __rt_lib_init_alloca_1                   0x08000253   Thumb Code     0  libinit2.o(.ARM.Collect$$libinit$$0000002E)
    __rt_lib_init_argv_1                     0x08000253   Thumb Code     0  libinit2.o(.ARM.Collect$$libinit$$0000002C)
    __rt_lib_init_atexit_1                   0x08000253   Thumb Code     0  libinit2.o(.ARM.Collect$$libinit$$0000001B)
    __rt_lib_init_clock_1                    0x08000253   Thumb Code     0  libinit2.o(.ARM.Collect$$libinit$$00000021)
    __rt_lib_init_cpp_1                      0x08000253   Thumb Code     0  libinit2.o(.ARM.Collect$$libinit$$00000032)
    __rt_lib_init_exceptions_1               0x08000253   Thumb Code     0  libinit2.o(.ARM.Collect$$libinit$$00000030)
    __rt_lib_init_fp_trap_1                  0x08000253   Thumb Code     0  libinit2.o(.ARM.Collect$$libinit$$0000001F)
    __rt_lib_init_getenv_1                   0x08000253   Thumb Code     0  libinit2.o(.ARM.Collect$$libinit$$00000023)
    __rt_lib_init_lc_numeric_1               0x08000253   Thumb Code     0  libinit2.o(.ARM.Collect$$libinit$$00000017)
    __rt_lib_init_lc_time_1                  0x08000253   Thumb Code     0  libinit2.o(.ARM.Collect$$libinit$$00000019)
    __rt_lib_init_return                     0x08000253   Thumb Code     0  libinit2.o(.ARM.Collect$$libinit$$00000033)
    __rt_lib_init_signal_1                   0x08000253   Thumb Code     0  libinit2.o(.ARM.Collect$$libinit$$0000001D)
    __rt_lib_init_stdio_1                    0x08000253   Thumb Code     0  libinit2.o(.ARM.Collect$$libinit$$00000025)
    __rt_lib_shutdown                        0x08000255   Thumb Code     0  libshutdown.o(.ARM.Collect$$libshutdown$$00000000)
    __rt_lib_shutdown_cpp_1                  0x08000257   Thumb Code     0  libshutdown2.o(.ARM.Collect$$libshutdown$$00000002)
    __rt_lib_shutdown_fp_trap_1              0x08000257   Thumb Code     0  libshutdown2.o(.ARM.Collect$$libshutdown$$00000007)
    __rt_lib_shutdown_heap_1                 0x08000257   Thumb Code     0  libshutdown2.o(.ARM.Collect$$libshutdown$$0000000F)
    __rt_lib_shutdown_return                 0x08000257   Thumb Code     0  libshutdown2.o(.ARM.Collect$$libshutdown$$00000010)
    __rt_lib_shutdown_signal_1               0x08000257   Thumb Code     0  libshutdown2.o(.ARM.Collect$$libshutdown$$0000000A)
    __rt_lib_shutdown_stdio_1                0x08000257   Thumb Code     0  libshutdown2.o(.ARM.Collect$$libshutdown$$00000004)
    __rt_lib_shutdown_user_alloc_1           0x08000257   Thumb Code     0  libshutdown2.o(.ARM.Collect$$libshutdown$$0000000C)
    __rt_entry                               0x08000259   Thumb Code     0  __rtentry.o(.ARM.Collect$$rtentry$$00000000)
    __rt_entry_presh_1                       0x08000259   Thumb Code     0  __rtentry2.o(.ARM.Collect$$rtentry$$00000002)
    __rt_entry_sh                            0x08000259   Thumb Code     0  __rtentry4.o(.ARM.Collect$$rtentry$$00000004)
    __rt_entry_li                            0x0800025f   Thumb Code     0  __rtentry2.o(.ARM.Collect$$rtentry$$0000000A)
    __rt_entry_postsh_1                      0x0800025f   Thumb Code     0  __rtentry2.o(.ARM.Collect$$rtentry$$00000009)
    __rt_entry_main                          0x08000263   Thumb Code     0  __rtentry2.o(.ARM.Collect$$rtentry$$0000000D)
    __rt_entry_postli_1                      0x08000263   Thumb Code     0  __rtentry2.o(.ARM.Collect$$rtentry$$0000000C)
    __rt_exit                                0x0800026b   Thumb Code     0  rtexit.o(.ARM.Collect$$rtexit$$00000000)
    __rt_exit_ls                             0x0800026d   Thumb Code     0  rtexit2.o(.ARM.Collect$$rtexit$$00000003)
    __rt_exit_prels_1                        0x0800026d   Thumb Code     0  rtexit2.o(.ARM.Collect$$rtexit$$00000002)
    __rt_exit_exit                           0x08000271   Thumb Code     0  rtexit2.o(.ARM.Collect$$rtexit$$00000004)
    __get_PSP                                0x08000279   Thumb Code     6  core_cm3.o(.emb_text)
    __set_PSP                                0x0800027f   Thumb Code     6  core_cm3.o(.emb_text)
    __get_MSP                                0x08000285   Thumb Code     6  core_cm3.o(.emb_text)
    __set_MSP                                0x0800028b   Thumb Code     6  core_cm3.o(.emb_text)
    __REV16                                  0x08000291   Thumb Code     4  core_cm3.o(.emb_text)
    __REVSH                                  0x08000295   Thumb Code     4  core_cm3.o(.emb_text)
    Reset_Handler                            0x08000299   Thumb Code     8  startup_stm32f10x_hd.o(.text)
    ADC1_2_IRQHandler                        0x080002b3   Thumb Code     0  startup_stm32f10x_hd.o(.text)
    ADC3_IRQHandler                          0x080002b3   Thumb Code     0  startup_stm32f10x_hd.o(.text)
    CAN1_RX1_IRQHandler                      0x080002b3   Thumb Code     0  startup_stm32f10x_hd.o(.text)
    CAN1_SCE_IRQHandler                      0x080002b3   Thumb Code     0  startup_stm32f10x_hd.o(.text)
    DMA1_Channel1_IRQHandler                 0x080002b3   Thumb Code     0  startup_stm32f10x_hd.o(.text)
    DMA1_Channel2_IRQHandler                 0x080002b3   Thumb Code     0  startup_stm32f10x_hd.o(.text)
    DMA1_Channel3_IRQHandler                 0x080002b3   Thumb Code     0  startup_stm32f10x_hd.o(.text)
    DMA1_Channel4_IRQHandler                 0x080002b3   Thumb Code     0  startup_stm32f10x_hd.o(.text)
    DMA1_Channel5_IRQHandler                 0x080002b3   Thumb Code     0  startup_stm32f10x_hd.o(.text)
    DMA1_Channel6_IRQHandler                 0x080002b3   Thumb Code     0  startup_stm32f10x_hd.o(.text)
    DMA1_Channel7_IRQHandler                 0x080002b3   Thumb Code     0  startup_stm32f10x_hd.o(.text)
    DMA2_Channel1_IRQHandler                 0x080002b3   Thumb Code     0  startup_stm32f10x_hd.o(.text)
    DMA2_Channel2_IRQHandler                 0x080002b3   Thumb Code     0  startup_stm32f10x_hd.o(.text)
    DMA2_Channel3_IRQHandler                 0x080002b3   Thumb Code     0  startup_stm32f10x_hd.o(.text)
    DMA2_Channel4_5_IRQHandler               0x080002b3   Thumb Code     0  startup_stm32f10x_hd.o(.text)
    EXTI0_IRQHandler                         0x080002b3   Thumb Code     0  startup_stm32f10x_hd.o(.text)
    EXTI15_10_IRQHandler                     0x080002b3   Thumb Code     0  startup_stm32f10x_hd.o(.text)
    EXTI1_IRQHandler                         0x080002b3   Thumb Code     0  startup_stm32f10x_hd.o(.text)
    EXTI2_IRQHandler                         0x080002b3   Thumb Code     0  startup_stm32f10x_hd.o(.text)
    EXTI3_IRQHandler                         0x080002b3   Thumb Code     0  startup_stm32f10x_hd.o(.text)
    EXTI4_IRQHandler                         0x080002b3   Thumb Code     0  startup_stm32f10x_hd.o(.text)
    EXTI9_5_IRQHandler                       0x080002b3   Thumb Code     0  startup_stm32f10x_hd.o(.text)
    FLASH_IRQHandler                         0x080002b3   Thumb Code     0  startup_stm32f10x_hd.o(.text)
    FSMC_IRQHandler                          0x080002b3   Thumb Code     0  startup_stm32f10x_hd.o(.text)
    I2C1_ER_IRQHandler                       0x080002b3   Thumb Code     0  startup_stm32f10x_hd.o(.text)
    I2C1_EV_IRQHandler                       0x080002b3   Thumb Code     0  startup_stm32f10x_hd.o(.text)
    I2C2_ER_IRQHandler                       0x080002b3   Thumb Code     0  startup_stm32f10x_hd.o(.text)
    I2C2_EV_IRQHandler                       0x080002b3   Thumb Code     0  startup_stm32f10x_hd.o(.text)
    PVD_IRQHandler                           0x080002b3   Thumb Code     0  startup_stm32f10x_hd.o(.text)
    RCC_IRQHandler                           0x080002b3   Thumb Code     0  startup_stm32f10x_hd.o(.text)
    RTCAlarm_IRQHandler                      0x080002b3   Thumb Code     0  startup_stm32f10x_hd.o(.text)
    RTC_IRQHandler                           0x080002b3   Thumb Code     0  startup_stm32f10x_hd.o(.text)
    SDIO_IRQHandler                          0x080002b3   Thumb Code     0  startup_stm32f10x_hd.o(.text)
    SPI1_IRQHandler                          0x080002b3   Thumb Code     0  startup_stm32f10x_hd.o(.text)
    SPI2_IRQHandler                          0x080002b3   Thumb Code     0  startup_stm32f10x_hd.o(.text)
    SPI3_IRQHandler                          0x080002b3   Thumb Code     0  startup_stm32f10x_hd.o(.text)
    TAMPER_IRQHandler                        0x080002b3   Thumb Code     0  startup_stm32f10x_hd.o(.text)
    TIM1_BRK_IRQHandler                      0x080002b3   Thumb Code     0  startup_stm32f10x_hd.o(.text)
    TIM1_CC_IRQHandler                       0x080002b3   Thumb Code     0  startup_stm32f10x_hd.o(.text)
    TIM1_TRG_COM_IRQHandler                  0x080002b3   Thumb Code     0  startup_stm32f10x_hd.o(.text)
    TIM1_UP_IRQHandler                       0x080002b3   Thumb Code     0  startup_stm32f10x_hd.o(.text)
    TIM2_IRQHandler                          0x080002b3   Thumb Code     0  startup_stm32f10x_hd.o(.text)
    TIM3_IRQHandler                          0x080002b3   Thumb Code     0  startup_stm32f10x_hd.o(.text)
    TIM4_IRQHandler                          0x080002b3   Thumb Code     0  startup_stm32f10x_hd.o(.text)
    TIM5_IRQHandler                          0x080002b3   Thumb Code     0  startup_stm32f10x_hd.o(.text)
    TIM6_IRQHandler                          0x080002b3   Thumb Code     0  startup_stm32f10x_hd.o(.text)
    TIM7_IRQHandler                          0x080002b3   Thumb Code     0  startup_stm32f10x_hd.o(.text)
    TIM8_BRK_IRQHandler                      0x080002b3   Thumb Code     0  startup_stm32f10x_hd.o(.text)
    TIM8_CC_IRQHandler                       0x080002b3   Thumb Code     0  startup_stm32f10x_hd.o(.text)
    TIM8_TRG_COM_IRQHandler                  0x080002b3   Thumb Code     0  startup_stm32f10x_hd.o(.text)
    TIM8_UP_IRQHandler                       0x080002b3   Thumb Code     0  startup_stm32f10x_hd.o(.text)
    UART5_IRQHandler                         0x080002b3   Thumb Code     0  startup_stm32f10x_hd.o(.text)
    USBWakeUp_IRQHandler                     0x080002b3   Thumb Code     0  startup_stm32f10x_hd.o(.text)
    USB_HP_CAN1_TX_IRQHandler                0x080002b3   Thumb Code     0  startup_stm32f10x_hd.o(.text)
    USB_LP_CAN1_RX0_IRQHandler               0x080002b3   Thumb Code     0  startup_stm32f10x_hd.o(.text)
    WWDG_IRQHandler                          0x080002b3   Thumb Code     0  startup_stm32f10x_hd.o(.text)
    __user_initial_stackheap                 0x080002b5   Thumb Code     0  startup_stm32f10x_hd.o(.text)
    __use_no_semihosting                     0x080002d9   Thumb Code     2  use_no_semi_2.o(.text)
    __aeabi_uldivmod                         0x080002db   Thumb Code     0  lludivv7m.o(.text)
    _ll_udiv                                 0x080002db   Thumb Code   238  lludivv7m.o(.text)
    vsnprintf                                0x080003c9   Thumb Code    48  vsnprintf.o(.text)
    __2printf                                0x080003fd   Thumb Code    20  __2printf.o(.text)
    _printf_str                              0x08000415   Thumb Code    82  _printf_str.o(.text)
    _printf_int_dec                          0x08000469   Thumb Code   104  _printf_dec.o(.text)
    __printf                                 0x080004e1   Thumb Code   388  __printf_flags_ss_wp.o(.text)
    __0sscanf                                0x08000669   Thumb Code    52  __0sscanf.o(.text)
    _scanf_int                               0x080006a5   Thumb Code   332  _scanf_int.o(.text)
    __aeabi_memcpy                           0x080007f1   Thumb Code     0  rt_memcpy_v6.o(.text)
    __rt_memcpy                              0x080007f1   Thumb Code   138  rt_memcpy_v6.o(.text)
    _memcpy_lastbytes                        0x08000857   Thumb Code     0  rt_memcpy_v6.o(.text)
    __use_two_region_memory                  0x0800087b   Thumb Code     2  heapauxi.o(.text)
    __rt_heap_escrow$2region                 0x0800087d   Thumb Code     2  heapauxi.o(.text)
    __rt_heap_expand$2region                 0x0800087f   Thumb Code     2  heapauxi.o(.text)
    __I$use$semihosting                      0x08000881   Thumb Code     0  use_no_semi.o(.text)
    __use_no_semihosting_swi                 0x08000881   Thumb Code     2  use_no_semi.o(.text)
    _printf_pre_padding                      0x08000883   Thumb Code    44  _printf_pad.o(.text)
    _printf_post_padding                     0x080008af   Thumb Code    34  _printf_pad.o(.text)
    _printf_truncate_signed                  0x080008d1   Thumb Code    18  _printf_truncate.o(.text)
    _printf_truncate_unsigned                0x080008e3   Thumb Code    18  _printf_truncate.o(.text)
    _printf_int_common                       0x080008f5   Thumb Code   178  _printf_intcommon.o(.text)
    _printf_charcount                        0x080009a7   Thumb Code    40  _printf_charcount.o(.text)
    _printf_char_common                      0x080009db   Thumb Code    32  _printf_char_common.o(.text)
    _sputc                                   0x08000a01   Thumb Code    10  _sputc.o(.text)
    _snputc                                  0x08000a0b   Thumb Code    16  _snputc.o(.text)
    _printf_cs_common                        0x08000a1b   Thumb Code    20  _printf_char.o(.text)
    _printf_char                             0x08000a2f   Thumb Code    16  _printf_char.o(.text)
    _printf_string                           0x08000a3f   Thumb Code     8  _printf_char.o(.text)
    _printf_char_file                        0x08000a49   Thumb Code    32  _printf_char_file.o(.text)
    _printf_wctomb                           0x08000a6d   Thumb Code   182  _printf_wctomb.o(.text)
    _printf_longlong_dec                     0x08000b29   Thumb Code   108  _printf_longlong_dec.o(.text)
    _printf_longlong_oct                     0x08000ba5   Thumb Code    66  _printf_oct_int_ll.o(.text)
    _printf_int_oct                          0x08000be7   Thumb Code    24  _printf_oct_int_ll.o(.text)
    _printf_ll_oct                           0x08000bff   Thumb Code    12  _printf_oct_int_ll.o(.text)
    _printf_longlong_hex                     0x08000c15   Thumb Code    86  _printf_hex_int_ll_ptr.o(.text)
    _printf_int_hex                          0x08000c6b   Thumb Code    28  _printf_hex_int_ll_ptr.o(.text)
    _printf_ll_hex                           0x08000c87   Thumb Code    12  _printf_hex_int_ll_ptr.o(.text)
    _printf_hex_ptr                          0x08000c93   Thumb Code    18  _printf_hex_int_ll_ptr.o(.text)
    _chval                                   0x08000ca9   Thumb Code    28  _chval.o(.text)
    __vfscanf_char                           0x08000cd1   Thumb Code    24  scanf_char.o(.text)
    _sgetc                                   0x08000cf1   Thumb Code    30  _sgetc.o(.text)
    _sbackspace                              0x08000d0f   Thumb Code    34  _sgetc.o(.text)
    __aeabi_memcpy4                          0x08000d31   Thumb Code     0  rt_memcpy_w.o(.text)
    __aeabi_memcpy8                          0x08000d31   Thumb Code     0  rt_memcpy_w.o(.text)
    __rt_memcpy_w                            0x08000d31   Thumb Code   100  rt_memcpy_w.o(.text)
    _memcpy_lastbytes_aligned                0x08000d79   Thumb Code     0  rt_memcpy_w.o(.text)
    _ll_udiv10                               0x08000d95   Thumb Code   138  lludiv10.o(.text)
    isspace                                  0x08000e1f   Thumb Code    18  isspace.o(.text)
    __lib_sel_fp_printf                      0x08000e31   Thumb Code     2  _printf_fp_dec.o(.text)
    _printf_fp_dec_real                      0x08000fe3   Thumb Code   620  _printf_fp_dec.o(.text)
    _printf_fp_hex_real                      0x08001251   Thumb Code   756  _printf_fp_hex.o(.text)
    _printf_lcs_common                       0x0800154d   Thumb Code    20  _printf_wchar.o(.text)
    _printf_wchar                            0x08001561   Thumb Code    16  _printf_wchar.o(.text)
    _printf_wstring                          0x08001571   Thumb Code     8  _printf_wchar.o(.text)
    __vfscanf                                0x08001579   Thumb Code   878  _scanf.o(.text)
    ferror                                   0x080018ed   Thumb Code     8  ferror.o(.text)
    _wcrtomb                                 0x080018f5   Thumb Code    64  _wcrtomb.o(.text)
    __user_setup_stackheap                   0x08001935   Thumb Code    74  sys_stackheap_outer.o(.text)
    __rt_ctype_table                         0x08001981   Thumb Code    16  rt_ctype_table.o(.text)
    __rt_locale                              0x08001991   Thumb Code     8  rt_locale_intlibspace.o(.text)
    _printf_fp_infnan                        0x08001999   Thumb Code   112  _printf_fp_infnan.o(.text)
    _btod_etento                             0x08001a19   Thumb Code   224  bigflt0.o(.text)
    exit                                     0x08001afd   Thumb Code    18  exit.o(.text)
    __user_libspace                          0x08001b11   Thumb Code     8  libspace.o(.text)
    __user_perproc_libspace                  0x08001b11   Thumb Code     0  libspace.o(.text)
    __user_perthread_libspace                0x08001b11   Thumb Code     0  libspace.o(.text)
    strcmp                                   0x08001b19   Thumb Code   128  strcmpv7m.o(.text)
    _btod_d2e                                0x08001b99   Thumb Code    62  btod.o(CL$$btod_d2e)
    _d2e_denorm_low                          0x08001bd7   Thumb Code    70  btod.o(CL$$btod_d2e_denorm_low)
    _d2e_norm_op1                            0x08001c1d   Thumb Code    96  btod.o(CL$$btod_d2e_norm_op1)
    __btod_div_common                        0x08001c7d   Thumb Code   696  btod.o(CL$$btod_div_common)
    _e2e                                     0x08001fb5   Thumb Code   220  btod.o(CL$$btod_e2e)
    _btod_ediv                               0x08002091   Thumb Code    42  btod.o(CL$$btod_ediv)
    _btod_emul                               0x080020bb   Thumb Code    42  btod.o(CL$$btod_emul)
    __btod_mult_common                       0x080020e5   Thumb Code   580  btod.o(CL$$btod_mult_common)
    BusFault_Handler                         0x08002329   Thumb Code     2  stm32f10x_it.o(i.BusFault_Handler)
    Button_Handler                           0x0800232b   Thumb Code   474  multi_button.o(i.Button_Handler)
    Button_Ticks                             0x08002505   Thumb Code    26  multi_button.o(i.Button_Ticks)
    Cal_CRC16                                0x08002525   Thumb Code   128  ymodem.o(i.Cal_CRC16)
    DebugMon_Handler                         0x080025a5   Thumb Code     2  stm32f10x_it.o(i.DebugMon_Handler)
    FLASH_ErasePage                          0x080025a9   Thumb Code    78  stm32f10x_flash.o(i.FLASH_ErasePage)
    FLASH_Lock                               0x08002629   Thumb Code    12  stm32f10x_flash.o(i.FLASH_Lock)
    FLASH_PagesMask                          0x08002639   Thumb Code    22  my_ymodem.o(i.FLASH_PagesMask)
    FLASH_ProgramWord                        0x08002651   Thumb Code    96  stm32f10x_flash.o(i.FLASH_ProgramWord)
    FLASH_Unlock                             0x080026e1   Thumb Code    12  stm32f10x_flash.o(i.FLASH_Unlock)
    FLASH_WaitForLastOperation               0x080026f9   Thumb Code    96  stm32f10x_flash.o(i.FLASH_WaitForLastOperation)
    GPIO_Init                                0x0800275d   Thumb Code   328  stm32f10x_gpio.o(i.GPIO_Init)
    GPIO_PinRemapConfig                      0x080028cd   Thumb Code   462  stm32f10x_gpio.o(i.GPIO_PinRemapConfig)
    HardFault_Handler                        0x08002afd   Thumb Code     2  stm32f10x_it.o(i.HardFault_Handler)
    KEY_Scan                                 0x08002b01   Thumb Code    82  key.o(i.KEY_Scan)
    MemManage_Handler                        0x08002b5d   Thumb Code     2  stm32f10x_it.o(i.MemManage_Handler)
    NMI_Handler                              0x08002b5f   Thumb Code     2  stm32f10x_it.o(i.NMI_Handler)
    NVIC_Init                                0x08002b61   Thumb Code   150  misc.o(i.NVIC_Init)
    NVIC_PriorityGroupConfig                 0x08002c19   Thumb Code    56  misc.o(i.NVIC_PriorityGroupConfig)
    PendSV_Handler                           0x08002c71   Thumb Code     2  stm32f10x_it.o(i.PendSV_Handler)
    RCC_APB1PeriphClockCmd                   0x08002c75   Thumb Code    58  stm32f10x_rcc.o(i.RCC_APB1PeriphClockCmd)
    RCC_APB2PeriphClockCmd                   0x08002cdd   Thumb Code    58  stm32f10x_rcc.o(i.RCC_APB2PeriphClockCmd)
    RCC_GetClocksFreq                        0x08002d45   Thumb Code   152  stm32f10x_rcc.o(i.RCC_GetClocksFreq)
    Receive_Byte                             0x08002df1   Thumb Code    42  ymodem.o(i.Receive_Byte)
    SVC_Handler                              0x08002e25   Thumb Code     2  stm32f10x_it.o(i.SVC_Handler)
    SerialDownload                           0x08002e29   Thumb Code   114  my_ymodem.o(i.SerialDownload)
    SoftTimer_Update                         0x08002fb9   Thumb Code   120  soft_timer.o(i.SoftTimer_Update)
    SysTick_CLKSourceConfig                  0x08003055   Thumb Code    42  misc.o(i.SysTick_CLKSourceConfig)
    SysTick_Callback                         0x0800309d   Thumb Code   108  systick.o(i.SysTick_Callback)
    SysTick_Handler                          0x0800311d   Thumb Code    20  delay.o(i.SysTick_Handler)
    SystemInit                               0x08003135   Thumb Code   222  system_stm32f10x.o(i.SystemInit)
    UART4_IRQHandler                         0x08003225   Thumb Code   166  uart4.o(i.UART4_IRQHandler)
    UART4_Init                               0x080032d9   Thumb Code   246  uart4.o(i.UART4_Init)
    USART1_IRQHandler                        0x080033ed   Thumb Code   168  usart1.o(i.USART1_IRQHandler)
    USART2_IRQHandler                        0x080034a1   Thumb Code   166  usart2.o(i.USART2_IRQHandler)
    USART3_IRQHandler                        0x08003555   Thumb Code   166  usart3.o(i.USART3_IRQHandler)
    USART_ClearFlag                          0x08003609   Thumb Code   110  stm32f10x_usart.o(i.USART_ClearFlag)
    USART_Cmd                                0x080036ad   Thumb Code   100  stm32f10x_usart.o(i.USART_Cmd)
    USART_GetFlagStatus                      0x08003739   Thumb Code   148  stm32f10x_usart.o(i.USART_GetFlagStatus)
    USART_GetITStatus                        0x08003801   Thumb Code   224  stm32f10x_usart.o(i.USART_GetITStatus)
    USART_ITConfig                           0x08003915   Thumb Code   228  stm32f10x_usart.o(i.USART_ITConfig)
    USART_Init                               0x08003a2d   Thumb Code   392  stm32f10x_usart.o(i.USART_Init)
    USART_ReceiveData                        0x08003bf1   Thumb Code    70  stm32f10x_usart.o(i.USART_ReceiveData)
    USART_SendData                           0x08003c61   Thumb Code    88  stm32f10x_usart.o(i.USART_SendData)
    UsageFault_Handler                       0x08003ce1   Thumb Code     2  stm32f10x_it.o(i.UsageFault_Handler)
    Ymodem_Init                              0x08003ce5   Thumb Code   264  my_ymodem.o(i.Ymodem_Init)
    Ymodem_Receive                           0x08003ed9   Thumb Code  2556  ymodem.o(i.Ymodem_Receive)
    __ARM_fpclassify                         0x080048dd   Thumb Code    40  fpclassify.o(i.__ARM_fpclassify)
    _is_digit                                0x08004905   Thumb Code    14  __printf_wp.o(i._is_digit)
    _sys_exit                                0x08004913   Thumb Code     2  sys.o(i._sys_exit)
    assert_failed                            0x08004915   Thumb Code    10  sys.o(i.assert_failed)
    delay_init                               0x0800493d   Thumb Code    96  delay.o(i.delay_init)
    delay_ms                                 0x080049b1   Thumb Code    52  delay.o(i.delay_ms)
    fputc                                    0x080049e9   Thumb Code    42  sys.o(i.fputc)
    main                                     0x08004a19   Thumb Code    14  main.o(i.main)
    _get_lc_numeric                          0x08004a29   Thumb Code    44  lc_numeric_c.o(locale$$code)
    _get_lc_ctype                            0x08004a55   Thumb Code    44  lc_ctype_c.o(locale$$code)
    _printf_fp_dec                           0x08004a81   Thumb Code     4  printf1.o(x$fpl$printf1)
    _printf_fp_hex                           0x08004a85   Thumb Code     4  printf2.o(x$fpl$printf2)
    __I$use$fp                               0x08004a88   Number         0  usenofp.o(x$fpl$usenofp)
    Region$$Table$$Base                      0x08004b88   Number         0  anon$$obj.o(Region$$Table)
    Region$$Table$$Limit                     0x08004ba8   Number         0  anon$$obj.o(Region$$Table)
    __ctype                                  0x08004bd1   Data           0  lc_ctype_c.o(locale$$data)
    __stdout                                 0x20000000   Data           4  sys.o(.data)
    xitong_haomiao                           0x20000010   Data           8  delay.o(.data)
    USART1_RX_STA                            0x20000018   Data           2  usart1.o(.data)
    USART2_RX_STA                            0x2000001a   Data           2  usart2.o(.data)
    USART3_RX_STA                            0x2000001c   Data           2  usart3.o(.data)
    UART4_RX_STA                             0x2000001e   Data           2  uart4.o(.data)
    SystemCoreClock                          0x20000020   Data           4  system_stm32f10x.o(.data)
    AHBPrescTable                            0x20000024   Data          16  system_stm32f10x.o(.data)
    SoftTimer_Init_Flag                      0x20000048   Data           1  soft_timer.o(.data)
    data_data                                0x20000049   Data          10  soft_timer.o(.data)
    Key_Scan_Init_Flag                       0x20000053   Data           1  key.o(.data)
    Key                                      0x20000056   Data           1  key.o(.data)
    Button_Init_Flag                         0x20000058   Data           1  multi_button.o(.data)
    FLASHStatus                              0x20000060   Data           1  ymodem.o(.data)
    PageSize                                 0x20000062   Data           2  ymodem.o(.data)
    k                                        0x20000064   Data           2  ymodem.o(.data)
    EraseCounter                             0x20000068   Data           4  ymodem.o(.data)
    NbrOfPage                                0x2000006c   Data           4  ymodem.o(.data)
    Jump_To_Application                      0x20000070   Data           4  ymodem.o(.data)
    USART1_TX_BUF                            0x20000074   Data         300  usart1.o(.bss)
    USART1_RX_BUF                            0x200001a0   Data         300  usart1.o(.bss)
    USART2_TX_BUF                            0x200002cc   Data         600  usart2.o(.bss)
    USART2_RX_BUF                            0x20000524   Data         200  usart2.o(.bss)
    USART3_TX_BUF                            0x200005ec   Data         300  usart3.o(.bss)
    USART3_RX_BUF                            0x20000718   Data         200  usart3.o(.bss)
    UART4_TX_BUF                             0x200007e0   Data         300  uart4.o(.bss)
    UART4_RX_BUF                             0x2000090c   Data         200  uart4.o(.bss)
    timer                                    0x200009d4   Data          48  soft_timer.o(.bss)
    save_1024                                0x20000a04   Data        1024  ymodem.o(.bss)
    file_name                                0x20000e04   Data         256  ymodem.o(.bss)
    test                                     0x20000f04   Data         128  ymodem.o(.bss)
    __libspace_start                         0x20000f84   Data          96  libspace.o(.bss)
    __temporary_stack_top$libspace           0x20000fe4   Data           0  libspace.o(.bss)



==============================================================================

Memory Map of the image

  Image Entry point : 0x08000131

  Load Region LR_IROM1 (Base: 0x08000000, Size: 0x00004d48, Max: 0x00040000, ABSOLUTE)

    Execution Region ER_IROM1 (Exec base: 0x08000000, Load base: 0x08000000, Size: 0x00004cd4, Max: 0x00040000, ABSOLUTE)

    Exec Addr    Load Addr    Size         Type   Attr      Idx    E Section Name        Object

    0x08000000   0x08000000   0x00000130   Data   RO          560    RESET               startup_stm32f10x_hd.o
    0x08000130   0x08000130   0x00000008   Code   RO         3996  * !!!main             c_w.l(__main.o)
    0x08000138   0x08000138   0x00000034   Code   RO         4316    !!!scatter          c_w.l(__scatter.o)
    0x0800016c   0x0800016c   0x0000001a   Code   RO         4318    !!handler_copy      c_w.l(__scatter_copy.o)
    0x08000186   0x08000186   0x00000002   PAD
    0x08000188   0x08000188   0x0000001c   Code   RO         4320    !!handler_zi        c_w.l(__scatter_zi.o)
    0x080001a4   0x080001a4   0x00000000   Code   RO         3985    .ARM.Collect$$_printf_percent$$00000000  c_w.l(_printf_percent.o)
    0x080001a4   0x080001a4   0x00000006   Code   RO         4056    .ARM.Collect$$_printf_percent$$00000001  c_w.l(_printf_n.o)
    0x080001aa   0x080001aa   0x00000006   Code   RO         4058    .ARM.Collect$$_printf_percent$$00000002  c_w.l(_printf_p.o)
    0x080001b0   0x080001b0   0x00000006   Code   RO         4062    .ARM.Collect$$_printf_percent$$00000003  c_w.l(_printf_f.o)
    0x080001b6   0x080001b6   0x00000006   Code   RO         4063    .ARM.Collect$$_printf_percent$$00000004  c_w.l(_printf_e.o)
    0x080001bc   0x080001bc   0x00000006   Code   RO         4064    .ARM.Collect$$_printf_percent$$00000005  c_w.l(_printf_g.o)
    0x080001c2   0x080001c2   0x00000006   Code   RO         4065    .ARM.Collect$$_printf_percent$$00000006  c_w.l(_printf_a.o)
    0x080001c8   0x080001c8   0x0000000a   Code   RO         4070    .ARM.Collect$$_printf_percent$$00000007  c_w.l(_printf_ll.o)
    0x080001d2   0x080001d2   0x00000006   Code   RO         4060    .ARM.Collect$$_printf_percent$$00000008  c_w.l(_printf_i.o)
    0x080001d8   0x080001d8   0x00000006   Code   RO         3984    .ARM.Collect$$_printf_percent$$00000009  c_w.l(_printf_d.o)
    0x080001de   0x080001de   0x00000006   Code   RO         4061    .ARM.Collect$$_printf_percent$$0000000A  c_w.l(_printf_u.o)
    0x080001e4   0x080001e4   0x00000006   Code   RO         4059    .ARM.Collect$$_printf_percent$$0000000B  c_w.l(_printf_o.o)
    0x080001ea   0x080001ea   0x00000006   Code   RO         4057    .ARM.Collect$$_printf_percent$$0000000C  c_w.l(_printf_x.o)
    0x080001f0   0x080001f0   0x00000006   Code   RO         4067    .ARM.Collect$$_printf_percent$$0000000D  c_w.l(_printf_lli.o)
    0x080001f6   0x080001f6   0x00000006   Code   RO         4068    .ARM.Collect$$_printf_percent$$0000000E  c_w.l(_printf_lld.o)
    0x080001fc   0x080001fc   0x00000006   Code   RO         4069    .ARM.Collect$$_printf_percent$$0000000F  c_w.l(_printf_llu.o)
    0x08000202   0x08000202   0x00000006   Code   RO         4074    .ARM.Collect$$_printf_percent$$00000010  c_w.l(_printf_llo.o)
    0x08000208   0x08000208   0x00000006   Code   RO         4075    .ARM.Collect$$_printf_percent$$00000011  c_w.l(_printf_llx.o)
    0x0800020e   0x0800020e   0x0000000a   Code   RO         4071    .ARM.Collect$$_printf_percent$$00000012  c_w.l(_printf_l.o)
    0x08000218   0x08000218   0x00000006   Code   RO         4055    .ARM.Collect$$_printf_percent$$00000013  c_w.l(_printf_c.o)
    0x0800021e   0x0800021e   0x00000006   Code   RO         3983    .ARM.Collect$$_printf_percent$$00000014  c_w.l(_printf_s.o)
    0x08000224   0x08000224   0x00000006   Code   RO         4072    .ARM.Collect$$_printf_percent$$00000015  c_w.l(_printf_lc.o)
    0x0800022a   0x0800022a   0x00000006   Code   RO         4073    .ARM.Collect$$_printf_percent$$00000016  c_w.l(_printf_ls.o)
    0x08000230   0x08000230   0x00000004   Code   RO         4066    .ARM.Collect$$_printf_percent$$00000017  c_w.l(_printf_percent_end.o)
    0x08000234   0x08000234   0x00000002   Code   RO         4182    .ARM.Collect$$libinit$$00000000  c_w.l(libinit.o)
    0x08000236   0x08000236   0x00000000   Code   RO         4205    .ARM.Collect$$libinit$$00000002  c_w.l(libinit2.o)
    0x08000236   0x08000236   0x00000000   Code   RO         4207    .ARM.Collect$$libinit$$00000004  c_w.l(libinit2.o)
    0x08000236   0x08000236   0x00000000   Code   RO         4210    .ARM.Collect$$libinit$$0000000A  c_w.l(libinit2.o)
    0x08000236   0x08000236   0x00000000   Code   RO         4212    .ARM.Collect$$libinit$$0000000C  c_w.l(libinit2.o)
    0x08000236   0x08000236   0x00000000   Code   RO         4214    .ARM.Collect$$libinit$$0000000E  c_w.l(libinit2.o)
    0x08000236   0x08000236   0x00000006   Code   RO         4215    .ARM.Collect$$libinit$$0000000F  c_w.l(libinit2.o)
    0x0800023c   0x0800023c   0x00000000   Code   RO         4217    .ARM.Collect$$libinit$$00000011  c_w.l(libinit2.o)
    0x0800023c   0x0800023c   0x0000000c   Code   RO         4218    .ARM.Collect$$libinit$$00000012  c_w.l(libinit2.o)
    0x08000248   0x08000248   0x00000000   Code   RO         4219    .ARM.Collect$$libinit$$00000013  c_w.l(libinit2.o)
    0x08000248   0x08000248   0x00000000   Code   RO         4221    .ARM.Collect$$libinit$$00000015  c_w.l(libinit2.o)
    0x08000248   0x08000248   0x0000000a   Code   RO         4222    .ARM.Collect$$libinit$$00000016  c_w.l(libinit2.o)
    0x08000252   0x08000252   0x00000000   Code   RO         4223    .ARM.Collect$$libinit$$00000017  c_w.l(libinit2.o)
    0x08000252   0x08000252   0x00000000   Code   RO         4225    .ARM.Collect$$libinit$$00000019  c_w.l(libinit2.o)
    0x08000252   0x08000252   0x00000000   Code   RO         4227    .ARM.Collect$$libinit$$0000001B  c_w.l(libinit2.o)
    0x08000252   0x08000252   0x00000000   Code   RO         4229    .ARM.Collect$$libinit$$0000001D  c_w.l(libinit2.o)
    0x08000252   0x08000252   0x00000000   Code   RO         4231    .ARM.Collect$$libinit$$0000001F  c_w.l(libinit2.o)
    0x08000252   0x08000252   0x00000000   Code   RO         4233    .ARM.Collect$$libinit$$00000021  c_w.l(libinit2.o)
    0x08000252   0x08000252   0x00000000   Code   RO         4235    .ARM.Collect$$libinit$$00000023  c_w.l(libinit2.o)
    0x08000252   0x08000252   0x00000000   Code   RO         4237    .ARM.Collect$$libinit$$00000025  c_w.l(libinit2.o)
    0x08000252   0x08000252   0x00000000   Code   RO         4241    .ARM.Collect$$libinit$$0000002C  c_w.l(libinit2.o)
    0x08000252   0x08000252   0x00000000   Code   RO         4243    .ARM.Collect$$libinit$$0000002E  c_w.l(libinit2.o)
    0x08000252   0x08000252   0x00000000   Code   RO         4245    .ARM.Collect$$libinit$$00000030  c_w.l(libinit2.o)
    0x08000252   0x08000252   0x00000000   Code   RO         4247    .ARM.Collect$$libinit$$00000032  c_w.l(libinit2.o)
    0x08000252   0x08000252   0x00000002   Code   RO         4248    .ARM.Collect$$libinit$$00000033  c_w.l(libinit2.o)
    0x08000254   0x08000254   0x00000002   Code   RO         4272    .ARM.Collect$$libshutdown$$00000000  c_w.l(libshutdown.o)
    0x08000256   0x08000256   0x00000000   Code   RO         4298    .ARM.Collect$$libshutdown$$00000002  c_w.l(libshutdown2.o)
    0x08000256   0x08000256   0x00000000   Code   RO         4300    .ARM.Collect$$libshutdown$$00000004  c_w.l(libshutdown2.o)
    0x08000256   0x08000256   0x00000000   Code   RO         4303    .ARM.Collect$$libshutdown$$00000007  c_w.l(libshutdown2.o)
    0x08000256   0x08000256   0x00000000   Code   RO         4306    .ARM.Collect$$libshutdown$$0000000A  c_w.l(libshutdown2.o)
    0x08000256   0x08000256   0x00000000   Code   RO         4308    .ARM.Collect$$libshutdown$$0000000C  c_w.l(libshutdown2.o)
    0x08000256   0x08000256   0x00000000   Code   RO         4311    .ARM.Collect$$libshutdown$$0000000F  c_w.l(libshutdown2.o)
    0x08000256   0x08000256   0x00000002   Code   RO         4312    .ARM.Collect$$libshutdown$$00000010  c_w.l(libshutdown2.o)
    0x08000258   0x08000258   0x00000000   Code   RO         4000    .ARM.Collect$$rtentry$$00000000  c_w.l(__rtentry.o)
    0x08000258   0x08000258   0x00000000   Code   RO         4095    .ARM.Collect$$rtentry$$00000002  c_w.l(__rtentry2.o)
    0x08000258   0x08000258   0x00000006   Code   RO         4107    .ARM.Collect$$rtentry$$00000004  c_w.l(__rtentry4.o)
    0x0800025e   0x0800025e   0x00000000   Code   RO         4097    .ARM.Collect$$rtentry$$00000009  c_w.l(__rtentry2.o)
    0x0800025e   0x0800025e   0x00000004   Code   RO         4098    .ARM.Collect$$rtentry$$0000000A  c_w.l(__rtentry2.o)
    0x08000262   0x08000262   0x00000000   Code   RO         4100    .ARM.Collect$$rtentry$$0000000C  c_w.l(__rtentry2.o)
    0x08000262   0x08000262   0x00000008   Code   RO         4101    .ARM.Collect$$rtentry$$0000000D  c_w.l(__rtentry2.o)
    0x0800026a   0x0800026a   0x00000002   Code   RO         4191    .ARM.Collect$$rtexit$$00000000  c_w.l(rtexit.o)
    0x0800026c   0x0800026c   0x00000000   Code   RO         4250    .ARM.Collect$$rtexit$$00000002  c_w.l(rtexit2.o)
    0x0800026c   0x0800026c   0x00000004   Code   RO         4251    .ARM.Collect$$rtexit$$00000003  c_w.l(rtexit2.o)
    0x08000270   0x08000270   0x00000006   Code   RO         4252    .ARM.Collect$$rtexit$$00000004  c_w.l(rtexit2.o)
    0x08000276   0x08000276   0x00000002   PAD
    0x08000278   0x08000278   0x00000020   Code   RO          443    .emb_text           core_cm3.o
    0x08000298   0x08000298   0x00000040   Code   RO          561    .text               startup_stm32f10x_hd.o
    0x080002d8   0x080002d8   0x00000002   Code   RO         3943    .text               c_w.l(use_no_semi_2.o)
    0x080002da   0x080002da   0x000000ee   Code   RO         3945    .text               c_w.l(lludivv7m.o)
    0x080003c8   0x080003c8   0x00000034   Code   RO         3947    .text               c_w.l(vsnprintf.o)
    0x080003fc   0x080003fc   0x00000018   Code   RO         3949    .text               c_w.l(__2printf.o)
    0x08000414   0x08000414   0x00000052   Code   RO         3959    .text               c_w.l(_printf_str.o)
    0x08000466   0x08000466   0x00000002   PAD
    0x08000468   0x08000468   0x00000078   Code   RO         3961    .text               c_w.l(_printf_dec.o)
    0x080004e0   0x080004e0   0x00000188   Code   RO         3980    .text               c_w.l(__printf_flags_ss_wp.o)
    0x08000668   0x08000668   0x0000003c   Code   RO         3986    .text               c_w.l(__0sscanf.o)
    0x080006a4   0x080006a4   0x0000014c   Code   RO         3988    .text               c_w.l(_scanf_int.o)
    0x080007f0   0x080007f0   0x0000008a   Code   RO         3990    .text               c_w.l(rt_memcpy_v6.o)
    0x0800087a   0x0800087a   0x00000006   Code   RO         3994    .text               c_w.l(heapauxi.o)
    0x08000880   0x08000880   0x00000002   Code   RO         3998    .text               c_w.l(use_no_semi.o)
    0x08000882   0x08000882   0x0000004e   Code   RO         4005    .text               c_w.l(_printf_pad.o)
    0x080008d0   0x080008d0   0x00000024   Code   RO         4007    .text               c_w.l(_printf_truncate.o)
    0x080008f4   0x080008f4   0x000000b2   Code   RO         4009    .text               c_w.l(_printf_intcommon.o)
    0x080009a6   0x080009a6   0x00000028   Code   RO         4011    .text               c_w.l(_printf_charcount.o)
    0x080009ce   0x080009ce   0x00000002   PAD
    0x080009d0   0x080009d0   0x00000030   Code   RO         4013    .text               c_w.l(_printf_char_common.o)
    0x08000a00   0x08000a00   0x0000000a   Code   RO         4015    .text               c_w.l(_sputc.o)
    0x08000a0a   0x08000a0a   0x00000010   Code   RO         4017    .text               c_w.l(_snputc.o)
    0x08000a1a   0x08000a1a   0x0000002c   Code   RO         4019    .text               c_w.l(_printf_char.o)
    0x08000a46   0x08000a46   0x00000002   PAD
    0x08000a48   0x08000a48   0x00000024   Code   RO         4021    .text               c_w.l(_printf_char_file.o)
    0x08000a6c   0x08000a6c   0x000000bc   Code   RO         4023    .text               c_w.l(_printf_wctomb.o)
    0x08000b28   0x08000b28   0x0000007c   Code   RO         4026    .text               c_w.l(_printf_longlong_dec.o)
    0x08000ba4   0x08000ba4   0x00000070   Code   RO         4032    .text               c_w.l(_printf_oct_int_ll.o)
    0x08000c14   0x08000c14   0x00000094   Code   RO         4052    .text               c_w.l(_printf_hex_int_ll_ptr.o)
    0x08000ca8   0x08000ca8   0x0000001c   Code   RO         4076    .text               c_w.l(_chval.o)
    0x08000cc4   0x08000cc4   0x0000002c   Code   RO         4078    .text               c_w.l(scanf_char.o)
    0x08000cf0   0x08000cf0   0x00000040   Code   RO         4080    .text               c_w.l(_sgetc.o)
    0x08000d30   0x08000d30   0x00000064   Code   RO         4082    .text               c_w.l(rt_memcpy_w.o)
    0x08000d94   0x08000d94   0x0000008a   Code   RO         4111    .text               c_w.l(lludiv10.o)
    0x08000e1e   0x08000e1e   0x00000012   Code   RO         4113    .text               c_w.l(isspace.o)
    0x08000e30   0x08000e30   0x0000041e   Code   RO         4115    .text               c_w.l(_printf_fp_dec.o)
    0x0800124e   0x0800124e   0x00000002   PAD
    0x08001250   0x08001250   0x000002fc   Code   RO         4117    .text               c_w.l(_printf_fp_hex.o)
    0x0800154c   0x0800154c   0x0000002c   Code   RO         4122    .text               c_w.l(_printf_wchar.o)
    0x08001578   0x08001578   0x00000374   Code   RO         4124    .text               c_w.l(_scanf.o)
    0x080018ec   0x080018ec   0x00000008   Code   RO         4126    .text               c_w.l(ferror.o)
    0x080018f4   0x080018f4   0x00000040   Code   RO         4130    .text               c_w.l(_wcrtomb.o)
    0x08001934   0x08001934   0x0000004a   Code   RO         4132    .text               c_w.l(sys_stackheap_outer.o)
    0x0800197e   0x0800197e   0x00000002   PAD
    0x08001980   0x08001980   0x00000010   Code   RO         4134    .text               c_w.l(rt_ctype_table.o)
    0x08001990   0x08001990   0x00000008   Code   RO         4139    .text               c_w.l(rt_locale_intlibspace.o)
    0x08001998   0x08001998   0x00000080   Code   RO         4141    .text               c_w.l(_printf_fp_infnan.o)
    0x08001a18   0x08001a18   0x000000e4   Code   RO         4143    .text               c_w.l(bigflt0.o)
    0x08001afc   0x08001afc   0x00000012   Code   RO         4171    .text               c_w.l(exit.o)
    0x08001b0e   0x08001b0e   0x00000002   PAD
    0x08001b10   0x08001b10   0x00000008   Code   RO         4188    .text               c_w.l(libspace.o)
    0x08001b18   0x08001b18   0x00000080   Code   RO         4202    .text               c_w.l(strcmpv7m.o)
    0x08001b98   0x08001b98   0x0000003e   Code   RO         4146    CL$$btod_d2e        c_w.l(btod.o)
    0x08001bd6   0x08001bd6   0x00000046   Code   RO         4148    CL$$btod_d2e_denorm_low  c_w.l(btod.o)
    0x08001c1c   0x08001c1c   0x00000060   Code   RO         4147    CL$$btod_d2e_norm_op1  c_w.l(btod.o)
    0x08001c7c   0x08001c7c   0x00000338   Code   RO         4156    CL$$btod_div_common  c_w.l(btod.o)
    0x08001fb4   0x08001fb4   0x000000dc   Code   RO         4153    CL$$btod_e2e        c_w.l(btod.o)
    0x08002090   0x08002090   0x0000002a   Code   RO         4150    CL$$btod_ediv       c_w.l(btod.o)
    0x080020ba   0x080020ba   0x0000002a   Code   RO         4149    CL$$btod_emul       c_w.l(btod.o)
    0x080020e4   0x080020e4   0x00000244   Code   RO         4155    CL$$btod_mult_common  c_w.l(btod.o)
    0x08002328   0x08002328   0x00000002   Code   RO          454    i.BusFault_Handler  stm32f10x_it.o
    0x0800232a   0x0800232a   0x000001da   Code   RO         3704    i.Button_Handler    multi_button.o
    0x08002504   0x08002504   0x00000020   Code   RO         3708    i.Button_Ticks      multi_button.o
    0x08002524   0x08002524   0x00000080   Code   RO         3841    i.Cal_CRC16         ymodem.o
    0x080025a4   0x080025a4   0x00000002   Code   RO          455    i.DebugMon_Handler  stm32f10x_it.o
    0x080025a6   0x080025a6   0x00000002   PAD
    0x080025a8   0x080025a8   0x00000080   Code   RO         1446    i.FLASH_ErasePage   stm32f10x_flash.o
    0x08002628   0x08002628   0x00000010   Code   RO         1456    i.FLASH_Lock        stm32f10x_flash.o
    0x08002638   0x08002638   0x00000016   Code   RO         3809    i.FLASH_PagesMask   my_ymodem.o
    0x0800264e   0x0800264e   0x00000002   PAD
    0x08002650   0x08002650   0x00000090   Code   RO         1461    i.FLASH_ProgramWord  stm32f10x_flash.o
    0x080026e0   0x080026e0   0x00000018   Code   RO         1464    i.FLASH_Unlock      stm32f10x_flash.o
    0x080026f8   0x080026f8   0x00000064   Code   RO         1468    i.FLASH_WaitForLastOperation  stm32f10x_flash.o
    0x0800275c   0x0800275c   0x00000170   Code   RO         1745    i.GPIO_Init         stm32f10x_gpio.o
    0x080028cc   0x080028cc   0x00000230   Code   RO         1747    i.GPIO_PinRemapConfig  stm32f10x_gpio.o
    0x08002afc   0x08002afc   0x00000002   Code   RO          456    i.HardFault_Handler  stm32f10x_it.o
    0x08002afe   0x08002afe   0x00000002   PAD
    0x08002b00   0x08002b00   0x0000005c   Code   RO         3672    i.KEY_Scan          key.o
    0x08002b5c   0x08002b5c   0x00000002   Code   RO          457    i.MemManage_Handler  stm32f10x_it.o
    0x08002b5e   0x08002b5e   0x00000002   Code   RO          458    i.NMI_Handler       stm32f10x_it.o
    0x08002b60   0x08002b60   0x000000b8   Code   RO          565    i.NVIC_Init         misc.o
    0x08002c18   0x08002c18   0x00000058   Code   RO          566    i.NVIC_PriorityGroupConfig  misc.o
    0x08002c70   0x08002c70   0x00000002   Code   RO          459    i.PendSV_Handler    stm32f10x_it.o
    0x08002c72   0x08002c72   0x00000002   PAD
    0x08002c74   0x08002c74   0x00000068   Code   RO         2173    i.RCC_APB1PeriphClockCmd  stm32f10x_rcc.o
    0x08002cdc   0x08002cdc   0x00000068   Code   RO         2175    i.RCC_APB2PeriphClockCmd  stm32f10x_rcc.o
    0x08002d44   0x08002d44   0x000000ac   Code   RO         2183    i.RCC_GetClocksFreq  stm32f10x_rcc.o
    0x08002df0   0x08002df0   0x00000034   Code   RO         3842    i.Receive_Byte      ymodem.o
    0x08002e24   0x08002e24   0x00000002   Code   RO          460    i.SVC_Handler       stm32f10x_it.o
    0x08002e26   0x08002e26   0x00000002   PAD
    0x08002e28   0x08002e28   0x00000190   Code   RO         3810    i.SerialDownload    my_ymodem.o
    0x08002fb8   0x08002fb8   0x0000009c   Code   RO         3606    i.SoftTimer_Update  soft_timer.o
    0x08003054   0x08003054   0x00000048   Code   RO          569    i.SysTick_CLKSourceConfig  misc.o
    0x0800309c   0x0800309c   0x00000080   Code   RO         3574    i.SysTick_Callback  systick.o
    0x0800311c   0x0800311c   0x00000018   Code   RO          227    i.SysTick_Handler   delay.o
    0x08003134   0x08003134   0x000000f0   Code   RO          535    i.SystemInit        system_stm32f10x.o
    0x08003224   0x08003224   0x000000b4   Code   RO          401    i.UART4_IRQHandler  uart4.o
    0x080032d8   0x080032d8   0x00000114   Code   RO          402    i.UART4_Init        uart4.o
    0x080033ec   0x080033ec   0x000000b4   Code   RO          268    i.USART1_IRQHandler  usart1.o
    0x080034a0   0x080034a0   0x000000b4   Code   RO          317    i.USART2_IRQHandler  usart2.o
    0x08003554   0x08003554   0x000000b4   Code   RO          359    i.USART3_IRQHandler  usart3.o
    0x08003608   0x08003608   0x000000a4   Code   RO         3334    i.USART_ClearFlag   stm32f10x_usart.o
    0x080036ac   0x080036ac   0x0000008c   Code   RO         3338    i.USART_Cmd         stm32f10x_usart.o
    0x08003738   0x08003738   0x000000c8   Code   RO         3341    i.USART_GetFlagStatus  stm32f10x_usart.o
    0x08003800   0x08003800   0x00000114   Code   RO         3342    i.USART_GetITStatus  stm32f10x_usart.o
    0x08003914   0x08003914   0x00000118   Code   RO         3344    i.USART_ITConfig    stm32f10x_usart.o
    0x08003a2c   0x08003a2c   0x000001c4   Code   RO         3345    i.USART_Init        stm32f10x_usart.o
    0x08003bf0   0x08003bf0   0x00000070   Code   RO         3352    i.USART_ReceiveData  stm32f10x_usart.o
    0x08003c60   0x08003c60   0x00000080   Code   RO         3355    i.USART_SendData    stm32f10x_usart.o
    0x08003ce0   0x08003ce0   0x00000002   Code   RO          461    i.UsageFault_Handler  stm32f10x_it.o
    0x08003ce2   0x08003ce2   0x00000002   PAD
    0x08003ce4   0x08003ce4   0x000001f4   Code   RO         3811    i.Ymodem_Init       my_ymodem.o
    0x08003ed8   0x08003ed8   0x00000a04   Code   RO         3848    i.Ymodem_Receive    ymodem.o
    0x080048dc   0x080048dc   0x00000028   Code   RO         4186    i.__ARM_fpclassify  m_ws.l(fpclassify.o)
    0x08004904   0x08004904   0x0000000e   Code   RO         3973    i._is_digit         c_w.l(__printf_wp.o)
    0x08004912   0x08004912   0x00000002   Code   RO          170    i._sys_exit         sys.o
    0x08004914   0x08004914   0x00000028   Code   RO          172    i.assert_failed     sys.o
    0x0800493c   0x0800493c   0x00000074   Code   RO          228    i.delay_init        delay.o
    0x080049b0   0x080049b0   0x00000038   Code   RO          229    i.delay_ms          delay.o
    0x080049e8   0x080049e8   0x00000030   Code   RO          173    i.fputc             sys.o
    0x08004a18   0x08004a18   0x0000000e   Code   RO            1    i.main              main.o
    0x08004a26   0x08004a26   0x00000002   PAD
    0x08004a28   0x08004a28   0x0000002c   Code   RO         4169    locale$$code        c_w.l(lc_numeric_c.o)
    0x08004a54   0x08004a54   0x0000002c   Code   RO         4196    locale$$code        c_w.l(lc_ctype_c.o)
    0x08004a80   0x08004a80   0x00000004   Code   RO         4086    x$fpl$printf1       fz_ws.l(printf1.o)
    0x08004a84   0x08004a84   0x00000004   Code   RO         4088    x$fpl$printf2       fz_ws.l(printf2.o)
    0x08004a88   0x08004a88   0x00000000   Code   RO         4185    x$fpl$usenofp       fz_ws.l(usenofp.o)
    0x08004a88   0x08004a88   0x00000011   Data   RO         3981    .constdata          c_w.l(__printf_flags_ss_wp.o)
    0x08004a99   0x08004a99   0x00000003   PAD
    0x08004a9c   0x08004a9c   0x00000008   Data   RO         4024    .constdata          c_w.l(_printf_wctomb.o)
    0x08004aa4   0x08004aa4   0x00000028   Data   RO         4053    .constdata          c_w.l(_printf_hex_int_ll_ptr.o)
    0x08004acc   0x08004acc   0x00000026   Data   RO         4118    .constdata          c_w.l(_printf_fp_hex.o)
    0x08004af2   0x08004af2   0x00000002   PAD
    0x08004af4   0x08004af4   0x00000094   Data   RO         4144    .constdata          c_w.l(bigflt0.o)
    0x08004b88   0x08004b88   0x00000020   Data   RO         4314    Region$$Table       anon$$obj.o
    0x08004ba8   0x08004ba8   0x0000001c   Data   RO         4168    locale$$data        c_w.l(lc_numeric_c.o)
    0x08004bc4   0x08004bc4   0x00000110   Data   RO         4195    locale$$data        c_w.l(lc_ctype_c.o)


    Execution Region RW_IRAM1 (Exec base: 0x20000000, Load base: 0x08004cd4, Size: 0x000015e8, Max: 0x0000c000, ABSOLUTE)

    Exec Addr    Load Addr    Size         Type   Attr      Idx    E Section Name        Object

    0x20000000   0x08004cd4   0x00000004   Data   RW          176    .data               sys.o
    0x20000004   0x08004cd8   0x00000004   PAD
    0x20000008   0x08004cdc   0x00000010   Data   RW          232    .data               delay.o
    0x20000018   0x08004cec   0x00000002   Data   RW          274    .data               usart1.o
    0x2000001a   0x08004cee   0x00000002   Data   RW          323    .data               usart2.o
    0x2000001c   0x08004cf0   0x00000002   Data   RW          365    .data               usart3.o
    0x2000001e   0x08004cf2   0x00000002   Data   RW          407    .data               uart4.o
    0x20000020   0x08004cf4   0x00000014   Data   RW          536    .data               system_stm32f10x.o
    0x20000034   0x08004d08   0x00000014   Data   RW         2203    .data               stm32f10x_rcc.o
    0x20000048   0x08004d1c   0x0000000b   Data   RW         3612    .data               soft_timer.o
    0x20000053   0x08004d27   0x00000004   Data   RW         3674    .data               key.o
    0x20000057   0x08004d2b   0x00000001   PAD
    0x20000058   0x08004d2c   0x00000008   Data   RW         3714    .data               multi_button.o
    0x20000060   0x08004d34   0x00000010   Data   RW         3853    .data               ymodem.o
    0x20000070   0x08004d44   0x00000004   Data   RW         3854    .data               ymodem.o
    0x20000074        -       0x00000258   Zero   RW          273    .bss                usart1.o
    0x200002cc        -       0x00000320   Zero   RW          322    .bss                usart2.o
    0x200005ec        -       0x000001f4   Zero   RW          364    .bss                usart3.o
    0x200007e0        -       0x000001f4   Zero   RW          406    .bss                uart4.o
    0x200009d4        -       0x00000030   Zero   RW         3611    .bss                soft_timer.o
    0x20000a04        -       0x00000400   Zero   RW         3851    .bss                ymodem.o
    0x20000e04        -       0x00000180   Zero   RW         3852    .bss                ymodem.o
    0x20000f84        -       0x00000060   Zero   RW         4189    .bss                c_w.l(libspace.o)
    0x20000fe4   0x08004d48   0x00000004   PAD
    0x20000fe8        -       0x00000200   Zero   RW          559    HEAP                startup_stm32f10x_hd.o
    0x200011e8        -       0x00000400   Zero   RW          558    STACK               startup_stm32f10x_hd.o


==============================================================================

Image component sizes


      Code (inc. data)   RO Data    RW Data    ZI Data      Debug   Object Name

        32          0          0          0          0        548   core_cm3.o
       196         28          0         16          0      17256   delay.o
        92         10          0          4          0       1044   key.o
        14          0          0          0          0     241551   main.o
       344         96          0          0          0       3681   misc.o
       506         12          0          8          0       2561   multi_button.o
       922        522          0          0          0       2333   my_ymodem.o
       156         36          0         11         48       2026   soft_timer.o
        64         26        304          0       1536        784   startup_stm32f10x_hd.o
       412        118          0          0          0      11163   stm32f10x_flash.o
       928        138          0          0          0      11094   stm32f10x_gpio.o
        16          0          0          0          0       3276   stm32f10x_it.o
       380        112          0         20          0      13362   stm32f10x_rcc.o
      1752        392          0          0          0      13107   stm32f10x_usart.o
        90         36          0          4          0       4954   sys.o
       240         18          0         20          0       1401   system_stm32f10x.o
       128         20          0          0          0        483   systick.o
       456         44          0          2        500       2113   uart4.o
       180         12          0          2        600       1902   usart1.o
       180         14          0          2        800       1338   usart2.o
       180         14          0          2        500       1338   usart3.o
      2744         56          0         20       1408       8609   ymodem.o

    ----------------------------------------------------------------------
     10026       1704        336        116       5392     345924   Object Totals
         0          0         32          0          0          0   (incl. Generated)
        14          0          0          5          0          0   (incl. Padding)

    ----------------------------------------------------------------------

      Code (inc. data)   RO Data    RW Data    ZI Data      Debug   Library Member Name

        60          8          0          0          0         84   __0sscanf.o
        24          4          0          0          0         84   __2printf.o
         8          0          0          0          0         68   __main.o
       392          4         17          0          0         92   __printf_flags_ss_wp.o
        14          0          0          0          0         68   __printf_wp.o
         0          0          0          0          0          0   __rtentry.o
        12          0          0          0          0          0   __rtentry2.o
         6          0          0          0          0          0   __rtentry4.o
        52          8          0          0          0          0   __scatter.o
        26          0          0          0          0          0   __scatter_copy.o
        28          0          0          0          0          0   __scatter_zi.o
        28          0          0          0          0         68   _chval.o
         6          0          0          0          0          0   _printf_a.o
         6          0          0          0          0          0   _printf_c.o
        44          0          0          0          0        108   _printf_char.o
        48          6          0          0          0         96   _printf_char_common.o
        36          4          0          0          0         80   _printf_char_file.o
        40          0          0          0          0         68   _printf_charcount.o
         6          0          0          0          0          0   _printf_d.o
       120         16          0          0          0         92   _printf_dec.o
         6          0          0          0          0          0   _printf_e.o
         6          0          0          0          0          0   _printf_f.o
      1054          0          0          0          0        216   _printf_fp_dec.o
       764          8         38          0          0        100   _printf_fp_hex.o
       128         16          0          0          0         84   _printf_fp_infnan.o
         6          0          0          0          0          0   _printf_g.o
       148          4         40          0          0        160   _printf_hex_int_ll_ptr.o
         6          0          0          0          0          0   _printf_i.o
       178          0          0          0          0         88   _printf_intcommon.o
        10          0          0          0          0          0   _printf_l.o
         6          0          0          0          0          0   _printf_lc.o
        10          0          0          0          0          0   _printf_ll.o
         6          0          0          0          0          0   _printf_lld.o
         6          0          0          0          0          0   _printf_lli.o
         6          0          0          0          0          0   _printf_llo.o
         6          0          0          0          0          0   _printf_llu.o
         6          0          0          0          0          0   _printf_llx.o
       124         16          0          0          0         92   _printf_longlong_dec.o
         6          0          0          0          0          0   _printf_ls.o
         6          0          0          0          0          0   _printf_n.o
         6          0          0          0          0          0   _printf_o.o
       112         10          0          0          0        124   _printf_oct_int_ll.o
         6          0          0          0          0          0   _printf_p.o
        78          0          0          0          0        108   _printf_pad.o
         0          0          0          0          0          0   _printf_percent.o
         4          0          0          0          0          0   _printf_percent_end.o
         6          0          0          0          0          0   _printf_s.o
        82          0          0          0          0         80   _printf_str.o
        36          0          0          0          0         84   _printf_truncate.o
         6          0          0          0          0          0   _printf_u.o
        44          0          0          0          0        108   _printf_wchar.o
       188          6          8          0          0         92   _printf_wctomb.o
         6          0          0          0          0          0   _printf_x.o
       884          6          0          0          0        100   _scanf.o
       332          0          0          0          0         96   _scanf_int.o
        64          0          0          0          0         84   _sgetc.o
        16          0          0          0          0         68   _snputc.o
        10          0          0          0          0         68   _sputc.o
        64          0          0          0          0         92   _wcrtomb.o
       228          4        148          0          0         96   bigflt0.o
      1936        128          0          0          0        672   btod.o
        18          0          0          0          0         80   exit.o
         8          0          0          0          0         68   ferror.o
         6          0          0          0          0        152   heapauxi.o
        18          0          0          0          0         76   isspace.o
        44         10        272          0          0         76   lc_ctype_c.o
        44         10         28          0          0         76   lc_numeric_c.o
         2          0          0          0          0          0   libinit.o
        30          0          0          0          0          0   libinit2.o
         2          0          0          0          0          0   libshutdown.o
         2          0          0          0          0          0   libshutdown2.o
         8          4          0          0         96         68   libspace.o
       138          0          0          0          0         80   lludiv10.o
       238          0          0          0          0        100   lludivv7m.o
        16          4          0          0          0         76   rt_ctype_table.o
         8          4          0          0          0         68   rt_locale_intlibspace.o
       138          0          0          0          0         68   rt_memcpy_v6.o
       100          0          0          0          0         80   rt_memcpy_w.o
         2          0          0          0          0          0   rtexit.o
        10          0          0          0          0          0   rtexit2.o
        44          8          0          0          0         84   scanf_char.o
       128          0          0          0          0         68   strcmpv7m.o
        74          0          0          0          0         80   sys_stackheap_outer.o
         2          0          0          0          0         68   use_no_semi.o
         2          0          0          0          0         68   use_no_semi_2.o
        52          4          0          0          0         80   vsnprintf.o
         4          0          0          0          0         68   printf1.o
         4          0          0          0          0         68   printf2.o
         0          0          0          0          0          0   usenofp.o
        40          0          0          0          0         68   fpclassify.o

    ----------------------------------------------------------------------
      8750        292        556          0        100       5240   Library Totals
        16          0          5          0          4          0   (incl. Padding)

    ----------------------------------------------------------------------

      Code (inc. data)   RO Data    RW Data    ZI Data      Debug   Library Name

      8686        292        551          0         96       5036   c_w.l
         8          0          0          0          0        136   fz_ws.l
        40          0          0          0          0         68   m_ws.l

    ----------------------------------------------------------------------
      8750        292        556          0        100       5240   Library Totals

    ----------------------------------------------------------------------

==============================================================================


      Code (inc. data)   RO Data    RW Data    ZI Data      Debug   

     18776       1996        892        116       5492     345648   Grand Totals
     18776       1996        892        116       5492     345648   ELF Image Totals
     18776       1996        892        116          0          0   ROM Totals

==============================================================================

    Total RO  Size (Code + RO Data)                19668 (  19.21kB)
    Total RW  Size (RW Data + ZI Data)              5608 (   5.48kB)
    Total ROM Size (Code + RO Data + RW Data)      19784 (  19.32kB)

==============================================================================

